:100000000C946E0C0C94990C0C94990C0C94990C07
:100010000C94990C0C94990C0C94990C0C94990CCC
:100020000C94990C0C94990C0C9403A70C947CA53B
:100030000C94990C0C94990C0C94990C0C94990CAC
:100040000C94990C0C94DC800C94990C0C94990CE5
:100050000C94990C0C94990C0C94D5890C943FA495
:100060000C94990C0C94990C0C94990C0C94990C7C
:100070000C94990C0C94990C0C94990C0C94990C6C
:100080000C94990C0C94990C0C94990C0C94990C5C
:100090000C944F9E0C94990C084AD73B3BCE016EB2
:1000A00084BCBFFDC12F3D6C74319ABD56833DDACF
:1000B0003D00C77F11BED9E4BB4C3E916BAAAABEDE
:1000C000000000803F05A84CCDB2D44EB93836A907
:1000D000020C50B9918688083CA6AAAA2ABE000044
:1000E00000803F4D383420582059205A2045006563
:1000F00063686F3A0043616E6E6F7420656E74655D
:1001000072207375626469723A20004D3234004D7A
:100110003233202573006175746F25692E670045A1
:1001200072726F723A006572726F722077726974C0
:10013000696E6720746F2066696C65004E6F74206D
:100140005344207072696E74696E67002F005344C7
:10015000207072696E74696E672062797465200020
:100160002E0044656C6574696F6E206661696C650C
:10017000642C2046696C653A200046696C652064F1
:10018000656C657465643A002E006F70656E20665C
:1001900061696C65642C2046696C653A2000577271
:1001A0006974696E6720746F2066696C653A200017
:1001B0002E006F70656E206661696C65642C204648
:1001C000696C653A20002E006F70656E206661696B
:1001D0006C65642C2046696C653A200046696C6544
:1001E0002073656C6563746564002053697A653AB1
:1001F000200046696C65206F70656E65643A20006A
:100200002E006F70656E206661696C65642C2046F7
:10021000696C653A20004E6F7720667265736820BE
:1002200066696C653A20004E6F7720646F696E676F
:100230002066696C653A20002220706F73002220CE
:10024000706172656E743A2200535542524F555494
:10025000494E452043414C4C207461726765743AA5
:100260002200747279696E6720746F2063616C6C10
:10027000207375622D67636F64652066696C6573B2
:10028000207769746820746F6F206D616E79206CBF
:100290006576656C732E204D4158206C6576656CD3
:1002A0002069733A0053442063617264206F6B00CD
:1002B0006F70656E526F6F74206661696C65640063
:1002C000766F6C756D652E696E6974206661696CF8
:1002D000656400534420696E6974206661696C002E
:1002E0006563686F3A0048617264636F6465642097
:1002F00044656661756C742053657474696E6773C8
:10030000204C6F616465640053746F726564207380
:10031000657474696E677320726574726965766559
:100320006400205A0020590020204D3231322058DC
:10033000004265642070726F6265206F6666736547
:100340007420286D6D293A00205A00205900202081
:100350004D3231312058004D617820706F736974CF
:10036000696F6E20286D6D293A00205A00205900CF
:1003700020204D3231302058004D696E20706F734F
:100380006974696F6E20286D6D293A002044002041
:1003900049002020204D3330312050005049442066
:1003A00073657474696E67733A00205A00205900AF
:1003B00020204D323036205800486F6D65206F6622
:1003C0006673657420286D6D293A00204500205A17
:1003D0000020580020420020540020204D323035AB
:1003E000205300416476616E6365642076617269B2
:1003F00061626C65733A20533D4D696E2066656598
:10040000647261746520286D6D2F73292C20543D12
:100410004D696E2074726176656C206665656472E4
:1004200061746520286D6D2F73292C20423D6D6904
:100430006E696D756D207365676D656E7420746986
:100440006D6520286D73292C20583D6D6178696D8C
:10045000756D205859206A65726B20286D6D2F7359
:10046000292C20205A3D6D6178696D756D205A20C8
:100470006A65726B20286D6D2F73292C2020453DF5
:100480006D6178696D756D2045206A65726B2028F5
:100490006D6D2F73290020540020204D3230342000
:1004A0005300416363656C65726174696F6E3A20D5
:1004B000533D616363656C65726174696F6E2C2076
:1004C000543D7265747261637420616363656C6529
:1004D000726174696F6E00204500205A0020590037
:1004E00020204D3230312058004D6178696D756D96
:1004F00020416363656C65726174696F6E20286D5D
:100500006D2F7332293A00204500205A00205900EF
:1005100020204D3230332058004D6178696D756D63
:100520002066656564726174657320286D6D2F7334
:10053000293A00204500205A0020590020204D393A
:100540003220580053746570732070657220756E88
:1005500069743A0053657474696E67732053746FDD
:10056000726564006563686F3A004572726F723A33
:100570000053544F505045442E20005072696E7401
:1005800065722073746F7070656420647565207483
:100590006F206572726F72732E20466978207468BE
:1005A00065206572726F7220616E642075736520BC
:1005B0004D39393920746F20726573746172742EED
:1005C000202854656D706572617475726520697359
:1005D0002072657365742E205365742069742061E0
:1005E000667465722072657374617274696E6729CE
:1005F000004B494C4C45442E20005072696E746586
:10060000722068616C7465642E206B696C6C28299B
:100610002063616C6C656421006F6B0052657365CB
:100620006E643A20002200556E6B6E6F776E206309
:100630006F6D6D616E643A202200486F74656E6460
:10064000206F6666736574733A007A5F6D696E3AFF
:100650002000795F6D61783A2000785F6D696E3AAD
:1006600020005A3A00593A0020436F756E742058A2
:100670003A2000453A005A3A00593A00583A0046A2
:1006800049524D574152455F4E414D453A4D617279
:100690006C696E2056313B20537072696E746572BE
:1006A0002F6772626C206D617368757020666F725F
:1006B0002067656E36204649524D574152455F5579
:1006C000524C3A687474703A2F2F7072696E74725B
:1006D000626F742E636F6D2050524F544F434F4CD6
:1006E0005F56455253494F4E3A312E30204D4143CB
:1006F00048494E455F545950453A5072696E74727C
:10070000626F742045585452554445525F434F55CB
:100710004E543A3320555549443A30303030303019
:1007200030302D303030302D303030302D303030D2
:10073000302D3030303030303030303030300A0012
:1007400042656420646F6E652E0020423A002045A9
:100750003A00543A004265642048656174696E67E6
:100760002E0048656174696E6720646F6E652E00A7
:1007700020573A0020453A00543A004865617469B0
:100780006E672E2E2E002042403A0020403A002074
:100790002F003A00205400202F0020423A00202F42
:1007A000006F6B20543A002569206D696E2C20255E
:1007B000692073656300456E642066696C65206C12
:1007C00069737400426567696E2066696C65206CA8
:1007D000697374004E6F206D6F76652E000A0020DD
:1007E0005A3A200020593A200042656420506F7325
:1007F0006974696F6E20583A20000A00207A3A2006
:100800000020793A200042656420783A20000A00EE
:10081000207A3A200020793A200042656420783A14
:1008200020000A00207A3A200020793A2000426510
:100830006420783A20005A50726F6265204F7574B8
:100840007369646520426564005A50726F62652066
:100850004F7574736964652042656400486F6D6507
:1008600020582F59206265666F7265205A00486FC4
:100870006D6520582F59206265666F7265205A0099
:10088000536C6565702E2E2E00FF01FF0000A04006
:100890000000A0400000803F256920686F757273DA
:1008A000202569206D696E7574657300446F6E65EF
:1008B000207072696E74696E672066696C6500539A
:1008C000544F505045442E20005072696E7465722A
:1008D0002073746F707065642064756520746F2078
:1008E0006572726F72732E20466978207468652075
:1008F0006572726F7220616E6420757365204D3968
:10090000393920746F20726573746172742E2028D7
:1009100054656D70657261747572652069732072BB
:10092000657365742E205365742069742061667444
:1009300065722072657374617274696E6729006FE5
:100940006B004E6F204C696E65204E756D6265724E
:10095000207769746820636865636B73756D2C20FC
:100960004C617374204C696E653A20004E6F2043D1
:100970006865636B73756D2077697468206C696E48
:1009800065206E756D6265722C204C617374204C0D
:10099000696E653A2000636865636B73756D206DE1
:1009A00069736D617463682C204C617374204C69A9
:1009B0006E653A20004C696E65204E756D626572F9
:1009C000206973206E6F74204C617374204C696EC3
:1009D00065204E756D6265722B312C204C617374ED
:1009E000204C696E653A20004D31313000446F6E05
:1009F0006520736176696E672066696C652E006F8D
:100A00006B004D3239002020506C616E6E65724271
:100A1000756666657242797465733A200020467285
:100A20006565204D656D6F72793A200041707220C6
:100A30003233203230313800436F6D70696C656439
:100A40003A2000286C77616C6B6572612C205072C3
:100A5000696E7472626F74206669726D7761726517
:100A60002900207C20417574686F723A2000417023
:100A70007220323320323031382031303A31333A3B
:100A8000303300204C617374205570646174656468
:100A90003A2000312E302E30004D61726C696E208C
:100AA0000020536F667477617265205265736574B8
:100AB00000205761746368646F67205265736574C2
:100AC000002042726F776E206F75742052657365D7
:100AD00074002045787465726E616C205265736590
:100AE0007400506F77657255700073746172740092
:100AF0002200656E717565696E67202200220065AF
:100B00006E717565696E672022006563686F3A00D3
:100B100020746F6F206C6F6E6720657874727573C8
:100B2000696F6E2070726576656E7465640020630F
:100B30006F6C6420657874727573696F6E20707263
:100B40006576656E746564007C3C3E5E2B3D3F2F90
:100B50005B5D3B2C2A225C0045313A200045303A4F
:100B600020005A3A2000593A2000583A20004D53AC
:100B7000312C4D53322050696E730A0024F404D98D
:100B8000201BC40C5C0E9804C4095F026507710148
:100B9000F405F900FB04B30048048700C1036900B1
:100BA0005803550003034500BE023A008402310099
:100BB00053022A002902250004022000E4011C003F
:100BC000C8011900AF011700980114008401130037
:100BD000710110006101100051010E0043010D0070
:100BE00036010B002B010B0020010B001501090041
:100BF0000C01090003010800FB000800F3000800D5
:100C0000EB000700E4000600DE000600D800060046
:100C1000D2000600CC000500C7000500C200050098
:100C2000BD000400B9000400B5000400B1000400D8
:100C3000AD000400A9000400A5000300A200030009
:100C40009F0004009B000300980003009500020031
:100C500093000300900003008D0002008B0003004E
:100C60008800020086000200840003008100020068
:100C70007F0002007D0002007B000200790002007C
:100C8000770001007600020074000200720001008B
:100C9000710002006F0002006D0001006C00020094
:100CA0006A0001006900020067000100660001009F
:100CB00065000100640002006200010061000100A3
:100CC000600001005F0002005D0001005C000100A7
:100CD0005B0001005A0001005900010058000100AA
:100CE00057000100560001005500010054000100AA
:100CF00053000000530001005200010051000100A8
:100D0000500001004F0001004E0000004E000100A5
:100D10004D0001004C0001004B0000004B000100A1
:100D20004A0001004900010048000000480001009D
:100D30004700010046000000460001004500000099
:100D40004500010044000100430000004300010091
:100D5000420000004200010041000000410001008B
:100D6000400001003F0000003F0001003E00000085
:100D70003E0001003D0000003D0001003C0000007D
:100D80003C0000003C0001003B0000003B00010073
:100D90003A0000003A00010039000000390001006B
:100DA0003800000038000000380001003700000063
:100DB0003700010036000000360000003600010058
:100DC000350000003500000035000100340000004F
:100DD0003400000034000100330000003300000044
:100DE0003300010032000000320000003200010038
:100DF000310000003100000031000100300000002F
:100E000030000000300001002F0000002F00000023
:100E10002F0000002F0001002E0000002E00000017
:100E20002E0001002D0000002D0000002D0000000C
:100E30002D0001002C0000002C0000002C00000000
:100E40002C0001002B0000002B0000002B000000F4
:100E50002B0001002A0000002A0000002A000000E8
:100E60002A000100290000002900000029000000DC
:100E700029000000290001002800000028000000CF
:100E800028000000280000002800010027000000C2
:100E900027000000270000002700000027000100B5
:100EA00026000000260000002600000026000000AA
:100EB000260001002500000025000000250000009C
:100EC000250000002500000025000100240000008E
:100ED0002400000024000000240000002400010081
:100EE0002300000023000000230000002300000076
:100EF0002300000023000000230001002200000066
:100F00002200000022000000220000002200000059
:100F1000220001002100000021000000210000004B
:100F2000210000002100000021000000210001003C
:100F30002000000020000000200000002000000031
:100F40002000000020000000200000002000010020
:100F50001F0000001F0000001F0000001F00000015
:100F60001F0000001F0000001F0001001E00000005
:100F70001E0000001E0000001E00000024F4D430FB
:100F800050C38E20C2A24017828B7011127A910D2D
:100F9000816CD90AA861E108C75866076151430608
:100FA0001E4B5D05C145A7041A411104093D980374
:100FB000713931034036DB0265339102D43054027B
:100FC000802E1D02632CEE01752AC501B028A001F8
:100FD000102781018F2564012B244B01E02234016D
:100FE000AC211F018D200D01801FFC00841EED002F
:100FF000971DDF00B81CD200E61BC600201BBC00FA
:10100000641AB200B219A8000A19A0006A1899005F
:10101000D117910040178B00B516840031167E0061
:10102000B31579003A157300C7146F0058146A009D
:10103000EE1366008813630025135E00C7125B0081
:101040006C12570015125400C111510070114F005D
:1010500021114B00D61049008D1047004610440066
:1010600002104200C00F4000800F3E00420F3C00C3
:10107000060F3B00CB0E3800930E37005C0E350098
:10108000270E3400F30D3200C10D3100900D3000F9
:10109000600D2E00320D2D00050D2C00D90C2B00FB
:1010A000AE0C2900850C29005C0C2700350C2700AC
:1010B0000E0C2600E80B2400C40B2400A00B230018
:1010C0007D0B23005A0B2100390B2100180B200047
:1010D000F80A1F00D90A1E00BB0A1E009D0A1D0047
:1010E000800A1D00630A1C00470A1B002C0A1B0013
:1010F000110A1A00F7091A00DD091900C4091900BC
:10110000AB091900920917007B0918006309170041
:101110004C09160036091600200916000A091500A8
:10112000F5081500E0081400CC081400B8081400F5
:10113000A4081400900813007D0812006B08130027
:101140005808120046081200340811002308110044
:101150001208110001081100F0071000E00710004C
:10116000D0071000C0071000B0070F00A107100043
:1011700091070E0083070F0074070F0065070E002C
:1011800057070E0049070E003B070D002E070E0003
:1011900020070D0013070D0006070D00F9060C00CF
:1011A000ED060D00E0060C00D4060C00C8060C008D
:1011B000BC060C00B0060C00A4060B0099060C003F
:1011C0008D060B0082060B0077060B006C060B00E9
:1011D00061060A0057060B004C060A0042060A0088
:1011E00038060A002E060A0024060A001A060A001B
:1011F0001006090007060A00FD050900F4050900AC
:10120000EB050900E2050900D9050900D005090030
:10121000C7050900BE050900B5050800AD050800B1
:10122000A50509009C050800940508008C05080028
:10123000840508007C050800740508006C0507009B
:10124000650508005D050700560508004E05070006
:10125000470507004005080038050700310507006D
:101260002A050700230507001C05060016050700D0
:101270000F0507000805060002050700FB0406002D
:10128000F5040700EE040600E8040600E204070087
:10129000DB040600D5040600CF040600C9040600DE
:1012A000C3040600BD040600B7040600B10405002F
:1012B000AC040600A6040600A00405009B0406007A
:1012C00095040500900406008A04050085040500C5
:1012D000800406007A04050075040500700405000A
:1012E0006B04050066040500610405005C0405004C
:1012F00057040500520405004D040500480405008C
:10130000430405003E0404003A04050035040500CA
:10131000300404002C040500270404002304050005
:101320001E0404001A04040016040500110404003D
:101330000D04040009040500040404000004040072
:10134000FC030400F8030400F4030400F0030400A9
:10135000EC030400E8030400E4030400E0030400D9
:10136000DC030400D8030400D4030400D003040009
:10137000CC030400C8030300C50303006563686F62
:101380003A00656E6473746F7073206869743A20F4
:101390005A00205A3A00656E6473746F7073206847
:1013A00069743A20590020593A00656E6473746F6D
:1013B0007073206869743A20580020583A00656EAE
:1013C0006473746F7073206869743A200045727298
:1013D0006F723A004572723A204D415854454D5053
:1013E000204245440054656D706572617475726584
:1013F0002068656174656420626564207377697430
:1014000063686564206F66662E204D415854454DD3
:1014100050207472696767657265642021210045F8
:1014200072723A204D494E54454D50003A2045784D
:10143000747275646572207377697463686564207B
:101440006F66662E204D494E54454D50207472698A
:101450006767657265642021004572723A204D41CC
:101460005854454D50003A20457874727564657241
:10147000207377697463686564206F66662E204DFB
:10148000415854454D5020747269676765726564B0
:10149000202100202D20496E76616C6964206578DA
:1014A000747275646572206E756D626572202100BC
:1014B0001000C0026003D800B006AF00000A980018
:1014C000500D8900A0107D00F013730040176A00D2
:1014D000901A6300E01D5B003021550080244E000F
:1014E000D0274700202B4100702E3A00C031320037
:1014F00010352A0060381F00B03B1100003F00008B
:10150000504944204175746F74756E652066696E2C
:101510006973686564212050757420746865204B78
:10152000702C204B6920616E64204B6420636F6EC9
:101530007374616E747320696E746F20436F6E668E
:10154000696775726174696F6E2E68005049442036
:101550004175746F74756E65206661696C65642190
:101560002074696D656F75740020403A006F6B20C0
:10157000543A006F6B20423A005049442041757440
:101580006F74756E65206661696C656421205465B1
:101590006D706572617475726520746F6F20686913
:1015A000676800204B643A2000204B693A200020F5
:1015B0004B703A200020436C6173696320504944AA
:1015C00020002054753A2000204B753A2000206DF1
:1015D00061783A2000206D696E3A200020643A203C
:1015E0000020626961733A20001000C90210012CCA
:1015F000014001220170011801B0010E01F0010447
:10160000015002FA00B002F0003003E600D003DC23
:10161000009004D2007005C800A006BE000008B407
:1016200000B009AA00D00BA000600E960060118CDB
:10163000000015820020197800C01D6E00A02264F1
:1016400000B0275A00902C500000314600E0343C96
:101650000010383200903A2800603C1E00A03D1473
:1016600000803E0A00203F000070012C01900127FD
:1016700001B0012201C0011D01F001180110021387
:101680000130020E016002090190020401C002FF54
:10169000000003FA004003F5008003F000D003EBE4
:1016A000002004E6007004E100E004DC004005D7FF
:1016B00000C005D2004006CD00D006C8008007C398
:1016C000003008BE00F008B900C009B400B00AAF8D
:1016D00000B00BAA00D00CA500000EA000500F9B7C
:1016E00000C01096005012910000148C00C01587A5
:1016F00000B0178200B0197D00D01B7800001E7367
:101700000040206E0090226900F024640040275FB2
:101710000090295A00E02B5500102E500020304B2D
:101720000010324600E033410090353C001037375E
:101730000070383200A0392D00B03A2800A03B23B9
:1017400000603C1E00103D1900903D1400103E0F3B
:1017500000703E0A00C03E0500003F000001290263
:1017600029042908291029202940298029012C022F
:101770002C01260226042608261026202640268034
:1017800026402C802C01230223042308231023202D
:101790002340238023012002200420082010202041
:1017A0002040208020102C202C012F022F042F08F5
:1017B0002F102F202F402F802F7EFE7EFD7EFB7E60
:1017C000F77EEF7EDF7EBF7E7F00010000FD1712F7
:1017D000000200000F184300030000521804010328
:1017E00009045618180203090470181603030904A3
:1017F00088180C0001C102018036018136120100F7
:101800000202000020C01683040001010203010946
:10181000024300020100C03209040000010202017B
:10182000000524001001052401000104240206051E
:101830002406000107058203080040090401000294
:101840000A0000000705030240000007058402406B
:1018500000000403090418035400650065006E00CD
:10186000730079006400750069006E006F0000006D
:10187000160355005300420020005300650072001B
:10188000690061006C0000000C033100320033007D
:10189000340035000000494E46494E4954594E41E6
:1018A0004ECDCCCC3D0AD7233C17B7D13877CC2BC3
:1018B000329595E6241FB14F0A000020410000C870
:1018C0004200401C4620BCBE4CCA1B0E5AAEC59DF1
:1018D0007400162A0597BE9DC4AA0F2A11241FBEA4
:1018E000CFEFD0E2DEBFCDBF13E0A0E0B1E0E6E491
:1018F000F1E601E00BBF02C007900D92A83EB107D0
:10190000D9F71BBE11E1A8EEB3E001C01D92AA3EBB
:10191000B107E1F718E1CAEDD8E104C02297FE0152
:101920000E9448B0C23DD107C9F70E9482A70C941B
:1019300096B00C940000A0E0B0E0E1EAFCE00C946A
:1019400065B0EC015B016115710519F0FB01918334
:101950008083F9908F2D90E00E944CB0892BC9F7BD
:10196000FDE2FF1621F4F990EE24E39405C02BE28A
:10197000F21609F4F990EE248E0101501040C801CE
:1019800066E978E143E050E00E94310F892B01F5D0
:101990008E010E5F1F4FC80169E978E145E050E014
:1019A0000E94310F892B19F48E01095F1F4FA1147A
:1019B000B10419F0F50111830083E0FC04C070E06C
:1019C00090E080E814C070E090E080E86FEF08C11C
:1019D000C8016EE978E143E050E00E94310F892BA5
:1019E00069F4A114B10429F470E090E080EC6FE791
:1019F000F7C02296F501D183C083F6CF88249924BD
:101A000040E050E060E070E0EF2DE053EA30A0F5F8
:101A1000F2E0EF2A8E2D90E09C0128703070E2FEFB
:101A200006C0232B79F50894811C911C2BC0232B15
:101A300019F0089481089108DB01CA0112E0880FAF
:101A4000991FAA1FBB1F1A95D1F7480F591F6A1F6C
:101A50007B1F440F551F661F771F4E0F511D611DC1
:101A6000711D483929E9520729E9620729E17207FE
:101A700048F084E0E82A06C0EE3F31F4E3FC39C0C8
:101A800098E0E92AF990C0CFE53311F0E53189F506
:101A900029912D3219F4E0E1EE2A05C02B3219F01C
:101AA00081E090E003C0299182E090E0E22FE053D2
:101AB000EA3018F0C81BD90B1CC020E030E0FCE075
:101AC00020383F075CF4C901880F991F880F991FC0
:101AD000280F391F220F331F2E0F311DE991E053BC
:101AE000EA3068F3E4FE03C0309521953F4F820E43
:101AF000931ECE2CDD24E1FE07C0A114B10421F019
:101B00002197F501D183C083CB01BA010E94B1AC0A
:101B10007B018C01F3E0CF22DD2423E0C216D10447
:101B200021F417FB109517F9109557016801C801AA
:101B3000B70120E030E040E050E00E9411AC882383
:101B400009F44AC097FE0DC025EBE22E28E1F22EE3
:101B50009094819491089394C0E2D0E000E010E06A
:101B600012C09DECE92E98E1F92EF6CFF7012591F0
:101B7000359145915491C601B5010E94F1AE5B01CA
:101B80006C018C1A9D0A8C169D0684F7D595C79515
:101B90000F5F1F4F0630110529F08CEF9FEFE80E05
:101BA000F91EF1CFC501D6017C018D018C2D880F66
:101BB0008D2D881F8F3F51F0C601B50120E030E028
:101BC00040E050E00E9411AC882331F482E290E0C2
:101BD0009093E9118093E8117E2D9F2D802F612F26
:101BE000272F392F482F562FB901CA01CDB7DEB79D
:101BF000ECE00C9481B02F923F925F926F927F92B3
:101C00008F929F92AF92BF92CF92DF92EF92FF920C
:101C10000F931F93CF93DF938C011B01EA01611592
:101C2000710519F0FB0191838083209749F0CE0163
:101C30000297839728F020E030E040E050E0F6C0C3
:101C4000F801A1908F018A2D90E00E944CB0892B61
:101C5000B9F7FDE2AF1631F4F801A1908F015524D8
:101C6000539407C0FBE2AF1619F4F801A1908F015D
:101C70005524209719F0C031D105C1F4F0E3AF1617
:101C800079F4F8018081883711F0883549F4F8013A
:101C9000A1800E5F1F4FF2E05F2AC0E1D0E006C0D6
:101CA000209721F480E3A816E9F427C0C830D105B5
:101CB00031F1C930D10524F4C230D10531F50CC061
:101CC000CA30D10589F0C031D105F9F4C12CD12C2D
:101CD000E12CB8E0FB2E28C0C12CD12CE12CA0E4D3
:101CE000FA2E22C0CAE0D0E0FCECCF2EFCECDF2EB6
:101CF000FCECEF2EFCE0FF2E17C0C8E0D0E0C12CBA
:101D0000D12CE12CE0E1FE2E0FC09E01442737FDCF
:101D10004095542F60E070E080E090E80E94F5AFBD
:101D2000C901DA016C017D0120E030E040E050E0C3
:101D300060E03E01882477FC8094982C70EDB72EEB
:101D4000BA0CE9E0EB1570F48A2D81548A3118F44D
:101D500099ECB92E06C08A2D81568A3150F589EA50
:101D6000B82EBA0C8B2D90E08C179D0714F56F3FA1
:101D7000E1F0C216D306E406F506B0F0CA01B901D7
:101D8000A40193010E94C3AF9B01AC012B0D311D37
:101D9000411D511D2130F0E03F07F0E04F07F0E812
:101DA0005F0710F461E001C06FEFF801A1908F01AF
:101DB000C5CF2114310481F0662331F00150104069
:101DC000F1011183008308C051FE1AC00250104077
:101DD000F1011183008314C067FF12C050FC05C0DD
:101DE0002FEF3FEF4FEF5FE704C020E030E040E02F
:101DF00050E882E290E09093E9118093E81116C0D8
:101E000050FE08C050954095309521953F4F4F4F5B
:101E10005F4F0CC057FF0AC082E290E09093E91137
:101E20008093E8112FEF3FEF4FEF5FE7B901CA0151
:101E3000DF91CF911F910F91FF90EF90DF90CF90A6
:101E4000BF90AF909F908F907F906F905F903F90EA
:101E50002F900895FB01DC0105900D920020E1F721
:101E60000895FB01DC014150504088F08D91813490
:101E70001CF08B350CF4805E659161341CF06B3581
:101E80000CF4605E861B611171F3990B0895881B39
:101E9000FCCFFB01DC014150504048F005900D9211
:101EA0000020C9F701C01D9241505040E0F708954D
:101EB000FB0155915523A9F0BF01DC014D91451758
:101EC0004111E1F759F4CD010590002049F04D9101
:101ED00040154111C9F3FB014111EFCF81E090E0C2
:101EE00001970895FB01DC0104C08D9101908019D8
:101EF00021F441505040C8F7881B990B0895FB010D
:101F0000DC0102C001900D9241505040D8F7089575
:101F1000FB01DC010D900020E9F7119701900D9273
:101F20000020E1F70895FC018191861721F08823B4
:101F3000D9F7992708953197CF010895FB01DC0166
:101F400001900D920020E1F70895FB01DC01415062
:101F5000504030F08D910190801919F40020B9F7AC
:101F6000881B990B0895FB01DC014150504048F05B
:101F700001900D920020C9F701C01D9241505040C0
:101F8000E0F70895AEE0B0E0E8ECFFE00C946DB04F
:101F90000D891E898EE08C831A8309838FEF9FE75A
:101FA0009E838D839E01275E3F4FCE0101966F89F0
:101FB000788DA9010E94E60F2F813885020F131F2B
:101FC000F80110822E96E4E00C9489B0ABE0B0E00A
:101FD000ECEEFFE00C945FB03C012B015A01FC01D8
:101FE00017821682838181FD03C06FEF7FEFC6C128
:101FF0009AE0892E1E010894211C311CF3012381D3
:10200000F20123FD859123FF81912F01882309F49B
:10201000B2C1853239F423FD859123FF81912F01CF
:10202000853229F490E0B3010E94D911E7CF982FAF
:10203000FF24EE249924FFE1FF15D0F09B3269F0D4
:102040009C3228F4903259F0933291F40EC09D32B4
:1020500049F0903369F441E024C052E0F52A84E06D
:10206000F82A28C098E0F92A25C0E0E1FE2A22C01B
:10207000F7FC29C0892F80538A3070F4F6FE05C022
:10208000989C902C1124980E15C0E89CE02C1124EB
:10209000E80EF0E2FF2A0EC09E3229F4F6FC6BC176
:1020A00040E4F42A07C09C3619F450E8F52A02C02F
:1020B000983649F4F20123FD959123FF91912F0168
:1020C000992309F0B8CF892F8554833018F08052B6
:1020D000833038F444E050E0A40EB51E5FE359832A
:1020E0000FC0933631F0933779F0933509F056C02D
:1020F00020C0F5018081898342E050E0A40EB51E26
:10210000610101E010E012C0F501C080D180F6FC51
:1021100003C06FEF7FEF02C0692D70E042E050E036
:10212000A40EB51EC6010E94CE118C015FE7F522F8
:1021300014C0F501C080D180F6FC03C06FEF7FEFC3
:1021400002C0692D70E042E050E0A40EB51EC60149
:102150000E94C3118C0150E8F52AF3FE07C01AC093
:1021600080E290E0B3010E94D911EA948E2D90E0B4
:1021700008171907A8F30EC0F601F7FC8591F7FEC2
:1021800081916F0190E0B3010E94D911E110EA94AE
:10219000015010400115110579F7EAC0943611F08D
:1021A000993669F5F7FE08C0F50120813181428139
:1021B000538184E090E00AC0F501808191819C0107
:1021C000442737FD4095542F82E090E0A80EB91EB9
:1021D0009FE6F92257FF09C050954095309521950B
:1021E0003F4F4F4F5F4FE0E8FE2ACA01B901A101FE
:1021F0002AE030E00E940512D82ED21840C0953750
:1022000029F41F2D1F7E2AE030E01DC01F2D197FED
:102210009F3661F0903720F4983509F0ACC00FC0BC
:10222000903739F0983709F0A6C004C028E030E0B4
:102230000AC0106114FD146020E130E004C014FDF8
:10224000166020E132E017FF08C0F501608171815E
:102250008281938144E050E008C0F5018081918142
:10226000BC0180E090E042E050E0A40EB51EA10168
:102270000E940512D82ED2188FE7F82EF122F6FE12
:102280000BC05EEFF522D91438F4F4FE07C0F2FC5F
:1022900005C08FEEF82202C01D2D01C0192DF4FEDD
:1022A0000DC0FE01ED0DF11D8081803319F499EE12
:1022B000F92208C01F5FF2FE05C003C08F2D86788B
:1022C00009F01F5F0F2DF3FC14C0F0FE0FC01E15A8
:1022D00010F09D2C0BC09D2C9E0C911A1E2D06C03B
:1022E00080E290E0B3010E94D9111F5F1E15C0F378
:1022F00004C01E1510F4E11A01C0EE2404FF0FC043
:1023000080E390E0B3010E94D91102FF1DC001FDDE
:1023100003C088E790E00EC088E590E00BC0802FF6
:10232000867891F001FF02C08BE201C080E2F7FCE9
:102330008DE290E0B3010E94D91106C080E390E0E5
:10234000B3010E94D9119A94D914C0F3DA94F1011F
:10235000ED0DF11D808190E0B3010E94D911DD20C7
:10236000A9F706C080E290E0B3010E94D911EA9477
:10237000EE20C1F743CEF30166817781CB012B9626
:10238000E2E10C947BB0FC010590615070400110BB
:10239000D8F7809590958E0F9F1F0895FC0161508E
:1023A000704001900110D8F7809590958E0F9F1F77
:1023B00008950F931F93CF93DF938C01EB018B81D3
:1023C00081FF1BC082FF0DC02E813F818C819D81CA
:1023D0002817390764F4E881F9810193F983E883C8
:1023E00006C0E885F985802F0995892B31F48E8107
:1023F0009F8101969F838E8302C00FEF1FEFC8015C
:10240000DF91CF911F910F910895FA01AA272830EB
:1024100051F1203181F1E8946F936E7F6E5F7F4FB1
:102420008F4F9F4FAF4FB1E03ED0B4E03CD0670F2D
:10243000781F891F9A1FA11D680F791F8A1F911D80
:10244000A11D6A0F711D811D911DA11D20D009F4D0
:1024500068943F912AE0269F11243019305D319312
:10246000DEF6CF010895462F4770405D4193B3E0FB
:102470000FD0C9F7F6CF462F4F70405D4A3318F0A2
:10248000495D31FD4052419302D0A9F7EACFB4E053
:10249000A6959795879577956795BA95C9F700970B
:1024A0006105710508959B01AC010A2E06945795AC
:1024B000479537952795BA95C9F7620F731F841F03
:1024C000951FA01D0895DF93CF930F92CDB7DEB770
:1024D000FC016983A081B18112962D913C911397E3
:1024E000BE016F5F7F4F41E050E0F90109950F9009
:1024F000CF91DF910895FC01128213820895FC01AF
:102500008381882311F081E082830895FC01828118
:10251000811112820895FC018AE693E09183808301
:102520008681882321F0CF0103960E94D0720895FE
:10253000CF93DF93DB010D900020E9F71197A61BE5
:10254000B70BEC01E881F9810280F381E02DAD0148
:102550000995DF91CF910895EF92FF920F931F930A
:102560008C01E1ECEE2EE1E0FE2EE80EF91EC70133
:102570000E948072C7010E94D072F80110821182FD
:102580001F910F91FF90EF900895CF92DF92EF92FD
:10259000FF920F931F93CF93DF937C016B01DB01BD
:1025A0000D900020E9F78D0101501040061B170B1C
:1025B000E1ECF1E0EE0EFF1ED7011C92EFE3FEEF1F
:1025C000EE0EFF1ECB016EE470E00E94930FEC0153
:1025D000009731F4F8013197EC0DFD1D86010EC016
:1025E00060E270E00E94930F8C010F5F1F4FCE01DD
:1025F0006AE270E00E94930FFC0131978DE08183C5
:102600008AE082831382C70182549E4FB8010E94E0
:10261000E07A81EC91E0E80EF91ED7018C918823D5
:1026200009F1EFE1F1E06491EF0107C08EED91E176
:102630000E9463122196FE0164916623B9F7E6E2D7
:10264000F1E06491EF0107C08EED91E10E94631209
:102650002196FE0164916623B9F78EED91E16AE05F
:102660000E946312DF91CF911F910F91FF90EF9025
:10267000DF90CF900895EF92FF920F93CF93DF9367
:102680007C01FC018381882309F43FC0EEE4F1E082
:102690006491EF0107C08EED91E10E9463122196D3
:1026A000FE0164916623B9F786E792E0E80EF91E11
:1026B000F70140815181628173818AE89DEFE80EC4
:1026C000F91E8EED91E12AE000E00E94CFA7ECE434
:1026D000F1E06491EF0107C08EED91E10E94631279
:1026E0002196FE0164916623B9F78EE692E0E80E2A
:1026F000F91EF70140815181628173818EED91E174
:102700002AE000E00E94CFA70EC0ECE3F1E0649164
:10271000EF0107C08EED91E10E9463122196FE0148
:1027200064916623B9F78EED91E16AE00E9463122D
:10273000DF91CF910F91FF90EF9008952F923F92EC
:102740004F925F926F927F928F929F92AF92BF92C1
:10275000CF92DF92EF92FF920F931F93DF93CF936D
:10276000CDB7DEB7AB970FB6F894DEBF0FBECDBFC7
:102770005C014B01FC018381882309F41AC1C50166
:102780008F539E4F0E94D072F5011282198A1C8AC3
:10279000188A8AE693E09F878E87ADE4CA2ED12CF3
:1027A000CA0CDB1C2FE230E0A20EB31EF601B18290
:1027B000A08221ED3FEFA20EB31EF40180818F3283
:1027C00009F081C0C4016FE270E00E94930F7C01A8
:1027D0000894E11CF11C3E010894611C711C260147
:1027E000F1E12F2E312C2C0E3D1E68C0C7016FE287
:1027F00070E00E94930F6C01009709F472C0E81614
:10280000F90608F06EC08C010E191F09C301B7014B
:10281000A8010E94B30F060D171DF80110828EED5E
:1028200091E1B3010E9498128EED91E16AE00E945D
:102830006312F201608171816115710519F460E024
:1028400070E002C06D5F7F4FC101A30121E00E94D3
:10285000DE79882341F5EAE8F1E064917F0109C05F
:102860008EED91E10E9463120894E11CF11CF701C6
:1028700064916623A9F78EED91E1BE016F5F7F4FF2
:102880000E949812E8E8F1E064917F0109C08EEDA2
:1028900091E10E9463120894E11CF11CF70164911C
:1028A0006623A9F77DC02EE030E02C0F3D1FF2011A
:1028B0003183208376010894E11CF11CE114F104BA
:1028C00009F094CF0BC08FE490E0A80EB91EF6017A
:1028D000B182A08221EB3FEFA20EB31ED82C092DAE
:1028E00002C0DE2C0F2D8DE490E0A80EB91EF5017C
:1028F0008081918123EB3FEFA20EB31E009719F464
:1029000080E090E001C003966D2D702F0E94B07A98
:10291000882301F1EAE7F1E064917F0109C08EEDBF
:1029200091E10E9463120894E11CF11CF70164918B
:102930006623A9F78EED91E16D2D702F0E949812FC
:1029400026E732E0A20EB31EF50110821182128238
:1029500013822BC0E2E6F1E064917F0109C08EEDA5
:1029600091E10E9463120894E11CF11CF70164914B
:102970006623A9F78EED91E16D2D702F0E949812BC
:10298000E0E6F1E064917F0109C08EED91E10E94E3
:1029900063120894E11CF11CF70164916623A9F706
:1029A0008EED91E16AE00E946312CE010E960E94C4
:1029B0008B12AB960FB6F894DEBF0FBECDBFCF9192
:1029C000DF911F910F91FF90EF90DF90CF90BF901C
:1029D000AF909F908F907F906F905F904F903F90BF
:1029E0002F900895BF92CF92DF92EF92FF920F93B4
:1029F0001F93CF93DF938C01EB018FE28993EE2439
:102A0000E394FF2489E9C82E81E0D82EC00ED11EA0
:102A1000BEE1BB2E14C0FB9CC001112480599F4F06
:102A2000800F911FBE010E94E27202C02196E394C2
:102A30008881882319F08CE88E15C0F7F3942F2D28
:102A400030E0F601808191812817390720F3E7FCF7
:102A500007C0C8018F539E4FBE010E94E27201C0A1
:102A60001882DF91CF911F910F91FF90EF90DF902F
:102A7000CF90BF9008952F923F924F925F926F92A6
:102A80007F928F929F92AF92BF92CF92DF92EF92FE
:102A9000FF920F931F93DF93CF93CDB7DEB7AC9721
:102AA0000FB6F894DEBF0FBECDBF5C014B014CA743
:102AB000DC0113968C91882309F407C3E4ECF1E060
:102AC000AE0EBF1ED5018C91ECE3FEEFAE0EBF1E25
:102AD000882309F404C1222309F0D1C02CED31E090
:102AE000A20EB31ED5018C91E4E2FEEFAE0EBF1E26
:102AF000882381F1EFE1F1E064917F0109C08EED5F
:102B000091E10E9463120894E11CF11CF7016491A9
:102B10006623A9F7E2E6F2E064917F0109C08EED39
:102B200091E10E9463120894E11CF11CF701649189
:102B30006623A9F78EED91E141E050E060E070E09E
:102B40000E945CA88EED91E16AE00E9463120E94EF
:102B5000852ABBC2EFEEF0E064917F0109C08EEDE3
:102B600091E10E9463120894E11CF11CF701649149
:102B70006623A9F7E9E4F2E064917F0109C08EEDD4
:102B800091E10E9463120894E11CF11CF701649129
:102B90006623A9F78EED91E1B4010E949812EEE34D
:102BA000F2E064917F0109C08EED91E10E94631211
:102BB0000894E11CF11CF70164916623A9F78501D3
:102BC00004521E4FD8016C915DE8F52E6F9DB00147
:102BD00011246F517E4F6A0D7B1DC5010E94F214B6
:102BE000F80160816F9DB00111246F517E4F6A0D15
:102BF0007B1D8EED91E10E949812E8E3F2E0649172
:102C00007F0109C08EED91E10E9463120894E11CDE
:102C1000F11CF70164916623A9F746E7E42E42E030
:102C2000F42EEA0CFB1CD7014D915D916D917C91C6
:102C30008EED91E12AE000E00E94CFA78EED91E1B8
:102C40006AE00E946312A50144525E4FFA0120819E
:102C5000E22FF0E0EE0FFF1FEE0FFF1FEA0DFB1D4E
:102C6000E352FE4FD701CD90DD90ED90FC90C082F5
:102C7000D182E282F3822F5FFA0120832AC0EFEE35
:102C8000F0E064917F0109C08EED91E10E94631232
:102C90000894E11CF11CF70164916623A9F7E7E2AF
:102CA000F2E064917F0109C08EED91E10E94631210
:102CB0000894E11CF11CF70164916623A9F78EEDDD
:102CC00091E1B4010E9498128EED91E16AE00E94B8
:102CD0006312C5018F539E4F0E94D07234C02CEDF9
:102CE00031E0A20EB31ED5011C92E4E2FEEFAE0E5F
:102CF000BF1EEFEEF0E064917F0109C08EED91E11F
:102D00000E9463120894E11CF11CF7016491662390
:102D1000A9F7E6E1F2E064917F0109C08EED91E14F
:102D20000E9463120894E11CF11CF7016491662370
:102D3000A9F78EED91E1B4010E9498128EED91E118
:102D40006AE00E946312D50112961C92198A1C8AAD
:102D5000188A8AE693E09F878E872DE4C22ED12CB5
:102D6000CA0CDB1CEFE2F0E0AE0EBF1ED601AD9246
:102D7000BC92E1EDFFEFAE0EBF1ED4018C918F32FD
:102D800009F081C0C4016FE270E00E94930F7C01E2
:102D90000894E11CF11C3E010894611C711C260181
:102DA00091E1292E312C2C0E3D1E68C0C7016FE227
:102DB00070E00E94930F6C01009709F472C0E8164E
:102DC000F90608F06EC08C010E191F09C301B70186
:102DD000A8010E94B30F060D171DF80110828EED99
:102DE00091E1B3010E9498128EED91E16AE00E9498
:102DF0006312D2016D917C916115710519F460E047
:102E000070E002C06D5F7F4FC101A30121E00E940D
:102E1000DE79882341F5E2E0F2E064917F0109C0A8
:102E20008EED91E10E9463120894E11CF11CF70100
:102E300064916623A9F78EED91E1BE016F5F7F4F2C
:102E40000E949812E0E0F2E064917F0109C08EEDEB
:102E500091E10E9463120894E11CF11CF701649156
:102E60006623A9F707C1EEE0F0E0EC0FFD1FD201E9
:102E7000ED93FC9376010894E11CF11CE114F1043C
:102E800009F094CF0BC02FE430E0A20EB31ED601A0
:102E9000AD92BC92E1EBFFEFAE0EBF1ED82CC92C59
:102EA00002C0DE2CCF2CF501E35BFF4F2CA52223C3
:102EB00009F4A6C0608171816115710519F460E0A3
:102EC00070E002C06D5F7F4FC5018F539E4F4D2D47
:102ED0005C2D21E00E94DE79882309F46AC0A501F7
:102EE00042595D4F82ED91E0A80EB91EF501808137
:102EF0009181A281B3812EE23EEFA20EB31EFA01B0
:102F000080839183A283B383E2EFF1E064917F0138
:102F100009C08EED91E10E9463120894E11CF11C3E
:102F2000F70164916623A9F78EED91E16D2D7C2D5B
:102F30000E949812EAEEF1E064917F0109C08EEDE3
:102F400091E10E9463120894E11CF11CF701649165
:102F50006623A9F72EE632E0A20EB31ED5014D91ED
:102F60005D916D917C918EED91E12AE000E00E94EF
:102F7000CFA78EED91E16AE00E946312E8E0F0E0F5
:102F8000AE0EBF1ED5011D921D921D921C9213976D
:102F9000ECEDF1E064917F0109C08EED91E10E94BA
:102FA00063120894E11CF11CF70164916623A9F7F0
:102FB0007FC0E8ECF1E064917F0109C08EED91E102
:102FC0000E9463120894E11CF11CF70164916623CE
:102FD000A9F78EED91E16D2D7C2D0E949812E6EC03
:102FE000F1E064917F0109C08EED91E10E946312CE
:102FF0000894E11CF11CF70164916623A9F73AC01B
:10300000608171816115710519F460E070E002C0A2
:103010006D5F7F4FC5018F539E4F4D2D5C2D26E573
:103020000E94DE79882361F5E2EBF1E064917F0193
:1030300009C08EED91E10E9463120894E11CF11C1D
:10304000F70164916623A9F78EED91E16D2D7C2D3A
:103050000E949812E0EBF1E064917F0109C08EEDCF
:1030600091E10E9463120894E11CF11CF701649144
:103070006623A9F78EED91E16AE00E94631221C0F8
:1030800081E0D5018C93EEE9F1E064917F0109C004
:103090008EED91E10E9463120894E11CF11CF7018E
:1030A00064916623A9F78EED91E1B4010E94981214
:1030B0008EED91E16AE00E9463128D2D9C2D0E949D
:1030C0002D97CE010E960E948B12AC960FB6F894F7
:1030D000DEBF0FBECDBFCF91DF911F910F91FF904B
:1030E000EF90DF90CF90BF90AF909F908F907F90A8
:1030F0006F905F904F903F902F900895EF92FF92C6
:103100000F931F93CF93DF93EC010E94BF808E013A
:1031100004521E4FD8018C91E1ECEE2EE1E0FE2E20
:10312000EC0EFD1E8823A1F1C7010E94D072F801A8
:103130006081615060838DE8689FB00111246F51F8
:103140007E4F6C0F7D1FCE0141E021E00E943B15B8
:10315000D801EC91F0E0EE0FFF1FEE0FFF1FEC0F18
:10316000FD1FE352FE4F4081518162817381CA5835
:10317000DD4F488359836A837B83C657D240C7019A
:103180000E94B6718B81882389F181E08A832EC0E9
:103190000E949C80C7010E94D0721A8283EE90E048
:1031A0000E949D5580910609882301F1109206091D
:1031B0008091B206C82FD0E0CC0FDD1FCA5BDF4E76
:1031C00068817981882777FD8095982F0E94B3AC1C
:1031D00020919E0230919F024091A0025091A10245
:1031E0000E941FAE181614F419821882DF91CF9135
:1031F0001F910F91FF90EF900895FC0181E0818372
:10320000CF0140E021E00E943B150895EF92FF922C
:103210000F931F93CF93DF938C01FC01138285A939
:10322000882321F0C801C2960E94D072FBE9EF2EDC
:10323000F1E0FF2EE00EF11EC70160E04AE10E94BE
:1032400070708823E9F4EFEEF0E06491EF0107C0BD
:103250008EED91E10E9463122196FE016491662336
:10326000B9F7E3EDF2E06491EF0107C08EED91E173
:103270000E9463122196FE0164916623B9F771C022
:10328000E801C056DE4FCE01B70141E00E94757BD8
:10329000882321F5CE01B70140E00E94757B882389
:1032A000E9F4EFE1F1E06491EF0107C08EED91E107
:1032B0000E9463122196FE0164916623B9F7E0EC47
:1032C000F2E06491EF0107C08EED91E10E9463127C
:1032D0002196FE0164916623B9F743C0C801C296E6
:1032E000BE010E94D1758823E9F4EFE1F1E0649119
:1032F000EF0107C08EED91E10E9463122196FE015D
:1033000064916623B9F7E0EBF2E06491EF0107C046
:103310008EED91E10E9463122196FE016491662375
:10332000B9F71FC081E0F8018383EFEEF0E064910C
:10333000EF0107C08EED91E10E9463122196FE011C
:1033400064916623B9F7E5EAF2E06491EF0107C002
:103350008EED91E10E9463122196FE016491662335
:10336000B9F78EED91E16AE00E946312D801AE5A7E
:10337000BF4FF801F2968BE101900D928150E1F779
:10338000F80181A90F5A1F4FF801808301551040A1
:10339000C8018F96035B1F4FF80191838083DF91F3
:1033A000CF911F910F91FF90EF9008952F923F9230
:1033B0004F925F926F927F929F92AF92BF92CF9205
:1033C000DF92EF92FF920F931F93DF93CF93CDB7CE
:1033D000DEB7CC55D0400FB6F894DEBF0FBECDBFE0
:1033E0008C01662319F506581D4FD8018C910A5798
:1033F0001240882309F4E7C00FB6F8942091D61143
:103400003091D7114091D8115091D9110FBE0E585B
:103410001D4FF80180819181A281B3810257124032
:1034200082179307A407B50708F4CDC006581D4FAF
:10343000D8011C920A571240F8018381882349F46D
:10344000C8010E940619D80113968C91882309F4AB
:10345000BAC000D000D000D0EDB7FEB731966E01F3
:103460000894C11CD11CADB7BEB71296DC92CE92A7
:10347000119786E191E093838283D8019D968D9187
:103480009C919E97958384830E94C20F7601EDB72D
:10349000FEB736960FB6F894FEBF0FBEEDBF5601CD
:1034A0000AC0D7018C91992787FD90950E9454B04E
:1034B000F70181937F01F50101900020E9F7319731
:1034C000EA19FB098E2D8C198E175CF392E3A92E55
:1034D000B12CA00EB11EC50140E050E060E070E0EC
:1034E0000E94B67199248DE3C82ED12CCC0EDD1E1E
:1034F0002E010894411C511CBFE16B2E712C6C0EE7
:103500007D1EAFE02A2EA1E03A2E43C0D7018C9158
:1035100090E00E9454B0F70181937F01D6010D9095
:103520000020E9F71197AC19BD098E2D8C198A1767
:103530006CF327968FAD27978E3759F1C601B201EC
:1035400045E050E00E94A50F009719F500D000D08B
:1035500000D0EDB7FEB73196ADB7BEB712967C92EC
:103560006E92119733822282558244820E94C20F4A
:10357000EDB7FEB736960FB6F894FEBF0FBEEDBF9F
:10358000C3010E9414568BE091E00E949D5599243E
:103590009394C501B60140E050E00E94ED74181606
:1035A00014F47601BBCF992041F48FEF9FEFD8013F
:1035B0009E969C938E939D9706C0F80185A596A52F
:1035C000019696A785A7C45ADF4F0FB6F894DEBFC1
:1035D0000FBECDBFCF91DF911F910F91FF90EF9064
:1035E000DF90CF90BF90AF909F907F906F905F9053
:1035F0004F903F902F9008952F923F924F925F925D
:103600006F927F928F929F92AF92BF92CF92DF92F2
:10361000EF92FF920F931F93DF93CF93CDB7DEB757
:10362000CD58D0400FB6F894DEBF0FBECDBF7C01A1
:103630002B015A0183E090E0A80EB91EF7017196A4
:10364000C957DF4FF983E883C758D040C7010496B4
:10365000CC57DF4F99838883C458D040CA57DF4F77
:103660001882C658D04054E6C52ED12CCC0EDD1E93
:10367000F6013B96C757DF4FF983E883C958D0401E
:103680004BE7642E42E0742E6E0C7F1C3DE7832EC8
:1036900032E0932E8E0C9F1C26E4222E312C2C0E11
:1036A0003D1EC1010396C557DF4F99838883CB58D0
:1036B000D040EFEEF0E09491C357DF4F9883CD58A0
:1036C000D04030C1F6018385482F50E0BA016871BF
:1036D00070706031710509F033C1F30120813181CF
:1036E0002130310509F42CC12230310509F428C1FB
:1036F000F601DE0111969081903239F08E2F8C19EF
:10370000883011F48EE28D939D933196C757DF4F29
:1037100088819981C958D040E817F90761F71C9250
:103720001E86F2018081882331F4CE010E9660E07E
:1037300071E00E94880FCE010E96B2010E94880FA0
:10374000CE010E96BE016F5F7F4F0E94880FCE01A3
:103750000E9660E071E00E94880F1BA61EA61AA6B6
:103760008AE693E099A788A7CE018B96B501AE01B2
:103770004F5F5F4F21E00E94DE79882371F5F301EE
:1037800080819181892B49F5C357DF4F6881CD58DE
:10379000D0400FEE10E008C08EED91E10E94631260
:1037A0000F5F1F4FF80164916623B1F78EED91E131
:1037B00062E071E00E9498128EED91E16AE00E9451
:1037C00063128EED91E1BE016F5F7F4F0E949812F0
:1037D0008EED91E16AE00E946312C557DF4FA88128
:1037E000B981CB58D040FE01BB968BE101900D9280
:1037F0008150E1F78AA5F10182838AE693E0918303
:103800008083C701BE01625F7F4FA1010E94FC1A45
:10381000C1010E948B12CE0188960E948B1282C039
:10382000953E09F47FC09E3209F47CC09F3509F4AF
:1038300079C0F7019189992331F09E3209F472C061
:103840009F3509F46FC043FD6DC080E060317105A4
:1038500009F481E0F70184A7882349F4F601808503
:10386000873409F05FC081858E3709F45BC0CC577F
:10387000DF4FA881B981C458D040F60180818032E1
:1038800041F08E2F8C19883011F48EE28D93808157
:103890008D933196C757DF4F88819981C958D040A1
:1038A000E817F90759F71C92F3018081918100977D
:1038B000A9F48EED91E1B2010E9498128EED91E192
:1038C000CC57DF4F68817981C458D0400E9498124C
:1038D0008EED91E16AE00E94631224C0813091056F
:1038E00039F4F401808191810196918380831AC01B
:1038F0000297C1F4CA57DF4FF881C658D0402F2F26
:1039000030E0F4018081918128173907F1F0CA571E
:10391000DF4FF881C658D040FF5FCA57DF4FF883AA
:10392000C658D040C501B601C957DF4F48815981FB
:10393000C758D0400E94ED7418160CF4C3CE05C0D1
:10394000F6019081992309F06BCFC357DF4F0FB673
:10395000F894DEBF0FBECDBFCF91DF911F910F91C5
:10396000FF90EF90DF90CF90BF90AF909F908F909F
:103970007F906F905F904F903F902F900895EF92BF
:10398000FF920F931F93DF93CF93CDB7DEB76E9760
:103990000FB6F894DEBF0FBECDBF7C018BE792E07F
:1039A000E80EF91EF7011182108285E89DEFE80EFE
:1039B000F91E87010E5C1F4FC80140E050E060E037
:1039C00070E00E94B671DE011496F8018BE101905F
:1039D0000D928150E1F7F70181A98B838AE693E08C
:1039E0009A838983C70165E171E08E010F5F1F4FE4
:1039F000A8010E94FC1AC8010E948B126E960FB695
:103A0000F894DEBF0FBECDBFCF91DF911F910F9114
:103A1000FF90EF900895CF93DF93EC011AAA1DAAAF
:103A200019AA8AE693E098AB8FA7CE5ADF4F188287
:103A300023961882C555D040FE01E15BFF4FCF5A57
:103A4000DF4F1882C155D04091838083DE01A35996
:103A5000BF4FFD0120E030E0482F13821682128212
:103A600040839183225E3F4F7E9681E02C3238075F
:103A7000A1F7C456DE4F89E18883239618826896A1
:103A800018822A96188223961882C45CD140FE01BF
:103A9000E254FE4FC054DE4F188240839183C255DA
:103AA000DF4F188219821A821B8228961882198287
:103AB0001A821B82C657D2401A821B821882198230
:103AC000C756DE4F19821882CD5BDF4F1882FD0189
:103AD000C90111920197E9F7C256DF4F81E088834F
:103AE000CA57D2401EA61DA60FB6F8948091D611D3
:103AF0009091D711A091D811B091D9110FBE8857CC
:103B00009C4EAF4FBF4FCE58DD4F88839983AA8319
:103B1000BB83DF91CF9108950F931F93DF93CF93D2
:103B2000CDB7DEB766970FB6F894DEBF0FBECDBF38
:103B30008091160190911701A0911801B09119017F
:103B40008F87988BA98BBA8BFE013F9644E650E095
:103B50008081F999FECF1FBA52BD41BD80BD0FB61D
:103B6000F894FA9AF99A0FBE4F5F5F4F48365105A5
:103B700011F03196EDCFEAEAF8E08081F999FECFB5
:103B80001FBA52BD41BD80BD0FB6F894FA9AF99A9A
:103B90000FBE4F5F5F4F4837510511F03196EDCFA3
:103BA000EAE9F8E08081F999FECF1FBA52BD41BD24
:103BB00080BD0FB6F894FA9AF99A0FBE4F5F5F4F27
:103BC0004838510511F03196EDCFEAEBF8E08081ED
:103BD000F999FECF1FBA52BD41BD80BD0FB6F89412
:103BE000FA9AF99A0FBE4F5F5F4F4839510511F0AD
:103BF0003196EDCFEEECF8E08081F999FECF1FBA57
:103C000052BD41BD80BD0FB6F894FA9AF99A0FBE25
:103C10004F5F5F4F4C39510511F03196EDCFE2ED1A
:103C2000F8E08081F999FECF1FBA52BD41BD80BD39
:103C30000FB6F894FA9AF99A0FBE4F5F5F4F403A69
:103C4000510511F03196EDCFEAECF8E08081F99959
:103C5000FECF1FBA52BD41BD80BD0FB6F894FA9A8F
:103C6000F99A0FBE4F5F5F4F443A510511F03196FC
:103C7000EDCFE2EEF8E08081F999FECF1FBA52BD98
:103C800041BD80BD0FB6F894FA9AF99A0FBE4F5F06
:103C90005F4F483A510511F03196EDCFE6E9F8E073
:103CA0008081F999FECF1FBA52BD41BD80BD0FB6CC
:103CB000F894FA9AF99A0FBE4F5F5F4F4C3A51054C
:103CC00011F03196EDCFE6EDF8E08081F999FECF65
:103CD0001FBA52BD41BD80BD0FB6F894FA9AF99A49
:103CE0000FBE4F5F5F4F403B510511F03196EDCF56
:103CF000EAEDF8E08081F999FECF1FBA52BD41BDCF
:103D000080BD0FB6F894FA9AF99A0FBE4F5F5F4FD5
:103D1000443B510511F03196EDCFEEEDF8E0808196
:103D2000F999FECF1FBA52BD41BD80BD0FB6F894C0
:103D3000FA9AF99A0FBE4F5F5F4F483B510511F059
:103D40003196EDCFEFE7F6E08081F999FECF1FBA0B
:103D500052BD41BD80BD0FB6F894FA9AF99A0FBED4
:103D60004F5F5F4F443C510511F03196EDCF84EB2E
:103D700090E09A83898386E490E09C838B832FEF85
:103D800030E03E832D8380EF90E098878F8384E638
:103D900090E09A8789873C872B87FE013196808146
:103DA000F999FECF1FBA52BD41BD80BD0FB6F89440
:103DB000FA9AF99A0FBE4F5F5F4F463C510571F773
:103DC000FE0133968081F999FECF1FBA52BD41BDE5
:103DD00080BD0FB6F894FA9AF99A0FBE4F5F5F4F05
:103DE000483C510511F03196EDCFFE0135968081AA
:103DF000F999FECF1FBA52BD41BD80BD0FB6F894F0
:103E0000FA9AF99A0FBE4F5F5F4F4A3C510511F085
:103E10003196EDCFFE0137968081F999FECF1FBA1A
:103E200052BD41BD80BD0FB6F894FA9AF99A0FBE03
:103E30004F5F5F4F4C3C510511F03196EDCFFE01C5
:103E400039968081F999FECF1FBA52BD41BD80BD20
:103E50000FB6F894FA9AF99A0FBE4F5F5F4F4E3C37
:103E6000510511F03196EDCFFE013B968081F99915
:103E7000FECF1FBA52BD41BD80BD0FB6F894FA9A6D
:103E8000F99A0FBE4F5F5F4F403D510511F03196DB
:103E9000EDCFE1E6F2E08081F999FECF1FBA52BD85
:103EA00041BD80BD0FB6F894FA9AF99A0FBE4F5FE4
:103EB0005F4F443D510511F03196EDCFE5E6F2E05C
:103EC0008081F999FECF1FBA52BD41BD80BD0FB6AA
:103ED000F894FA9AF99A0FBE4F5F5F4F483D51052B
:103EE00011F03196EDCFE9E6F2E08081F999FECF4D
:103EF0001FBA52BD41BD80BD0FB6F894FA9AF99A27
:103F00000FBE4F5F5F4F4C3D510511F03196EDCF25
:103F1000EFEAF2E08081F999FECF1FBA52BD41BDB0
:103F200080BD0FB6F894FA9AF99A0FBE4F5F5F4FB3
:103F3000403E510511F03196EDCFE3EBF2E0808188
:103F4000F999FECF1FBA52BD41BD80BD0FB6F8949E
:103F5000FA9AF99A0FBE4F5F5F4F443E510511F038
:103F60003196EDCFE7EBF2E08081F999FECF1FBAF1
:103F700052BD41BD80BD0FB6F894FA9AF99A0FBEB2
:103F80004F5F5F4F483E510511F03196EDCF80E213
:103F900090E09E878D87FE013D968081F999FECF46
:103FA0001FBA52BD41BD80BD0FB6F894FA9AF99A76
:103FB0000FBE4F5F5F4F4A3E510511F03196EDCF76
:103FC000EFEBF6E08081F999FECF1FBA52BD41BDFB
:103FD00080BD0FB6F894FA9AF99A0FBE4F5F5F4F03
:103FE0004E3E510511F03196EDCFE5E5F2E08081CE
:103FF000F999FECF1FBA52BD41BD80BD0FB6F894EE
:10400000FA9AF99A0FBE4F5F5F4F423F510511F088
:104010003196EDCFE3ECF6E08081F999FECF1FBA3F
:1040200052BD41BD80BD0FB6F894FA9AF99A0FBE01
:104030004F5F5F4F463F510511F03196EDCFE9E5F7
:10404000F2E08081F999FECF1FBA52BD41BD80BD1B
:104050000FB6F894FA9AF99A0FBE4F5F5F4F4A3F36
:10406000510511F03196EDCFE7ECF6E08081F9993A
:10407000FECF1FBA52BD41BD80BD0FB6F894FA9A6B
:10408000F99A0FBE4F5F5F4F4E3F510511F03196C9
:10409000EDCFEDE5F2E08081F999FECF1FBA52BD78
:1040A00041BD80BD0FB6F894FA9AF99A0FBE81E02F
:1040B0004130580721F04F5F5F4F3196ECCF809130
:1040C0001A0190911B01A0911C01B0911D018B8BD5
:1040D0009C8BAD8BBE8BFE01739684E690E02081B5
:1040E000F999FECF1FBA92BD81BD20BD0FB6F894DD
:1040F000FA9AF99A0FBE8736910519F00196319612
:10410000EECFE0EEF2E064918F0108C08EED91E118
:104110000E9463120F5F1F4FF80164916623B1F78D
:10412000E4E5F5E064918F0108C08EED91E10E9415
:1041300063120F5F1F4FF80164916623B1F78EED94
:1041400091E16AE00E94631266960FB6F894DEBFB2
:104150000FBECDBFCF91DF911F910F910895EF92C8
:10416000FF920F931F93DF93CF93CDB7DEB7E09706
:104170000FB6F894DEBF0FBECDBFDE011196EAE0A8
:10418000F3E080E101900D928150E1F7DE0151965C
:10419000EAEFF2E080E101900D928150E1F7DE015B
:1041A0009196EAEEF2E080E101900D928150E1F704
:1041B00089819A81AB81BC818093AA089093AB08D6
:1041C000A093AC08B093AD0889899A89AB89BC8962
:1041D00080939A0890939B08A0939C08B0939D08A5
:1041E00089A19AA1ABA1BCA18093BA089093BB0806
:1041F000A093BC08B093BD088D819E81AF81B88526
:104200008093AE089093AF08A093B008B093B10824
:104210008D899E89AF89B88D80939E0890939F0861
:10422000A093A008B093A1088DA19EA1AFA1B8A5AD
:104230008093BE089093BF08A093C008B093C108B4
:1042400089859A85AB85BC858093B2089093B30825
:10425000A093B408B093B508898D9A8DAB8DBC8DB1
:104260008093A2089093A308A093A408B093A508F4
:1042700089A59AA5ABA5BCA58093C2089093C30855
:10428000A093C408B093C5088D859E85AF85B88975
:104290008093B6089093B708A093B808B093B90874
:1042A0008D8D9E8DAF8DB8A18093A6089093A708A1
:1042B000A093A808B093A9088DA59EA5AFA5B8A9FD
:1042C0008093C6089093C708A093C808B093C90804
:1042D0000E94955B80E090E8ABE3B5E48093CE0864
:1042E0009093CF08A093D008B093D1088093D208C0
:1042F0009093D308A093D408B093D5080F2EF0E084
:10430000EF2EF0E0FF2EF0E00F2FF0E01F2FF02D4A
:10431000E092CA08F092CB080093CC081093CD0825
:1043200080E29EE4A0E0B0E0809396089093970826
:10433000A0939808B0939908E092E208F092E308FD
:104340000093E4081093E50880E090E0A0EAB1E46F
:104350008093D6089093D708A093D808B093D90833
:104360008DEC9CECACECBEE38093DA089093DB0818
:10437000A093DC08B093DD0880E090E0A0EAB0E410
:104380008093DE089093DF08A093E008B093E108E3
:10439000E0928706F09288060093890610938A06B9
:1043A000E0928306F09284060093850610938606B9
:1043B000E0927F06F09280060093810610938206B9
:1043C00080E090E0A0E2B1E4809361029093620209
:1043D000A0936302B0936402809365029093660297
:1043E000A0936702B093680280E090E0A0E8B0EC90
:1043F0008093690290936A02A0936B02B0936C025F
:104400008AE999E9A1EBB1E48093AF029093B002FD
:10441000A093B102B093B20261E77DE38AE89FE323
:104420000E94FE886093B3027093B4028093B50239
:104430009093B60260E070E084EE92E40E940C89F2
:104440006093B7027093B8028093B9029093BA0256
:104450000E94FA8780E090E0A0E8BFE38093BB026F
:104460009093BC02A093BD02B093BE02E092BF063F
:10447000F092C0060093C1061093C206E092C306F4
:10448000F092C4060093C5061093C606E092C706D4
:10449000F092C8060093C9061093CA0686E696E60F
:1044A000A8E1B3E48093550290935602A09357027B
:1044B000B09358028093590290935A02A0935B02E2
:1044C000B0935C0280935D0290935E02A0935F02C2
:1044D000B0936002E0EEF2E064918F0108C08EEDCF
:1044E00091E10E9463120F5F1F4FF80164916623F0
:1044F000B1F7E6EEF2E064918F0108C08EED91E134
:104500000E9463120F5F1F4FF80164916623B1F799
:104510008EED91E16AE00E946312E0960FB6F89486
:10452000DEBF0FBECDBFCF91DF911F910F91FF90E6
:10453000EF9008950F931F93CF93DF9300EE12E057
:10454000F8016491E80107C08EED91E10E946312C9
:104550002196FE0164916623B9F7E4E4F5E06491E5
:10456000EF0107C08EED91E10E9463122196FE01DA
:1045700064916623B9F78EED91E16AE00E946312BF
:10458000F8016491C0EED2E007C08EED91E10E9487
:1045900063122196FE0164916623B9F74091AA083F
:1045A0005091AB086091AC087091AD088CE395E038
:1045B0000E9406324091AE085091AF086091B00859
:1045C0007091B10889E395E00E9406324091B208EB
:1045D0005091B3086091B4087091B50886E395E0F6
:1045E0000E9406324091B6085091B7086091B80811
:1045F0007091B90883E395E00E9406328EED91E157
:104600006EE171E00E9498128EED91E16AE00E94E5
:104610006312F8016491C0EED2E007C08EED91E123
:104620000E9463122196FE0164916623B9F7E9E1C5
:10463000F5E06491EF0107C08EED91E10E946312F5
:104640002196FE0164916623B9F78EED91E16AE04F
:104650000E946312F8016491C0EED2E007C08EEDB3
:1046600091E10E9463122196FE0164916623B9F7DD
:1046700040919A0850919B0860919C0870919D0808
:1046800080E195E00E94063240919E0850919F087B
:104690006091A0087091A1088DE095E00E9406321B
:1046A0004091A2085091A3086091A4087091A508B8
:1046B0008AE095E00E9406324091A6085091A70832
:1046C0006091A8087091A90887E095E00E940632E1
:1046D0008EED91E16EE171E00E9498128EED91E114
:1046E0006AE00E946312F8016491C0EED2E007C054
:1046F0008EED91E10E9463122196FE016491662382
:10470000B9F7E9EEF4E06491EF0107C08EED91E1B5
:104710000E9463122196FE0164916623B9F78EED23
:1047200091E16AE00E946312F8016491C0EED2E068
:1047300007C08EED91E10E9463122196FE01649103
:104740006623B9F74091BA085091BB086091BC0844
:104750007091BD0880EE94E00E941D2A4091BE0831
:104760005091BF086091C0087091C1088DED94E030
:104770000E941D2A4091C2085091C3086091C4084C
:104780007091C5088AED94E00E941D2A4091C608E8
:104790005091C7086091C8087091C90887ED94E0EE
:1047A0000E941D2A8EED91E16EE171E00E94981247
:1047B0008EED91E16AE00E946312F8016491C0EE0F
:1047C000D2E007C08EED91E10E9463122196FE01B6
:1047D00064916623B9F7E2EAF4E06491EF0107C05F
:1047E0008EED91E10E9463122196FE016491662391
:1047F000B9F78EED91E16AE00E946312F8016491CD
:10480000C0EED2E007C08EED91E10E9463122196C6
:10481000FE0164916623B9F74091CE085091CF080C
:104820006091D0087091D10889E994E00E94063225
:104830004091D2085091D3086091D4087091D50866
:1048400086E994E00E9406328EED91E16EE171E01E
:104850000E9498128EED91E16AE00E946312F801C5
:104860006491C0EED2E007C08EED91E10E94631228
:104870002196FE0164916623B9F7E3EEF3E06491BB
:10488000EF0107C08EED91E10E9463122196FE01B7
:1048900064916623B9F78EED91E16AE00E9463129C
:1048A000F8016491C0EED2E007C08EED91E10E9464
:1048B00063122196FE0164916623B9F74091CA08FC
:1048C0005091CB086091CC087091CD088AED93E0AF
:1048D0000E9406324091E2085091E3086091E4089A
:1048E0007091E50887ED93E00E94063240919608AA
:1048F00050919708609198087091990884ED93E021
:104900000E941D2A4091D6085091D7086091D8087E
:104910007091D90881ED93E00E9406324091DA0847
:104920005091DB086091DC087091DD088EEC93E01B
:104930000E9406324091DE085091DF086091E00845
:104940007091E1088BEC93E00E9406328EED91E1CC
:104950006EE171E00E9498128EED91E16AE00E9492
:104960006312F8016491C0EED2E007C08EED91E1D0
:104970000E9463122196FE0164916623B9F7E9EB68
:10498000F3E06491EF0107C08EED91E10E946312A4
:104990002196FE0164916623B9F78EED91E16AE0FC
:1049A0000E946312F8016491C0EED2E007C08EED60
:1049B00091E10E9463122196FE0164916623B9F78A
:1049C00040917F0650918006609181067091820629
:1049D00080EB93E00E94063240918306509184065A
:1049E00060918506709186068DEA93E00E940632FA
:1049F00040918706509188066091890670918A06D9
:104A00008AEA93E00E9406328EED91E16EE171E058
:104A10000E9498128EED91E16AE00E946312F80103
:104A20006491C0EED2E007C08EED91E10E94631266
:104A30002196FE0164916623B9F7ECE9F3E06491F5
:104A4000EF0107C08EED91E10E9463122196FE01F5
:104A500064916623B9F78EED91E16AE00E946312DA
:104A6000F8016491C0EED2E007C08EED91E10E94A2
:104A700063122196FE0164916623B9F74091AF025B
:104A80005091B0026091B1027091B20282E993E05C
:104A90000E9406326091B3027091B4028091B50217
:104AA0009091B6020E940589AB01BC018FE893E0AA
:104AB0000E9406326091B7027091B8028091B902EB
:104AC0009091BA020E941389AB01BC018CE893E07B
:104AD0000E9406328EED91E16EE171E00E94981223
:104AE0008EED91E16AE00E946312F8016491C0EEDC
:104AF000D2E007C08EED91E10E9463122196FE0183
:104B000064916623B9F7E9E7F3E06491EF0107C028
:104B10008EED91E10E9463122196FE01649166235D
:104B2000B9F78EED91E16AE00E946312F801649199
:104B3000C0EED2E007C08EED91E10E946312219693
:104B4000FE0164916623B9F74091BF065091C006FB
:104B50006091C1067091C20680E793E00E94063220
:104B60004091C3065091C4066091C5067091C60677
:104B70008DE693E00E9406324091C7065091C80628
:104B80006091C9067091CA068AE693E00E940632D7
:104B90008EED91E16EE171E00E9498128EED91E14F
:104BA0006AE00E946312F8016491C0EED2E007C08F
:104BB0008EED91E10E9463122196FE0164916623BD
:104BC000B9F7E7E5F3E06491EF0107C08EED91E1FD
:104BD0000E9463122196FE0164916623B9F78EED5F
:104BE00091E16AE00E946312F8016491C0EED2E0A4
:104BF00007C08EED91E10E9463122196FE0164913F
:104C00006623B9F7409155025091560260915702C0
:104C1000709158028EE493E00E940632409159024E
:104C200050915A0260915B0270915C028BE493E0B8
:104C30000E94063240915D0250915E0260915F02D7
:104C40007091600288E493E00E9406328EED91E15B
:104C50006EE171E00E9498128EED91E16AE00E948F
:104C60006312F8016491C0EED2E007C08EED91E1CD
:104C70000E9463122196FE0164916623B9F7E1E375
:104C8000F3E06491EF0107C08EED91E10E946312A1
:104C90002196FE0164916623B9F78EED91E16AE0F9
:104CA0000E946312F8016491C0EED2E007C08EED5D
:104CB00091E10E9463122196FE0164916623B9F787
:104CC00040916102509162026091630270916402AE
:104CD00088E293E00E94063240916502509166029C
:104CE000609167027091680285E293E00E9406324B
:104CF0004091690250916A0260916B0270916C025E
:104D000082E293E00E9406328EED91E16EE171E065
:104D10000E9498128EED91E16AE00E946312DF9189
:104D2000CF911F910F9108950F931F93DF93CF930E
:104D3000CDB7DEB766970FB6F894DEBF0FBECDBF16
:104D400080911A0190911B01A0911C01B0911D014D
:104D50008B8B9C8BAD8BBE8BFE013F9604E610E0E7
:104D6000F999FECF12BD01BDF89A80B580830F5F1F
:104D70001F4F0836110511F03196F2CFCE01439640
:104D8000BE01615F7F4F43E050E00E94A50F009796
:104D900009F017C2EAEAF8E0F999FECF12BD01BDA9
:104DA000F89A80B580830F5F1F4F0837110511F007
:104DB0003196F2CFEAE9F8E0F999FECF12BD01BDD4
:104DC000F89A80B580830F5F1F4F0838110511F0E6
:104DD0003196F2CFEAEBF8E0F999FECF12BD01BDB2
:104DE000F89A80B580830F5F1F4F0839110511F0C5
:104DF0003196F2CF0E94955BEEECF8E0F999FECF88
:104E000012BD01BDF89A80B580830F5F1F4F0C392A
:104E1000110511F03196F2CFE2EDF8E0F999FECFED
:104E200012BD01BDF89A80B580830F5F1F4F003A15
:104E3000110511F03196F2CFEAECF8E0F999FECFC6
:104E400012BD01BDF89A80B580830F5F1F4F043AF1
:104E5000110511F03196F2CFE2EEF8E0F999FECFAC
:104E600012BD01BDF89A80B580830F5F1F4F083ACD
:104E7000110511F03196F2CFE6E9F8E0F999FECF8D
:104E800012BD01BDF89A80B580830F5F1F4F0C3AA9
:104E9000110511F03196F2CFE6EDF8E0F999FECF69
:104EA00012BD01BDF89A80B580830F5F1F4F003B94
:104EB000110511F03196F2CFEAEDF8E0F999FECF45
:104EC00012BD01BDF89A80B580830F5F1F4F043B70
:104ED000110511F03196F2CFEEEDF8E0F999FECF21
:104EE00012BD01BDF89A80B580830F5F1F4F083B4C
:104EF000110511F03196F2CFEFE7F6E0F999FECF08
:104F000012BD01BDF89A80B580830F5F1F4F043C2E
:104F1000110511F03196F2CFFE013196F999FECFCD
:104F200012BD01BDF89A80B580830F5F1F4F063C0C
:104F3000110599F7FE013396F999FECF12BD01BD17
:104F4000F89A80B580830F5F1F4F083C110511F060
:104F50003196F2CFFE013596F999FECF12BD01BD13
:104F6000F89A80B580830F5F1F4F0A3C110511F03E
:104F70003196F2CFFE013796F999FECF12BD01BDF1
:104F8000F89A80B580830F5F1F4F0C3C110511F01C
:104F90003196F2CFFE013996F999FECF12BD01BDCF
:104FA000F89A80B580830F5F1F4F0E3C110511F0FA
:104FB0003196F2CFFE013B96F999FECF12BD01BDAD
:104FC000F89A80B580830F5F1F4F003D110511F0E7
:104FD0003196F2CFE1E6F2E0F999FECF12BD01BDC4
:104FE000F89A80B580830F5F1F4F043D110511F0C3
:104FF0003196F2CFE5E6F2E0F999FECF12BD01BDA0
:10500000F89A80B580830F5F1F4F083D110511F09E
:105010003196F2CFE9E6F2E0F999FECF12BD01BD7B
:10502000F89A80B580830F5F1F4F0C3D110511F07A
:105030003196F2CFEFEAF2E0F999FECF12BD01BD51
:10504000F89A80B580830F5F1F4F003E110511F065
:105050003196F2CFE3EBF2E0F999FECF12BD01BD3C
:10506000F89A80B580830F5F1F4F043E110511F041
:105070003196F2CFE7EBF2E0F999FECF12BD01BD18
:10508000F89A80B580830F5F1F4F083E110511F01D
:105090003196F2CFFE013D96F999FECF12BD01BDCA
:1050A000F89A80B580830F5F1F4F0A3E110511F0FB
:1050B0003196F2CFEFEBF6E0F999FECF12BD01BDCC
:1050C000F89A80B580830F5F1F4F0E3E110511F0D7
:1050D0003196F2CFE5E5F2E0F999FECF12BD01BDC0
:1050E000F89A80B580830F5F1F4F023F110511F0C2
:1050F0003196F2CFE3ECF6E0F999FECF12BD01BD97
:10510000F89A80B580830F5F1F4F063F110511F09D
:105110003196F2CFE9E5F2E0F999FECF12BD01BD7B
:10512000F89A80B580830F5F1F4F0A3F110511F079
:105130003196F2CFE7ECF6E0F999FECF12BD01BD52
:10514000F89A80B580830F5F1F4F0E3F110511F055
:105150003196F2CFEDE5F2E0F999FECF12BD01BD37
:10516000F89A80B5808381E00130180721F00F5F45
:105170001F4F3196F1CF0E94FA87E0EEF2E0649182
:105180008F0108C08EED91E10E9463120F5F1F4FE7
:10519000F80164916623B1F7E8E0F3E064918F01D0
:1051A00008C08EED91E10E9463120F5F1F4FF8015E
:1051B00064916623B1F78EED91E16AE00E9463127B
:1051C00002C00E94AF200E949A2266960FB6F89401
:1051D000DEBF0FBECDBFCF91DF911F910F9108951C
:1051E000CF93DF930FB6F8948091D6119091D71199
:1051F000A091D811B091D9110FBE8093D40690938D
:10520000D506A093D606B093D706E091FD06F0919F
:10521000FE06E150F94F8081882399F4E9E1F6E038
:105220006491EF0107C08EED91E10E946312219617
:10523000FE0164916623B9F78EED91E16AE00E9468
:105240006312DF91CF910895EF92FF920F931F9316
:10525000CF93DF93EC01E0908B06F0908C060091E9
:105260008D0610918E06688179818A819B81A801C3
:1052700097010E9411AC882324F4E882F9820A8302
:105280001B83E0908F06F09090060091910610919C
:1052900092066C817D818E819F81A80197010E9479
:1052A00011AC882324F4EC82FD820E831F83E090EE
:1052B0009306F090940600919506109196066885E5
:1052C00079858A859B85A80197010E9411AC882366
:1052D00024F4E886F9860A871B87E0904802F0905C
:1052E000490200914A0210914B02688179818A81BA
:1052F0009B81A80197010E941FAE181624F4E88232
:10530000F9820A831B83E0904C02F0904D020091D9
:105310004E0210914F026C817D818E819F81A80188
:1053200097010E941FAE181624F4EC82FD820E83B2
:105330001F83E0905002F0905102009152021091B0
:105340005302688579858A859B85A80197010E940B
:105350001FAE181624F4E886F9860A871B87DF91AA
:10536000CF911F910F91FF90EF9008958091BD060E
:1053700008950F931F93CF93DF938130910549F4E4
:105380006F5F7F4F09F046C088EE93E00E940B1DCF
:1053900041C0892B09F03EC06F5F7F4FD9F58AE687
:1053A00093E09093A7058093A6058091AC05882390
:1053B00021F089EA95E00E94D072C3E6D5E00AE6C2
:1053C00013E005C06E9784E0C733D80751F0198306
:1053D00008838E818823B1F3CE0103960E94D07298
:1053E000F1CF8AE693E0998388838E81882321F028
:1053F000CE0103960E94D0728AE693E0909318043F
:105400008093170480911D04882321F08AE194E0A1
:105410000E94D072DF91CF911F910F91089580E08B
:1054200090E06FEF7FEF0E94B929089581E090E04E
:105430006FEF7FEF0E94B9290895EF92FF920F93CB
:105440001F93CF93DF93EC017A018B01FC016491F0
:1054500007C08EED91E10E9463122196FE016491D6
:105460006623B9F78EED91E1B801A7012AE000E0CB
:105470000E94CFA7DF91CF911F910F91FF90EF90E6
:105480000895CF93DF930E94E1888091BD06882321
:1054900009F038C081E08093BD068091CC069091E0
:1054A000CD06A091CE06B091CF068093D006909302
:1054B000D106A093D206B093D306EAE6F5E0649154
:1054C000EF0107C08EED91E10E9463122196FE016B
:1054D00064916623B9F7EBE7F5E06491EF0107C04B
:1054E0008EED91E10E9463122196FE016491662384
:1054F000B9F78EED91E16AE00E94631281E795E0D1
:105500000E941897DF91CF910895CF93DF93F8947D
:105510000E94E188779A10929706769A10929806E0
:10552000479A10929906439A8C9A8D9AEAE6F5E08A
:105530006491EF0107C08EED91E10E946312219604
:10554000FE0164916623B9F7EAEFF5E06491EF019B
:1055500007C08EED91E10E9463122196FE016491D5
:105560006623B9F78EED91E16AE00E94631281EF44
:1055700095E00E942797FFCFEF92FF920F931F9322
:105580000FB6F8948091D6119091D711A091D811AF
:10559000B091D9110FBEE090D806F090D9060091D5
:1055A000DA061091DB062091D4063091D5064091A1
:1055B000D6065091D706821B930BA40BB50BE816A9
:1055C000F9060A071B0738F4E114F1040105110577
:1055D00011F00E94852AE0906D02F0906E02009119
:1055E0006F0210917002E114F1040105110571F1CF
:1055F0000FB6F8948091D6119091D711A091D8113F
:10560000B091D9110FBE2091D4063091D5064091AA
:10561000D6065091D706821B930BA40BB50BE81648
:10562000F9060A071B0790F49091D70D8091D80DC9
:10563000981761F4779A10929706769A10929806C6
:10564000479A10929906439A8C9A8D9A0E94405BD1
:105650001F910F91FF90EF9008956F927F928F921C
:105660009F92AF92BF92CF92DF92EF92FF920F93F1
:105670001F93F82E6091DC067091DD068091DE06A6
:105680009091DF062091E0063091E1064091E2061C
:105690005091E3060E942CAE3B014C0100D000D09B
:1056A00000D00DB71EB70F5F1F4F6091440270917D
:1056B0004502882777FD8095982F0E94B3AC2091F2
:1056C00071023091720240917302509174020E94F3
:1056D000F1AE20E030E040E752E40E9418AC20E058
:1056E00030E048EC52E40E9418AC5B016C01F80118
:1056F0006082718282829382F4828091B206858375
:105700008FE696E068EE76E04CED56E020E001E0B2
:1057100032E0E32E0E948B568091E8069091E906D4
:10572000A091EA06B091EB0680936F069093700605
:10573000A0937106B09372068091EC069091ED06ED
:10574000A091EE06B091EF068093730690937406D5
:10575000A0937506B09376068091F0069091F106BD
:10576000A091F206B091F3068093770690937806A5
:10577000A0937906B0937A068091F4069091F5068D
:10578000A091F606B091F70680937B0690937C0675
:10579000A0937D06B0937E060FB6F8948091D61143
:1057A0009091D711A091D811B091D9110FBE8093CB
:1057B000D4069093D506A093D606B093D7068DB79E
:1057C0009EB706960FB6F8949EBF0FBE8DBF1F9171
:1057D0000F91FF90EF90DF90CF90BF90AF909F9090
:1057E0008F907F906F9008954F925F926F927F920B
:1057F0008F929F92AF92BF92CF92DF92EF92FF92E1
:105800000F931F93DF93CF9300D000D0CDB7DEB7B7
:1058100088EE96E00E9424290FB6F8948091D61164
:105820009091D711A091D811B091D9110FBE80934A
:10583000D4069093D506A093D606B093D706809150
:10584000E8069091E906A091EA06B091EB068983FB
:105850009A83AB83BC8360916F06709170068091D0
:1058600071069091720629813A814B815C810E9478
:1058700011AC882309F09DC04090EC065090ED06D5
:105880006090EE067090EF0660917306709174065A
:105890008091750690917606A30192010E9411AC49
:1058A000882309F086C000D0CDB6DEB60894C11CAE
:1058B000D11CE090F006F090F1060091F2061091F4
:1058C000F30660917102709172028091730290915F
:1058D000740220E030E040E752E40E9418AC4B0133
:1058E0005C0182EB96E0D6018D939C9369817A816D
:1058F0008B819C81A3019201E4EFCE2EE6E0DE2EA7
:105900000E9494610F900F908091E8069091E906B3
:10591000A091EA06B091EB0680936F069093700613
:10592000A0937106B09372068091EC069091ED06FB
:10593000A091EE06B091EF068093730690937406E3
:10594000A0937506B09376068091F0069091F106CB
:10595000A091F206B091F3068093770690937806B3
:10596000A0937906B0937A068091F4069091F5069B
:10597000A091F606B091F70680937B0690937C0683
:10598000A0937D06B0937E060F900F900F900F901E
:10599000CF91DF911F910F91FF90EF90DF90CF900B
:1059A000BF90AF909F908F907F906F905F904F903F
:1059B000089500D0CDB6DEB60894C11CD11C40902D
:1059C000EC065090ED066090EE067090EF06E090C9
:1059D000F006F090F1060091F2061091F306609146
:1059E000440270914502882777FD8095982F0E9488
:1059F000B3AC2091710230917202409173025091C8
:105A000074020E94F1AE20E030E040E752E40E94D0
:105A100018AC20E030E048EC52E40E9418AC4B0196
:105A20005C0182EB96E0F601918380835FCFCF9398
:105A3000DF938EED91E10E9495A9ECE1F6E064918F
:105A4000EF0107C08EED91E10E9463122196FE01E5
:105A500064916623B9F74091CC065091CD066091D0
:105A6000CE067091CF064F5F5F4F6F4F7F4F8EED29
:105A700091E10E945CA88EED91E16AE00E946312C0
:105A80000E94F028DF91CF9108954F925F926F921C
:105A90007F928F929F92AF92BF92CF92DF92EF92BE
:105AA000FF920F931F93409071025090720260908A
:105AB0007302709074020F2EF0E0AF2EF0E4BF2E50
:105AC000FCE9CF2EF5E4DF2EF02DA0927102B0920A
:105AD0007202C0927302D092740260936F06709348
