:100000000C94E10B0C940C0C0C940C0C0C940C0C3C
:100010000C940C0C0C940C0C0C940C0C0C940C0C00
:100020000C940C0C0C940C0C0C94ACA50C9426A405
:100030000C940C0C0C940C0C0C940C0C0C940C0CE0
:100040000C940C0C0C945B850C940C0C0C940C0C08
:100050000C940C0C0C940C0C0C94F78D0C94EFA2DB
:100060000C940C0C0C940C0C0C940C0C0C940C0CB0
:100070000C940C0C0C940C0C0C940C0C0C940C0CA0
:100080000C940C0C0C940C0C0C940C0C0C940C0C90
:100090000C94339F0C940C0C084AD73B3BCE016E5A
:1000A00084BCBFFDC12F3D6C74319ABD56833DDACF
:1000B0003D00C77F11BED9E4BB4C3E916BAAAABEDE
:1000C000000000803F05A84CCDB2D44EB93836A907
:1000D000020C50B9918688083CA6AAAA2ABE000044
:1000E00000803F4D383420582059205A2045006563
:1000F00063686F3A0043616E6E6F7420656E74655D
:1001000072207375626469723A20004D3234004D7A
:100110003233202573006175746F25692E670045A1
:1001200072726F723A006572726F722077726974C0
:10013000696E6720746F2066696C65004E6F74206D
:100140005344207072696E74696E67002F005344C7
:10015000207072696E74696E672062797465200020
:100160002E0044656C6574696F6E206661696C650C
:10017000642C2046696C653A200046696C652064F1
:10018000656C657465643A002E006F70656E20665C
:1001900061696C65642C2046696C653A2000577271
:1001A0006974696E6720746F2066696C653A200017
:1001B0002E006F70656E206661696C65642C204648
:1001C000696C653A20002E006F70656E206661696B
:1001D0006C65642C2046696C653A200046696C6544
:1001E0002073656C6563746564002053697A653AB1
:1001F000200046696C65206F70656E65643A20006A
:100200002E006F70656E206661696C65642C2046F7
:10021000696C653A20004E6F7720667265736820BE
:1002200066696C653A20004E6F7720646F696E676F
:100230002066696C653A20002220706F73002220CE
:10024000706172656E743A2200535542524F555494
:10025000494E452043414C4C207461726765743AA5
:100260002200747279696E6720746F2063616C6C10
:10027000207375622D67636F64652066696C6573B2
:10028000207769746820746F6F206D616E79206CBF
:100290006576656C732E204D4158206C6576656CD3
:1002A0002069733A0053442063617264206F6B00CD
:1002B0006F70656E526F6F74206661696C65640063
:1002C000766F6C756D652E696E6974206661696CF8
:1002D000656400534420696E6974206661696C002E
:1002E0006563686F3A0048617264636F6465642097
:1002F00044656661756C742053657474696E6773C8
:10030000204C6F616465640053746F726564207380
:10031000657474696E677320726574726965766559
:100320006400205A0020590020204D3231322058DC
:10033000004265642070726F6265206F6666736547
:100340007420286D6D293A00205A00205900202081
:100350004D3231312058004D617820706F736974CF
:10036000696F6E20286D6D293A00205A00205900CF
:1003700020204D3231302058004D696E20706F734F
:100380006974696F6E20286D6D293A002044002041
:1003900049002020204D3330312050005049442066
:1003A00073657474696E67733A00205A00205900AF
:1003B00020204D323036205800486F6D65206F6622
:1003C0006673657420286D6D293A00204500205A17
:1003D0000020580020420020540020204D323035AB
:1003E000205300416476616E6365642076617269B2
:1003F00061626C65733A20533D4D696E2066656598
:10040000647261746520286D6D2F73292C20543D12
:100410004D696E2074726176656C206665656472E4
:1004200061746520286D6D2F73292C20423D6D6904
:100430006E696D756D207365676D656E7420746986
:100440006D6520286D73292C20583D6D6178696D8C
:10045000756D205859206A65726B20286D6D2F7359
:10046000292C20205A3D6D6178696D756D205A20C8
:100470006A65726B20286D6D2F73292C2020453DF5
:100480006D6178696D756D2045206A65726B2028F5
:100490006D6D2F73290020540020204D3230342000
:1004A0005300416363656C65726174696F6E3A20D5
:1004B000533D616363656C65726174696F6E2C2076
:1004C000543D7265747261637420616363656C6529
:1004D000726174696F6E00204500205A0020590037
:1004E00020204D3230312058004D6178696D756D96
:1004F00020416363656C65726174696F6E20286D5D
:100500006D2F7332293A00204500205A00205900EF
:1005100020204D3230332058004D6178696D756D63
:100520002066656564726174657320286D6D2F7334
:10053000293A00204500205A0020590020204D393A
:100540003220580053746570732070657220756E88
:1005500069743A0053657474696E67732053746FDD
:10056000726564006563686F3A004572726F723A33
:10057000005072696E7465722073746F7070656478
:100580002064756520746F206572726F72732E20FF
:1005900046697820746865206572726F7220616E9A
:1005A0006420757365204D39393920746F20726568
:1005B00073746172742E202854656D706572617455
:1005C0007572652069732072657365742E2053659A
:1005D0007420697420616674657220726573746139
:1005E0007274696E6729005072696E746572206852
:1005F000616C7465642E206B696C6C2829206361C2
:100600006C6C656421006F6B00526573656E643AB3
:1006100020002200556E6B6E6F776E20636F6D6DDC
:10062000616E643A2022007A5F6D696E3A2000792B
:100630005F6D61783A2000785F6D696E3A20005AEC
:100640003A00593A0020436F756E7420583A2000E2
:10065000453A005A3A00593A00583A004649524D34
:10066000574152455F4E414D453A4D61726C696E3E
:100670002056313B20537072696E7465722F677219
:10068000626C206D617368757020666F722067659B
:100690006E36204649524D574152455F55524C3AAD
:1006A000687474703A2F2F7072696E7472626F740E
:1006B0002E636F6D2050524F544F434F4C5F564541
:1006C0005253494F4E3A312E30204D414348494E06
:1006D000455F545950453A5072696E7472626F7436
:1006E0002045585452554445525F434F554E543A55
:1006F0003120555549443A30303030303030302D8B
:10070000303030302D303030302D303030302D30F2
:1007100030303030303030303030300A0020423A23
:100720000020453A00543A0020573A0020453A004C
:10073000543A002042403A0020403A00202F003A2C
:1007400000205400202F0020423A00202F006F6B21
:1007500020543A002569206D696E2C20256920738C
:10076000656300456E642066696C65206C6973740E
:1007700000426567696E2066696C65206C697374F8
:10078000000A00205A3A200020593A2000426564AD
:1007900020506F736974696F6E20583A20000A0008
:1007A000207A3A200020793A200042656420783A85
:1007B00020000A00207A3A200020793A2000426581
:1007C0006420783A20000A00207A3A200020793A02
:1007D000200042656420783A20005A50726F6265AA
:1007E000204F7574736964652042656400486F6DBD
:1007F0006520582F59206265666F7265205A00FF88
:1008000001FF00004040000040400000803F25699B
:1008100020686F757273202569206D696E75746527
:100820007300446F6E65207072696E74696E672024
:1008300066696C65005072696E7465722073746FBE
:10084000707065642064756520746F206572726FC6
:1008500072732E2046697820746865206572726F05
:100860007220616E6420757365204D3939392074AA
:100870006F20726573746172742E202854656D70D8
:100880006572617475726520697320726573657431
:100890002E2053657420697420616674657220721D
:1008A000657374617274696E6729006F6B004E6FB7
:1008B000204C696E65204E756D6265722077697493
:1008C0006820636865636B73756D2C204C6173746D
:1008D000204C696E653A20004E6F20436865636B5B
:1008E00073756D2077697468206C696E65206E750C
:1008F0006D6265722C204C617374204C696E653A90
:100900002000636865636B73756D206D69736D613D
:100910007463682C204C617374204C696E653A20B6
:10092000004C696E65204E756D626572206973209A
:100930006E6F74204C617374204C696E65204E7527
:100940006D6265722B312C204C617374204C696E82
:10095000653A20004D31313000446F6E652073617F
:1009600076696E672066696C652E006F6B004D328C
:1009700039002020506C616E6E6572427566666546
:100980007242797465733A20002046726565204D85
:10099000656D6F72793A20004A756C2020312032E3
:1009A00030313600436F6D70696C65643A200041E8
:1009B00069737461636100207C20417574686F7293
:1009C0003A20004A756C20203120323031362032F6
:1009D000323A32303A323900204C6173742055700B
:1009E00064617465643A2000312E302E30004D6110
:1009F000726C696E200020536F6674776172652097
:100A0000526573657400205761746368646F672072
:100A10005265736574002042726F776E206F757433
:100A2000205265736574002045787465726E616C40
:100A300020526573657400506F776572557000734E
:100A400074617274002200656E717565696E67204D
:100A500022002200656E717565696E67202200654F
:100A600063686F3A0020746F6F206C6F6E6720654B
:100A70007874727573696F6E2070726576656E74C6
:100A800065640020636F6C642065787472757369A7
:100A90006F6E2070726576656E746564007C3C3E96
:100AA0005E2B3D3F2F5B5D3B2C2A225C0045313A9B
:100AB000200045303A20005A3A2000593A20005888
:100AC0003A20004D53312C4D53322050696E730A39
:100AD000006563686F3A0028002920453A00280025
:100AE00029205A3A0028002920593A002800205885
:100AF0003A00537465707065722063757272656E2A
:100B0000742076616C756573205B25287261772986
:100B10005D3A0024F404D9201BC40C5C0E9804C474
:100B2000095F0265077101F405F900FB04B3004891
:100B3000048700C10369005803550003034500BE44
:100B4000023A008402310053022A002902250004DF
:100B5000022000E4011C00C8011900AF0117009831
:100B60000114008401130071011000610110005193
:100B7000010E0043010D0036010B002B010B00207C
:100B8000010B00150109000C01090003010800FB1D
:100B9000000800F3000800EB000700E4000600DE98
:100BA000000600D8000600D2000600CC000500C7F1
:100BB000000500C2000500BD000400B9000400B536
:100BC000000400B1000400AD000400A9000400A569
:100BD000000300A20003009F0004009B0003009894
:100BE0000003009500020093000300900003008DB5
:100BF0000002008B000300880002008600020084CF
:100C0000000300810002007F0002007D0002007BE3
:100C100000020079000200770001007600020074F3
:100C200000020072000100710002006F0002006DFE
:100C30000001006C0002006A000100690002006708
:100C4000000100660001006500010064000200620E
:100C500000010061000100600001005F0002005D12
:100C60000001005C0001005B0001005A0001005916
:100C70000001005800010057000100560001005516
:100C80000001005400010053000000530001005215
:100C900000010051000100500001004F0001004E12
:100CA0000000004E0001004D0001004C0001004B0F
:100CB0000000004B0001004A00010049000100480B
:100CC0000000004800010047000100460000004607
:100CD0000001004500000045000100440001004300
:100CE00000000043000100420000004200010041FA
:100CF00000000041000100400001003F0000003FF3
:100D00000001003E0000003E0001003D0000003DEB
:100D10000001003C0000003C0000003C0001003BE2
:100D20000000003B0001003A0000003A00010039D9
:100D300000000039000100380000003800000038D1
:100D400000010037000000370001003600000036C7
:100D500000000036000100350000003500000035BD
:100D600000010034000000340000003400010033B2
:100D700000000033000000330001003200000032A8
:100D8000000000320001003100000031000000319D
:100D90000001003000000030000000300001002F92
:100DA0000000002F0000002F0000002F0001002E87
:100DB0000000002E0000002E0001002D0000002D7C
:100DC0000000002D0000002D0001002C0000002C70
:100DD0000000002C0000002C0001002B0000002B64
:100DE0000000002B0000002B0001002A0000002A58
:100DF0000000002A0000002A00010029000000294C
:100E0000000000290000002900000029000100283E
:100E10000000002800000028000000280000002832
:100E20000001002700000027000000270000002725
:100E30000000002700010026000000260000002618
:100E4000000000260000002600010025000000250B
:100E500000000025000000250000002500000025FE
:100E600000010024000000240000002400000024F1
:100E700000000024000100230000002300000023E4
:100E800000000023000000230000002300000023D6
:100E900000010022000000220000002200000022C9
:100EA00000000022000000220001002100000021BB
:100EB00000000021000000210000002100000021AE
:100EC00000000021000100200000002000000020A0
:100ED0000000002000000020000000200000002092
:100EE000000000200001001F0000001F0000001F84
:100EF0000000001F0000001F0000001F0000001F76
:100F00000001001E0000001E0000001E0000001E68
:100F100000000024F4D43050C38E20C2A2401782B7
:100F20008B7011127A910D816CD90AA861E108C702
:100F3000586607615143061E4B5D05C145A7041A5B
:100F4000411104093D9803713931034036DB0265D4
:100F5000339102D4305402802E1D02632CEE0175B1
:100F60002AC501B028A001102781018F2564012B1B
:100F7000244B01E0223401AC211F018D200D0180A2
:100F80001FFC00841EED00971DDF00B81CD200E698
:100F90001BC600201BBC00641AB200B219A8000ACC
:100FA00019A0006A189900D117910040178B00B55D
:100FB00016840031167E00B31579003A157300C708
:100FC000146F0058146A00EE13660088136300253E
:100FD000135E00C7125B006C12570015125400C15B
:100FE00011510070114F0021114B00D61049008D96
:100FF0001047004610440002104200C00F4000801D
:101000000F3E00420F3C00060F3B00CB0E38009312
:101010000E37005C0E3500270E3400F30D3200C190
:101020000D3100900D3000600D2E00320D2D0005A9
:101030000D2C00D90C2B00AE0C2900850C29005C6E
:101040000C2700350C27000E0C2600E80B2400C4EA
:101050000B2400A00B23007D0B23005A0B21003929
:101060000B2100180B2000F80A1F00D90A1E00BB34
:101070000A1E009D0A1D00800A1D00630A1C00470D
:101080000A1B002C0A1B00110A1A00F7091A00DDBE
:10109000091900C4091900AB091900920917007B4E
:1010A000091800630917004C0916003609160020BC
:1010B0000916000A091500F5081500E0081400CC0F
:1010C000081400B8081400A4081400900813007D48
:1010D0000812006B0813005808120046081200346A
:1010E000081100230811001208110001081100F076
:1010F000071000E0071000D0071000C0071000B074
:10110000070F00A107100091070E0083070F00745E
:10111000070F0065070E0057070E0049070E003B3A
:10112000070D002E070E0020070D0013070D000607
:10113000070D00F9060C00ED060D00E0060C00D4CA
:10114000060C00C8060C00BC060C00B0060C00A47F
:10115000060B0099060C008D060B0082060B00772B
:10116000060B006C060B0061060A0057060B004CCC
:10117000060A0042060A0038060A002E060A002463
:10118000060A001A060A001006090007060A00FDF2
:10119000050900F4050900EB050900E2050900D97D
:1011A000050900D0050900C7050900BE050900B5FD
:1011B000050800AD050800A50509009C0508009478
:1011C0000508008C050800840508007C05080074EB
:1011D0000508006C050700650508005D0507005659
:1011E0000508004E050700470507004005080038C0
:1011F000050700310507002A050700230507001C25
:10120000050600160507000F050700080506000281
:10121000050700FB040600F5040700EE040600E8DD
:10122000040600E2040700DB040600D5040600CF34
:10123000040600C9040600C3040600BD040600B786
:10124000040600B1040500AC040600A6040600A0D4
:101250000405009B04060095040500900406008A1E
:1012600004050085040500800406007A0405007565
:10127000040500700405006B0405006604050061A8
:101280000405005C04050057040500520405004DE8
:1012900004050048040500430405003E0404003A28
:1012A00004050035040500300404002C0405002763
:1012B000040400230405001E0404001A040400169C
:1012C000040500110404000D0404000904050004D1
:1012D00004040000040400FC030400F8030400F408
:1012E000030400F0030400EC030400E8030400E43A
:1012F000030400E0030400DC030400D8030400D46A
:10130000030400D0030400CC030400C8030300C599
:10131000030300205A3A0020593A0020583A006549
:101320006E6473746F7073206869743A200045723C
:10133000726F723A0054656D706572617475726592
:1013400020686561746564206265642073776974E0
:1013500063686564206F66662E204D415854454D84
:101360005020747269676765726564202121003AB4
:101370002045787472756465722073776974636848
:101380006564206F66662E204D494E54454D5020B1
:101390007472696767657265642021003A20457838
:1013A000747275646572207377697463686564200C
:1013B0006F66662E204D415854454D502074726919
:1013C000676765726564202100202D20496E766173
:1013D0006C6964206578747275646572206E756DD1
:1013E00062657220210070012C0190012701B0017B
:1013F0002201C0011D01F001180110021301300289
:101400000E016002090190020401C002FF00000306
:10141000FA004003F5008003F000D003EB00200445
:10142000E6007004E100E004DC004005D700C005E0
:10143000D2004006CD00D006C8008007C3003008A7
:10144000BE00F008B900C009B400B00AAF00B00B8C
:10145000AA00D00CA500000EA000500F9B00C010E9
:1014600096005012910000148C00C0158700B01730
:101470008200B0197D00D01B7800001E7300402050
:101480006E0090226900F024640040275F009029DC
:101490005A00E02B5500102E500020304B00103227
:1014A0004600E033410090353C001037370070387B
:1014B0003200A0392D00B03A2800A03B2300603C48
:1014C0001E00103D1900903D1400103E0F00703EAC
:1014D0000A00C03E0500003F00005049442041750D
:1014E000746F74756E652066696E697368656421D2
:1014F0002050757420746865204B702C204B692037
:10150000616E64204B6420636F6E7374616E7473DC
:1015100020696E746F20436F6E66696775726174BF
:10152000696F6E2E6800504944204175746F747560
:101530006E65206661696C6564212074696D656FF4
:1015400075740020403A006F6B20543A006F6B2096
:10155000423A00504944204175746F74756E65209D
:101560006661696C6564212054656D706572617493
:1015700075726520746F6F206869676800204B641E
:101580003A2000204B693A2000204B703A2000207E
:10159000436C617369632050494420002054753ABC
:1015A0002000204B753A2000206D61783A20002001
:1015B0006D696E3A200020643A20002062696173F0
:1015C0003A20001000C90210012C014001220170D4
:1015D000011801B0010E01F00104015002FA00B03F
:1015E00002F0003003E600D003DC009004D200706B
:1015F00005C800A006BE000008B400B009AA00D0CB
:101600000BA000600E960060118C00001582002077
:10161000197800C01D6E00A0226400B0275A009007
:101620002C500000314600E0343C0010383200906D
:101630003A2800603C1E00A03D1400803E0A0020B5
:101640003F000001290229042908291029202940E6
:10165000298029012C022C012602260426082610A6
:1016600026202640268026402C802C01230223049D
:101670002308231023202340238023012002200459
:101680002008201020202040208020102C202C0119
:101690002F022F042F082F102F202F402F802F7E56
:1016A000FE7EFD7EFB7EF77EEF7EDF7EBF7E7F00CF
:1016B000010000E3161200020000F51643000300CB
:1016C00000381704010309043C17180203090456E3
:1016D0001716030309046E170C0001C102018036BE
:1016E0000181361201000202000020C016830400AE
:1016F000010102030109024300020100C032090492
:10170000000001020201000524001001052401006F
:1017100001042402060524060001070582030800CF
:101720004009040100020A0000000705030240000E
:101730000007058402400000040309041803540054
:10174000650065006E007300790064007500690033
:101750006E006F0000001603550053004200200089
:10176000530065007200690061006C0000000C030A
:10177000310032003300340035000000494E464944
:101780004E4954594E414ECDCCCC3D0AD7233C173F
:10179000B7D13877CC2B329595E6241FB14F0A008C
:1017A0000020410000C84200401C4620BCBE4CCA7C
:1017B0001B0E5AAEC59D74009E29B9833F9E19A980
:1017C000992911241FBECFEFD0E2DEBFCDBF13E0B9
:1017D000A0E0B1E0EAE1FEE501E00BBF02C0079046
:1017E0000D92AC35B107D9F71BBE10E1ACE5B3E003
:1017F00001C01D92A63FB107E1F717E1C0ECD7E1A8
:1018000004C02297FE010E94B3AEC83BD107C9F7BE
:101810000E942AA60C9401AF0C940000A0E0B0E056
:10182000E4E1FCE00C94D0AEEC015B0161157105C4
:1018300019F0FB0191838083F9908F2D90E00E9435
:10184000B7AE892BC9F7FDE2FF1621F4F990EE241B
:10185000E39405C02BE2F21609F4F990EE248E0110
:1018600001501040C8016CE777E143E050E069D2D5
:10187000892BF9F48E010E5F1F4FC8016FE777E1E6
:1018800045E050E05ED2892B19F48E01095F1F4FAD
:10189000A114B10419F0F50111830083E0FC04C028
:1018A00070E090E080E813C070E090E080E86FEFB7
:1018B00007C1C80164E877E143E050E042D2892BD8
:1018C00069F4A114B10429F470E090E080EC6FE7B2
:1018D000F7C02296F501D183C083F6CF88249924DE
:1018E00040E050E060E070E0EF2DE053EA30A0F51A
:1018F000F2E0EF2A8E2D90E09C0128703070E2FE1D
:1019000006C0232B79F50894811C911C2BC0232B36
:1019100019F0089481089108DB01CA0112E0880FD0
:10192000991FAA1FBB1F1A95D1F7480F591F6A1F8D
:101930007B1F440F551F661F771F4E0F511D611DE2
:10194000711D483929E9520729E9620729E172071F
:1019500048F084E0E82A06C0EE3F31F4E3FC39C0E9
:1019600098E0E92AF990C0CFE53311F0E53189F527
:1019700029912D3219F4E0E1EE2A05C02B3219F03D
:1019800081E090E003C0299182E090E0E22FE053F3
:10199000EA3018F0C81BD90B1CC020E030E0FCE096
:1019A00020383F075CF4C901880F991F880F991FE1
:1019B000280F391F220F331F2E0F311DE991E053DD
:1019C000EA3068F3E4FE03C0309521953F4F820E64
:1019D000931ECE2CDD24E1FE07C0A114B10421F03A
:1019E0002197F501D183C083CB01BA010E941CABC2
:1019F0007B018C01F3E0CF22DD2423E0C216D10469
:101A000021F417FB109517F9109557016801C801CB
:101A1000B70120E030E040E050E00E947CAA88233B
:101A200009F44AC097FE0DC02BE9E22E27E1F22E01
:101A30009094819491089394C0E2D0E000E010E08B
:101A400012C093EBE92E97E1F92EF6CFF70125911D
:101A5000359145915491C601B5010E945CAD5B0181
:101A60006C018C1A9D0A8C169D0684F7D595C79536
:101A70000F5F1F4F0630110529F08CEF9FEFE80E26
:101A8000F91EF1CFC501D6017C018D018C2D880F87
:101A90008D2D881F8F3F51F0C601B50120E030E049
:101AA00040E050E00E947CAA882331F482E290E07A
:101AB0009093F5108093F4107E2D9F2D802F612F31
:101AC000272F392F482F562FB901CA01CDB7DEB7BE
:101AD000ECE00C94ECAE2F923F925F926F927F926B
:101AE0008F929F92AF92BF92CF92DF92EF92FF922E
:101AF0000F931F93CF93DF938C011B01EA016115B4
:101B0000710519F0FB0191838083209749F0CE0184
:101B10000297839728F020E030E040E050E0F6C0E4
:101B2000F801A1908F018A2D90E00E94B7AE892B19
:101B3000B9F7FDE2AF1631F4F801A1908F015524F9
:101B4000539407C0FBE2AF1619F4F801A1908F017E
:101B50005524209719F0C031D105C1F4F0E3AF1638
:101B600079F4F8018081883711F0883549F4F8015B
:101B7000A1800E5F1F4FF2E05F2AC0E1D0E006C0F7
:101B8000209721F480E3A816E9F427C0C830D105D6
:101B900031F1C930D10524F4C230D10531F50CC082
:101BA000CA30D10589F0C031D105F9F4C12CD12C4E
:101BB000E12CB8E0FB2E28C0C12CD12CE12CA0E4F4
:101BC000FA2E22C0CAE0D0E0FCECCF2EFCECDF2ED7
:101BD000FCECEF2EFCE0FF2E17C0C8E0D0E0C12CDB
:101BE000D12CE12CE0E1FE2E0FC09E01442737FDF1
:101BF0004095542F60E070E080E090E80E9474AE61
:101C0000C901DA016C017D0120E030E040E050E0E4
:101C100060E03E01882477FC8094982C70EDB72E0C
:101C2000BA0CE9E0EB1570F48A2D81548A3118F46E
:101C300099ECB92E06C08A2D81568A3150F589EA71
:101C4000B82EBA0C8B2D90E08C179D0714F56F3FC2
:101C5000E1F0C216D306E406F506B0F0CA01B901F8
:101C6000A40193010E942EAE9B01AC012B0D311DEE
:101C7000411D511D2130F0E03F07F0E04F07F0E833
:101C80005F0710F461E001C06FEFF801A1908F01D0
:101C9000C5CF2114310481F0662331F0015010408A
:101CA000F1011183008308C051FE1AC00250104098
:101CB000F1011183008314C067FF12C050FC05C0FE
:101CC0002FEF3FEF4FEF5FE704C020E030E040E050
:101CD00050E882E290E09093F5108093F41016C0E3
:101CE00050FE08C050954095309521953F4F4F4F7D
:101CF0005F4F0CC057FF0AC082E290E09093F5104E
:101D00008093F4102FEF3FEF4FEF5FE7B901CA0167
:101D1000DF91CF911F910F91FF90EF90DF90CF90C7
:101D2000BF90AF909F908F907F906F905F903F900B
:101D30002F900895FB01DC0105900D920020E1F742
:101D40000895FB01DC014150504088F08D918134B1
:101D50001CF08B350CF4805E659161341CF06B35A2
:101D60000CF4605E861B611171F3990B0895881B5A
:101D7000FCCFFB0155915523A9F0BF01DC014D912A
:101D800045174111E1F759F4CD010590002049F0C4
:101D90004D9140154111C9F3FB014111EFCF81E095
:101DA00090E001970895FB01DC0104C08D91019042
:101DB000801921F441505040C8F7881B990B0895B1
:101DC000FB01DC0102C001900D9241505040D8F758
:101DD0000895FB01DC010D900020E9F711970190B7
:101DE0000D920020E1F70895FC018191861721F002
:101DF0008823D9F7992708953197CF010895FB01DA
:101E0000DC0101900D920020E1F70895FB01DC0157
:101E10004150504030F08D910190801919F400200C
:101E2000B9F7881B990B0895FB01DC014150504024
:101E300048F001900D920020C9F701C01D92415059
:101E40005040E0F70895AEE0B0E0E9E2FFE00C9426
:101E5000D8AE0D891E898EE08C831A8309838FEF9B
:101E60009FE79E838D839E01275E3F4FCE010196A3
:101E70006F89788DA9010AD02F813885020F131F31
:101E8000F80110822E96E4E00C94F4AEABE0B0E0E2
:101E9000ECE4FFE00C94CAAE3C012B015A01FC01BA
:101EA00017821682838181FD03C06FEF7FEFB9C176
:101EB0009AE0892E1E010894211C311CF301238114
:101EC000F20123FD859123FF81912F01882309F4DD
:101ED000A5C1853239F423FD859123FF81912F011E
:101EE000853221F490E0B301B7D1E8CF982FFF24D9
:101EF000EE249924FFE1FF15D0F09B3269F09C326B
:101F000028F4903259F0933291F40EC09D3249F08A
:101F1000903369F441E024C052E0F52A84E0F82AC5
:101F200028C098E0F92A25C0E0E1FE2A22C0F7FC8B
:101F300029C0892F80538A3070F4F6FE05C0989C22
:101F4000902C1124980E15C0E89CE02C1124E80E6A
:101F5000F0E2FF2A0EC09E3229F4F6FC5FC140E495
:101F6000F42A07C09C3619F450E8F52A02C09836C6
:101F700049F4F20123FD959123FF91912F019923BB
:101F800009F0B8CF892F8554833018F08052833000
:101F900038F444E050E0A40EB51E5FE359830FC04F
:101FA000933631F0933779F0933509F052C01FC062
:101FB000F5018081898342E050E0A40EB51E6101E5
:101FC00001E010E011C0F501C080D180F6FC03C033
:101FD0006FEF7FEF02C0692D70E042E050E0A40E89
:101FE000B51EC6012ED18C015FE7F52213C0F501A5
:101FF000C080D180F6FC03C06FEF7FEF02C0692D77
:1020000070E042E050E0A40EB51EC6010FD18C0175
:1020100050E8F52AF3FE06C018C080E290E0B30154
:102020001BD1EA948E2D90E008171907B0F30DC06C
:10203000F601F7FC8591F7FE81916F0190E0B30105
:102040000BD1E110EA94015010400115110581F700
:10205000E2C0943611F0993661F5F7FE08C0F5013B
:10206000208131814281538184E090E00AC0F501F2
:10207000808191819C01442737FD4095542F82E057
:1020800090E0A80EB91E9FE6F92257FF09C05095AF
:102090004095309521953F4F4F4F5F4FE0E8FE2A26
:1020A000CA01B901A1012AE030E002D1D82ED2182C
:1020B0003FC0953729F41F2D1F7E2AE030E01DC058
:1020C0001F2D197F9F3661F0903720F4983509F065
:1020D000A5C00FC0903739F0983709F09FC004C0F1
:1020E00028E030E00AC0106114FD146020E130E007
:1020F00004C014FD166020E132E017FF08C0F501AE
:10210000608171818281938144E050E008C0F501D3
:1021100080819181BC0180E090E042E050E0A40E1B
:10212000B51EA101C5D0D82ED2188FE7F82EF12206
:10213000F6FE0BC05EEFF522D91438F4F4FE07C0AA
:10214000F2FC05C08FEEF82202C01D2D01C0192D32
:10215000F4FE0DC0FE01ED0DF11D8081803319F4F8
:1021600099EEF92208C01F5FF2FE05C003C08F2D53
:10217000867809F01F5F0F2DF3FC13C0F0FE0EC030
:102180001E1510F09D2C0AC09D2C9E0C911A1E2D20
:1021900005C080E290E0B3015FD01F5F1E15C8F359
:1021A00004C01E1510F4E11A01C0EE2404FF0EC095
:1021B00080E390E0B30150D002FF1BC001FD03C0DB
:1021C00088E790E00EC088E590E00BC0802F86780D
:1021D00081F001FF02C08BE201C080E2F7FC8DE2DA
:1021E00090E0B30139D005C080E390E0B30134D072
:1021F0009A94D914C8F3DA94F101ED0DF11D8081A0
:1022000090E0B30129D0DD20B1F705C080E290E075
:10221000B30122D0EA94EE20C9F750CEF3016681D3
:102220007781CB012B96E2E10C94E6AEFC010590A0
:10223000615070400110D8F7809590958E0F9F1FC8
:102240000895FC016150704001900110D8F780950D
:1022500090958E0F9F1F08950F931F93CF93DF9339
:102260008C01EB018B8181FF1BC082FF0DC02E8191
:102270003F818C819D812817390764F4E881F981B9
:102280000193F983E88306C0E885F985802F0995D5
:10229000892B31F48E819F8101969F838E8302C0AA
:1022A0000FEF1FEFC801DF91CF911F910F9108959C
:1022B000FA01AA27283051F1203181F1E8946F9377
:1022C0006E7F6E5F7F4F8F4F9F4FAF4FB1E03ED01D
:1022D000B4E03CD0670F781F891F9A1FA11D680FBB
:1022E000791F8A1F911DA11D6A0F711D811D911DEE
:1022F000A11D20D009F468943F912AE0269F112463
:102300003019305D3193DEF6CF010895462F4770C6
:10231000405D4193B3E00FD0C9F7F6CF462F4F7021
:10232000405D4A3318F0495D31FD4052419302D07F
:10233000A9F7EACFB4E0A695979587957795679525
:10234000BA95C9F700976105710508959B01AC0125
:102350000A2E06945795479537952795BA95C9F74C
:10236000620F731F841F951FA01D0895DC01ED915E
:10237000FC910280F381E02D09950895DF93CF93BE
:102380000F92CDB7DEB7FC016983A081B1811496AD
:102390002D913C911597BE016F5F7F4F41E050E05A
:1023A000F90109950F90CF91DF910895FC011282F8
:1023B00013820895FC018381882311F081E08283D8
:1023C0000895FC018281811112820895FC018CE341
:1023D00093E0918380838581882321F0CF01029649
:1023E0000C9405760895EF92FF920F931F938C0142
:1023F00024EBE22E21E0F22EE80EF91EC7010E9426
:10240000B675C7010E940576F801108211821F91EE
:102410000F91FF90EF900895CF92DF92EF92FF928D
:102420000F931F93CF93DF937C016B01DB010D9022
:102430000020E9F78D0101501040061B170BE4EB5B
:10244000F1E0EE0EFF1ED7011C92ECE4FEEFEE0E63
:10245000FF1ECB016EE470E0C7DCEC01009731F4A5
:10246000F8013197EC0DFD1D86010CC060E270E0B3
:10247000BBDC8C010F5F1F4FCE016AE270E0B4DC61
:10248000FC0131978DE081838AE082831382C7014A
:102490008E549E4FB8010E94EB7D84EB91E0E80ED4
:1024A000F91ED7018C918823F1F0EFE1F1E06491FE
:1024B000EF0106C08BEE90E161DF2196FE01649191
:1024C0006623C1F7E6E2F1E06491EF0106C08BEE0E
:1024D00090E154DF2196FE0164916623C1F78BEEF3
:1024E00090E16AE04BDFDF91CF911F910F91FF9058
:1024F000EF90DF90CF900895EF92FF920F93CF93DC
:10250000DF937C01FC018381882309F43DC0EEE464
:10251000F1E06491EF0106C08BEE90E12FDF219690
:10252000FE0164916623C1F789E692E0E80EF91E88
:10253000F701408151816281738187E99DEFE80E47
:10254000F91E8BEE90E12AE000E00E946BA6ECE41D
:10255000F1E06491EF0106C08BEE90E10FDF219670
:10256000FE0164916623C1F781E692E0E80EF91E50
:10257000F70140815181628173818BEE90E12AE005
:1025800000E00E946BA60DC0ECE3F1E06491EF0166
:1025900006C08BEE90E1F2DE2196FE016491662387
:1025A000C1F78BEE90E16AE0E9DEDF91CF910F9108
:1025B000FF90EF9008952F923F924F925F926F920B
:1025C0007F928F929F92AF92BF92CF92DF92EF92C3
:1025D000FF920F931F93DF93CF93CDB7DEB7AA97E8
:1025E0000FB6F894DEBF0FBECDBF5C014B01FC01FE
:1025F0008381882309F40AC1C5018C549E4F0E942F
:102600000576F5011282188A1B8A8CE393E09F8776
:102610008E874CE4C42ED12CCA0CDB1C2FE230E098
:10262000A20EB31EF601B182A08221ED3FEFA20EF1
:10263000B31EF40180818F3209F079C0C4016FE2CA
:1026400070E0D2DB7C010894E11CF11C3E0108948F
:10265000611C711C260130E1232E312C2C0E3D1EF5
:1026600061C0C7016FE270E0BFDB6C01009709F445
:102670006CC0E816F90608F068C08C010E191F0935
:10268000C301B701A801D0DB060D171DF8011082A8
:102690008BEE90E1B3016ADE8BEE90E16AE06EDED4
:1026A000F201608171816115710519F460E070E0DB
:1026B00002C06E5F7F4FC101A30121E00E94F27C46
:1026C000882329F5EAE8F1E064917F0108C08BEEE8
:1026D00090E154DE0894E11CF11CF701649166233B
:1026E000B1F78BEE90E1BE016F5F7F4F3FDEE8E810
:1026F000F1E064917F0108C08BEE90E13FDE089429
:10270000E11CF11CF70164916623B1F778C02EE05B
:1027100030E02C0F3D1FF2013183208376010894B5
:10272000E11CF11CE114F10409F09BCF0BC08EE415
:1027300090E0A80EB91EF601B182A08222EB3FEF15
:10274000A20EB31ED82C092D02C0DE2C0F2D8CE456
:1027500090E0A80EB91EF5018081918124EB3FEF36
:10276000A20EB31E009719F480E090E001C002961B
:102770006D2D702F0E94BE7D8823F1F0EAE7F1E015
:1027800064917F0108C08BEE90E1F8DD0894E11CB4
:10279000F11CF70164916623B1F78BEE90E16D2D8A
:1027A000702FE4DD29E632E0A20EB31EF50110829F
:1027B00011821282138227C0E2E6F1E064917F0168
:1027C00008C08BEE90E1DADD0894E11CF11CF70102
:1027D00064916623B1F78BEE90E16D2D702FC6DD0D
:1027E000E0E6F1E064917F0108C08BEE90E1C6DD88
:1027F0000894E11CF11CF70164916623B1F78BEE9C
:1028000090E16AE0BBDDCE010E96E0DDAA960FB640
:10281000F894DEBF0FBECDBFCF91DF911F910F9116
:10282000FF90EF90DF90CF90BF90AF909F908F90F0
:102830007F906F905F904F903F902F900895BF9240
:10284000CF92DF92EF92FF920F931F93CF93DF937C
:102850008C01EB018FE28993EE24E394FF246DE871
:10286000C62E61E0D62EC00ED11E5DE1B52E14C07D
:10287000FB9CC001112483599F4F800F911FBE0103
:102880000E94157602C02196E3948881882319F06E
:102890008CE88E15C0F7F3942F2D30E0F60180817F
:1028A00091812817390720F3E7FC07C0C8018C5431
:1028B0009E4FBE010E94157601C01882DF91CF9114
:1028C0001F910F91FF90EF90DF90CF90BF900895F0
:1028D0002F923F924F925F926F927F928F929F9230
:1028E000AF92BF92CF92DF92EF92FF920F931F931E
:1028F000DF93CF93CDB7DEB7AB970FB6F894DEBFBB
:102900000FBECDBF5C014B014BA7DC0113968C9130
:10291000882309F4D3C2E7EBF1E0AE0EBF1ED50168
:102920008C91E9E4FEEFAE0EBF1E882309F4F5C0DA
:10293000222309F0C6C02FEC31E0A20EB31ED50150
:102940008C91E1E3FEEFAE0EBF1E882369F1EFE14B
:10295000F1E064917F0108C08BEE90E10FDD0894F7
:10296000E11CF11CF70164916623B1F7E2E6F2E0A5
:1029700064917F0108C08BEE90E100DD0894E11CBA
:10298000F11CF70164916623B1F78BEE90E141E011
:1029900050E060E070E00E94F6A68BEE90E16AE005
:1029A000EDDC0E94E3298AC2EFEEF0E064917F0142
:1029B00008C08BEE90E1E2DC0894E11CF11CF70109
:1029C00064916623B1F7E9E4F2E064917F0108C005
:1029D0008BEE90E1D3DC0894E11CF11CF7016491CB
:1029E0006623B1F78BEE90E1B401C0DCEEE3F2E0D8
:1029F00064917F0108C08BEE90E1C0DC0894E11C7B
:102A0000F11CF70164916623B1F7850101531E4F54
:102A1000D8016C918DE8F82E6F9DB00111246C5295
:102A20007E4F6A0D7B1DC5010ADFF80160816F9D35
:102A3000B00111246C527E4F6A0D7B1D8BEE90E12C
:102A400095DCE8E3F2E064917F0108C08BEE90E151
:102A500095DC0894E11CF11CF70164916623B1F741
:102A6000B9E6EB2EB2E0FB2EEA0CFB1CD7014D9130
:102A70005D916D917C918BEE90E12AE000E00E94E7
:102A80006BA68BEE90E16AE079DCA50141535E4FC5
:102A9000FA012081E22FF0E0EC58FF4FEE0FFF1F0C
:102AA000EE0FFF1FEA0DFB1DD701CD90DD90ED90DD
:102AB000FC90C082D182E282F3822F5FFA012083F0
:102AC00026C0EFEEF0E064917F0108C08BEE90E14C
:102AD00055DC0894E11CF11CF70164916623B1F701
:102AE000E7E2F2E064917F0108C08BEE90E146DC02
:102AF0000894E11CF11CF70164916623B1F78BEE99
:102B000090E1B40133DC8BEE90E16AE037DCC50183
:102B10008C549E4F0E94057630C02FEC31E0A20EFF
:102B2000B31ED5011C92E1E3FEEFAE0EBF1EEFEE29
:102B3000F0E064917F0108C08BEE90E11FDC089407
:102B4000E11CF11CF70164916623B1F7E6E1F2E0C4
:102B500064917F0108C08BEE90E110DC0894E11CC9
:102B6000F11CF70164916623B1F78BEE90E1B4019B
:102B7000FDDB8BEE90E16AE001DCD50112961C9240
:102B8000188A1B8A8CE393E09F878E87ECE4CE2E15
:102B9000D12CCA0CDB1CEFE2F0E0AE0EBF1ED6015A
:102BA000AD92BC92E1EDFFEFAE0EBF1ED4018C9151
:102BB0008F3209F079C0C4016FE270E015D97C0151
:102BC0000894E11CF11C3E010894611C711C260153
:102BD00070E1272E312C2C0E3D1E61C0C7016FE223
:102BE00070E002D96C01009709F46CC0E816F90690
:102BF00008F068C08C010E191F09C301B701A801B4
:102C000013D9060D171DF80110828BEE90E1B30168
:102C1000ADDB8BEE90E16AE0B1DBD2016D917C918E
:102C20006115710519F460E070E002C06E5F7F4FBE
:102C3000C101A30121E00E94F27C882329F5E2E092
:102C4000F2E064917F0108C08BEE90E197DB08947D
:102C5000E11CF11CF70164916623B1F78BEE90E162
:102C6000BE016F5F7F4F82DBE0E0F2E064917F01A5
:102C700008C08BEE90E182DB0894E11CF11CF701A7
:102C800064916623B1F713C1EEE0F0E0EC0FFD1F95
:102C9000D201ED93FC9376010894E11CF11CE11440
:102CA000F10409F09BCF0BC02EE430E0A20EB31E5E
:102CB000D601AD92BC92E2EBFFEFAE0EBF1E082D27
:102CC000D92C02C00E2DDF2CF501E45BFF4F2BA5A4
:102CD000222309F49EC0608171816115710519F488
:102CE00060E070E002C06E5F7F4FC5018C549E4F64
:102CF000402F5D2D21E00E94F27C882309F465C0FD
:102D0000A5014F595D4F85EC91E0A80EB91EF50164
:102D100080819181A281B3812BE33EEFA20EB31E8D
:102D2000FA0180839183A283B383E2EFF1E064919F
:102D30007F0108C08BEE90E121DB0894E11CF11CBF
:102D4000F70164916623B1F78BEE90E1602F7D2D42
:102D50000DDBEAEEF1E064917F0108C08BEE90E1BB
:102D60000DDB0894E11CF11CF70164916623B1F7B7
:102D700021E632E0A20EB31ED5014D915D916D9119
:102D80007C918BEE90E12AE000E00E946BA68BEE36
:102D900090E16AE0F3DAE8E0F0E0AE0EBF1ED501A4
:102DA0001D921D921D921C921397ECEDF1E064911F
:102DB0007F0108C08BEE90E1E1DA0894E11CF11C80
:102DC000F70164916623B1F772C0E8ECF1E0649119
:102DD0007F0108C08BEE90E1D1DA0894E11CF11C70
:102DE000F70164916623B1F78BEE90E1602F7D2DA2
:102DF000BDDAE6ECF1E064917F0108C08BEE90E172
:102E0000BDDA0894E11CF11CF70164916623B1F767
:102E10004EC0608171816115710519F460E070E048
:102E200002C06E5F7F4FC5018C549E4F402F5D2DB9
:102E300026E50E94F27C882321F5E2EBF1E0649123
:102E40007F0108C08BEE90E199DA0894E11CF11C37
:102E5000F70164916623B1F78BEE90E1602F7D2D31
:102E600085DAE0EBF1E064917F0108C08BEE90E140
:102E700085DA0894E11CF11CF70164916623B1F72F
:102E800016C081E0D5018C93EEE9F1E064917F01F9
:102E900008C08BEE90E172DA0894E11CF11CF70196
:102EA00064916623B1F78BEE90E1B4015FDA8BEEAB
:102EB00090E16AE063DACE010E9688DAAB960FB63F
:102EC000F894DEBF0FBECDBFCF91DF911F910F9160
:102ED000FF90EF90DF90CF90BF90AF909F908F903A
:102EE0007F906F905F904F903F902F900895EF925A
:102EF000FF920F931F93CF93DF93EC010E944385C2
:102F00008E0101531E4FD8018C9134EBE32E31E03A
:102F1000F32EEC0EFD1E882399F1C7010E94057661
:102F2000F8016081615060838DE8689FB0011124D1
:102F30006C527E4F6C0F7D1FCE0141E021E0C8DC5A
:102F4000D801EC91F0E0EC58FF4FEE0FFF1FEE0FB1
:102F5000FF1FEC0FFD1F4081518162817381C759B2
:102F6000DD4F488359836A837B83C956D240C701AA
:102F70000E94EC748B81882389F181E08A832EC0C2
:102F80000E949683C7010E9405761A8283EE90E024
:102F90000E94335780915D08882301F110925D08EB
:102FA00080910106C82FD0E0CC0FDD1FCA52D04F50
:102FB00068817981882777FD8095982F0E941EABC4
:102FC00020919C0230919D0240919E0250919F025F
:102FD0000E948AAC181614F419821882DF91CF91DE
:102FE0001F910F91FF90EF900895FC0181E0818384
:102FF000CF0140E021E06CCCEF92FF920F931F9342
:10300000CF93DF937C01FC01138284A9882321F0F4
:10301000C701C1960E940576870101571E4FC8015E
:1030200060E044E10E94AD738823D9F4EFEEF0E054
:103030006491EF0106C08BEE90E1A0D92196FE01CC
:1030400064916623C1F7E3EDF2E06491EF0106C0FD
:103050008BEE90E193D92196FE0164916623C1F72E
:103060006BC0E701CC56DE4FCE01B80141E00E94B3
:103070007C7E882311F5CE01B80140E00E947C7E61
:103080008823D9F4EFE1F1E06491EF0106C08BEE03
:1030900090E174D92196FE0164916623C1F7E0ECBA
:1030A000F2E06491EF0106C08BEE90E167D92196C2
:1030B000FE0164916623C1F73FC0C701C196BE01FE
:1030C0000E94F7788823D9F4EFE1F1E06491EF01F1
:1030D00006C08BEE90E152D92196FE0164916623E1
:1030E000C1F7E0EBF2E06491EF0106C08BEE90E1F6
:1030F00045D92196FE0164916623C1F71DC081E088
:10310000F7018383EFEEF0E06491EF0106C08BEEF0
:1031100090E134D92196FE0164916623C1F7E5EA76
:10312000F2E06491EF0106C08BEE90E127D9219681
:10313000FE0164916623C1F78BEE90E16AE01ED92F
:10314000D701A05BBF4FF701F1968BE101900D9283
:103150008150E1F7C7018F962CE430E0E20EF31EB8
:10316000F70191838083DF91CF911F910F91FF90A1
:10317000EF9008952F923F924F925F926F927F92BD
:103180009F92AF92BF92CF92DF92EF92FF920F93F6
:103190001F93DF93CF93CDB7DEB7CC55D0400FB69A
:1031A000F894DEBF0FBECDBF8C01662319F503591D
:1031B0001D4FD8018C910D561240882309F4E6C0AA
:1031C0000FB6F8942091E2103091E3104091E41092
:1031D0005091E5100FBE0B591D4FF8018081918170
:1031E000A281B3810556124082179307A407B50741
:1031F00008F4CCC003591D4FD8011C920D56124043
:10320000F8018381882341F4C801F6DED8011396C2
:103210008C91882309F4BAC000D000D000D0EDB75B
:10322000FEB731966E010894C11CD11CADB7BEB774
:103230001296DC92CE92119786E191E0938382837D
:10324000D8019D968D919C919E97958384830E9431
:10325000230F7601EDB7FEB736960FB6F894FEBF92
:103260000FBEEDBF56010AC0D7018C91992787FD8B
:1032700090950E94BFAEF70181937F01F501019007
:103280000020E9F73197EA19FB098E2D8C198E176A
:103290005CF371E3A72EB12CA00EB11EC50140E076
:1032A00050E060E070E00E94EC7499246DE3C62E5B
:1032B000D12CCC0EDD1E2E010894411C511C5FE167
:1032C000652E712C6C0E7D1E4FE0242E41E0342EB5
:1032D00043C0D7018C9190E00E94BFAEF70181936B
:1032E0007F01D6010D900020E9F71197AC19BD09B7
:1032F0008E2D8C198A176CF327968FAD27978E37F2
:1033000059F1C601B20145E050E00E94060F009756
:1033100019F500D000D000D0EDB7FEB73196ADB7AB
:10332000BEB712967C926E9211973382228255829A
:1033300044820E94230FEDB7FEB736960FB6F8947D
:10334000FEBF0FBEEDBFC3010E94AA578BE091E004
:103350000E94335799249394C501B60140E050E090
:103360000E941678181614F47601BBCF992041F408
:103370008FEF9FEFD8019E969C938E939D9706C0EA
:10338000F80185A596A5019696A785A7C45ADF4F93
:103390000FB6F894DEBF0FBECDBFCF91DF911F9166
:1033A0000F91FF90EF90DF90CF90BF90AF909F90E4
:1033B0007F906F905F904F903F902F9008952F9245
:1033C0003F924F925F926F927F928F929F92AF92B5
:1033D000BF92CF92DF92EF92FF920F931F93DF93F2
:1033E000CF93CDB7DEB7CB58D0400FB6F894DEBF41
:1033F0000FBECDBF7C012B015A0182E090E0A80EE8
:10340000B91EF7017196CB57DF4FF983E883C55892
:10341000D040C7010496CE57DF4F99838883C258A6
:10342000D040CC57DF4F1882C458D040B2E6CB2EE4
:10343000D12CCC0EDD1EF6013B96C957DF4FF98328
:10344000E883C758D040AEE66A2EA2E07A2E6E0C12
:103450007F1CF0E78F2EF2E09F2E8E0C9F1CEEE07B
:103460002E2E312C2C0E3D1E85E490E08C0F9D1FDE
:103470000296C757DF4F99838883C958D040EFEE33
:10348000F0E09491C557DF4F9883CB58D0402BC1C3
:10349000F6018385482F50E0BA0168717070603181
:1034A000710509F02EC1F3012081318121303105F0
:1034B00009F427C12230310509F423C1F601DE01E8
:1034C00011969081903239F08E2F8C19883011F43A
:1034D0008EE28D939D933196C957DF4F88819981F4
:1034E000C758D040E817F90761F71C921E86F20111
:1034F0008081882329F4C10160E071E00E94E90E17
:10350000C101B2010E94E90EC101BE016F5F7F4F90
:103510000E94E90EC10160E071E00E94E90E1AA666
:103520001DA68CE393E099A788A7CE018A96B501E2
:10353000AE014F5F5F4F21E00E94F27C882371F55E
:10354000F30180819181892B49F5C557DF4F68814F
:10355000CB58D0400FEE10E008C08BEE90E10E94F7
:10356000BE110F5F1F4FF80164916623B1F78BEE18
:1035700090E162E071E00E94B6118BEE90E16AE0AA
:103580000E94BE118BEE90E1BE016F5F7F4F0E94E3
:10359000B6118BEE90E16AE00E94BE11C757DF4F73
:1035A000A881B981C958D040FE01BA968BE101903B
:1035B0000D928150E1F78CE393E027969FAF8EAF99
:1035C0002797C701B101AE014B5B5F4FF8DECE011B
:1035D0008B5B9F4F0E94E611CE0188960E94E611F8
:1035E00082C0953E09F47FC09E3209F47CC09F35AD
:1035F00009F479C0F7019189992331F09E3209F4D9
:1036000072C09F3509F46FC043FD6DC080E060312A
:10361000710509F481E0F70184A7882349F4F601D4
:103620008085873409F05FC081858E3709F45BC0DF
:10363000CE57DF4FA881B981C258D040F6018081B2
:10364000803241F08E2F8C19883011F48EE28D93E8
:1036500080818D933196C957DF4F88819981C758F2
:10366000D040E817F90759F71C92F3018081918146
:103670000097A9F48BEE90E1B2010E94B6118BEE97
:1036800090E1CE57DF4F68817981C258D0400E94C7
:10369000B6118BEE90E16AE00E94BE1124C0813029
:1036A000910539F4F40180819181019691838083A1
:1036B0001AC00297C1F4CC57DF4FF881C458D040EC
:1036C0002F2F30E0F4018081918128173907F1F024
:1036D000CC57DF4FF881C458D040FF5FCC57DF4F45
:1036E000F883C458D040C501B601CB57DF4F48819D
:1036F0005981C558D0400E94167818160CF4C8CECF
:1037000005C0F6019081992309F06BCFC557DF4FB3
:103710000FB6F894DEBF0FBECDBFCF91DF911F91E2
:103720000F91FF90EF90DF90CF90BF90AF909F9060
:103730008F907F906F905F904F903F902F90089563
:10374000EF92FF920F931F93DF93CF93CDB7DEB726
:103750006D970FB6F894DEBF0FBECDBF7C018EE62D
:1037600092E0E80EF91EF7011182108282E99DEFC6
:10377000E80EF91E87010F5C1F4FC80140E050E0C2
:1037800060E070E00E94EC74DE011396F8018BE1BA
:1037900001900D928150E1F78CE393E09A83898345
:1037A000C70165E171E08E010F5F1F4FA80107DEC1
:1037B000C8010E94E6116D960FB6F894DEBF0FBEE9
:1037C000CDBFCF91DF911F910F91FF90EF900895A2
:1037D000CF93DF93FC0111AA14AA8CE393E090AB82
:1037E00087A7E05BFF4F1082339610823597918355
:1037F0008083EE54F040EF01C559DF4FDE0120E039
:1038000030E0482F12961C92129715961C9215972D
:103810004C9311969C931197235E3F4F5D9681E0E8
:103820002232380779F7E057FE4F89E180833396DB
:1038300010827896108239961082339610823597CE
:1038400040839183E155FF4F1082118212821382CF
:1038500038961082118212821382E956F240128247
:10386000138210821182E357FE4F11821082EE5BA9
:10387000FF4F1082DE01C9011D920197E9F7E25660
:10388000FF4F81E08083ED56F24016A615A60FB6D5
:10389000F8948091E2109091E310A091E410B0911F
:1038A000E5100FBE88579C4EAF4FBF4FEB59FD4FF1
:1038B00080839183A283B383DF91CF9108950F9387
:1038C0001F93DF93CF93CDB7DEB766970FB6F8940B
:1038D000DEBF0FBECDBF8091160190911701A09160
:1038E0001801B09119018F87988BA98BBA8BFE01B3
:1038F0003F9644E650E08081F999FECF1FBA52BD51
:1039000041BD80BD0FB6F894FA9AF99A0FBE4F5F89
:103910005F4F4836510511F03196EDCFE1E0F8E008
:103920008081F999FECF1FBA52BD41BD80BD0FB64F
:10393000F894FA9AF99A0FBE4F5F5F4F48375105D6
:1039400011F03196EDCFE1EFF7E08081F999FECFEC
:103950001FBA52BD41BD80BD0FB6F894FA9AF99ACC
:103960000FBE4F5F5F4F4838510511F03196EDCFD4
:10397000E1E1F8E08081F999FECF1FBA52BD41BD67
:1039800080BD0FB6F894FA9AF99A0FBE4F5F5F4F59
:103990004839510511F03196EDCFE5E2F8E080812C
:1039A000F999FECF1FBA52BD41BD80BD0FB6F89444
:1039B000FA9AF99A0FBE4F5F5F4F4C39510511F0DB
:1039C0003196EDCFE9E2F8E08081F999FECF1FBA98
:1039D00052BD41BD80BD0FB6F894FA9AF99A0FBE58
:1039E0004F5F5F4F403A510511F03196EDCFE1E264
:1039F000F8E08081F999FECF1FBA52BD41BD80BD6C
:103A00000FB6F894FA9AF99A0FBE4F5F5F4F443A97
:103A1000510511F03196EDCFE9E3F8E08081F99995
:103A2000FECF1FBA52BD41BD80BD0FB6F894FA9AC1
:103A3000F99A0FBE4F5F5F4F483A510511F031962A
:103A4000EDCFEDEEF7E08081F999FECF1FBA52BDC0
:103A500041BD80BD0FB6F894FA9AF99A0FBE4F5F38
:103A60005F4F4C3A510511F03196EDCFEDE2F8E0A1
:103A70008081F999FECF1FBA52BD41BD80BD0FB6FE
:103A8000F894FA9AF99A0FBE4F5F5F4F403B510589
:103A900011F03196EDCFE1E3F8E08081F999FECFA6
:103AA0001FBA52BD41BD80BD0FB6F894FA9AF99A7B
:103AB0000FBE4F5F5F4F443B510511F03196EDCF84
:103AC000E5E3F8E08081F999FECF1FBA52BD41BD10
:103AD00080BD0FB6F894FA9AF99A0FBE4F5F5F4F08
:103AE000483B510511F03196EDCFE6EEF5E08081CF
:103AF000F999FECF1FBA52BD41BD80BD0FB6F894F3
:103B0000FA9AF99A0FBE4F5F5F4F443C510511F08E
:103B10003196EDCF84EB90E09A83898386E490E040
:103B20009C838B832FEF30E03E832D8380EF90E0EA
:103B300098878F8384E690E09A8789873C872B87D4
:103B4000FE0131968081F999FECF1FBA52BD41BD69
:103B500080BD0FB6F894FA9AF99A0FBE4F5F5F4F87
:103B6000463C510571F7FE0133968081F999FECFED
:103B70001FBA52BD41BD80BD0FB6F894FA9AF99AAA
:103B80000FBE4F5F5F4F483C510511F03196EDCFAE
:103B9000FE0135968081F999FECF1FBA52BD41BD15
:103BA00080BD0FB6F894FA9AF99A0FBE4F5F5F4F37
:103BB0004A3C510511F03196EDCFFE0137968081D8
:103BC000F999FECF1FBA52BD41BD80BD0FB6F89422
:103BD000FA9AF99A0FBE4F5F5F4F4C3C510511F0B6
:103BE0003196EDCFFE0139968081F999FECF1FBA4B
:103BF00052BD41BD80BD0FB6F894FA9AF99A0FBE36
:103C00004F5F5F4F4E3C510511F03196EDCFFE01F5
:103C10003B968081F999FECF1FBA52BD41BD80BD50
:103C20000FB6F894FA9AF99A0FBE4F5F5F4F403D76
:103C3000510511F03196EDCFEFE5F2E08081F99971
:103C4000FECF1FBA52BD41BD80BD0FB6F894FA9A9F
:103C5000F99A0FBE4F5F5F4F443D510511F0319609
:103C6000EDCFE3E6F2E08081F999FECF1FBA52BDB5
:103C700041BD80BD0FB6F894FA9AF99A0FBE4F5F16
:103C80005F4F483D510511F03196EDCFE7E6F2E088
:103C90008081F999FECF1FBA52BD41BD80BD0FB6DC
:103CA000F894FA9AF99A0FBE4F5F5F4F4C3D510559
:103CB00011F03196EDCFEDEAF2E08081F999FECF77
:103CC0001FBA52BD41BD80BD0FB6F894FA9AF99A59
:103CD0000FBE4F5F5F4F403E510511F03196EDCF63
:103CE000E1EBF2E08081F999FECF1FBA52BD41BDF0
:103CF00080BD0FB6F894FA9AF99A0FBE4F5F5F4FE6
:103D0000443E510511F03196EDCFE5EBF2E08081B4
:103D1000F999FECF1FBA52BD41BD80BD0FB6F894D0
:103D2000FA9AF99A0FBE4F5F5F4F483E510511F066
:103D30003196EDCF80E290E09E878D87FE013D9623
:103D40008081F999FECF1FBA52BD41BD80BD0FB62B
:103D5000F894FA9AF99A0FBE4F5F5F4F4A3E5105A9
:103D600011F03196EDCFEEE0F6E08081F999FECFCB
:103D70001FBA52BD41BD80BD0FB6F894FA9AF99AA8
:103D80000FBE4F5F5F4F4E3E510511F03196EDCFA4
:103D9000E3E5F2E08081F999FECF1FBA52BD41BD43
:103DA00080BD0FB6F894FA9AF99A0FBE4F5F5F4F35
:103DB000423F510511F03196EDCFE2E1F6E080810E
:103DC000F999FECF1FBA52BD41BD80BD0FB6F89420
:103DD000FA9AF99A0FBE4F5F5F4F463F510511F0B7
:103DE0003196EDCFE7E5F2E08081F999FECF1FBA79
:103DF00052BD41BD80BD0FB6F894FA9AF99A0FBE34
:103E00004F5F5F4F4A3F510511F03196EDCFE6E12C
:103E1000F6E08081F999FECF1FBA52BD41BD80BD49
:103E20000FB6F894FA9AF99A0FBE4F5F5F4F4E3F64
:103E3000510511F03196EDCFEBE5F2E08081F99973
:103E4000FECF1FBA52BD41BD80BD0FB6F894FA9A9D
:103E5000F99A0FBE81E04130580721F04F5F5F4F64
:103E60003196ECCF80911A0190911B01A0911C0119
:103E7000B0911D018B8B9C8BAD8BBE8BFE0173961D
:103E800084E690E02081F999FECF1FBA92BD81BDF2
:103E900020BD0FB6F894FA9AF99A0FBE87369105AD
:103EA00019F001963196EECFE0EEF2E064918F01C9
:103EB00008C08BEE90E10E94BE110F5F1F4FF8010A
:103EC00064916623B1F7E4E5F5E064918F0108C0E1
:103ED0008BEE90E10E94BE110F5F1F4FF8016491BD
:103EE0006623B1F78BEE90E16AE00E94BE11669600
:103EF0000FB6F894DEBF0FBECDBFCF91DF911F91FB
:103F00000F910895EF92FF920F931F93DF93CF933A
:103F1000CDB7DEB7E0970FB6F894DEBF0FBECDBFCA
:103F2000DE011196ECEEF2E080E101900D928150FD
:103F3000E1F7DE015196ECEDF2E080E101900D92A7
:103F40008150E1F7DE019196ECECF2E080E1019026
:103F50000D928150E1F789819A81AB81BC81809378
:103F6000010890930208A0930308B093040889897C
:103F70009A89AB89BC898093F1079093F207A0934B
:103F8000F307B093F40789A19AA1ABA1BCA18093D8
:103F9000110890931208A0931308B09314088D8110
:103FA0009E81AF81B8858093050890930608A09301
:103FB0000708B09308088D899E89AF89B88D8093D2
:103FC000F5079093F607A093F707B093F8078DA134
:103FD0009EA1AFA1B8A58093150890931608A09351
:103FE0001708B093180889859A85AB85BC8580939E
:103FF000090890930A08A0930B08B0930C08898DC8
:104000009A8DAB8DBC8D8093F9079093FA07A0939E
:10401000FB07B093FC0789A59AA5ABA5BCA5809327
:10402000190890931A08A0931B08B0931C088D855B
:104030009E85AF85B88980930D0890930E08A09354
:104040000F08B09310088D8D9E8DAF8DB8A1809311
:10405000FD079093FE07A093FF07B09300088DA57E
:104060009EA5AFA5B8A980931D0890931E08A093A4
:104070001F08B09320080E941D5F80E090E8ABE32A
:10408000B5E48093250890932608A0932708B09361
:1040900028088093290890932A08A0932B08B093AE
:1040A0002C080F2EF0E0EF2EF0E0FF2EF0E00F2FA7
:1040B000F0E01F2FF02DE0922108F09222080093EB
:1040C00023081093240880E29EE4A0E0B0E08093EF
:1040D000ED079093EE07A093EF07B093F007E092FF
:1040E0003908F0923A0800933B0810933C0880E0AE
:1040F00090E0A0EAB1E480932D0890932E08A0935D
:104100002F08B09330088DEC9CECACECBEE38093B0
:10411000310890933208A0933308B093340880E0BC
:1041200090E0A0EAB0E48093350890933608A0931D
:104130003708B0933808E092EE05F092EF0500934F
:10414000F0051093F105E092EA05F092EB0500937B
:10415000EC051093ED05E092E605F092E70500937B
:10416000E8051093E90580E090E0A8ECB1E48093C5
:104170005F0290936002A0936102B0936202E092AA
:104180006302F0926402009365021093660283E377
:1041900093E3A3EBBEEB8093670290936802A09336
:1041A0006902B0936A028DEC9CECA0E0B2E48093CB
:1041B000AD029093AE02A093AF02B093B0026AE951
:1041C00079E989E990E40E94348D6093B10270939B
:1041D000B2028093B3029093B40260E070E083E88F
:1041E00092E40E94408D6093B5027093B602809372
:1041F000B7029093B8020E94448C80E090E0A0E85F
:10420000BFE38093B9029093BA02A093BB02B0932C
:10421000BC02E0920E06F0920F0600931006109377
:104220001106E0921206F092130600931406109302
:104230001506E0921606F0921706009318061093E2
:10424000190686E696E6A8E1B3E4809353029093BC
:104250005402A0935502B093560280935702909354
:104260005802A0935902B0935A0280E090E0ABE16B
:10427000B3E480935B0290935C02A0935D02B093E1
:104280005E02E0EEF2E064918F0108C08BEE90E1F7
:104290000E94BE110F5F1F4FF80164916623B1F7B2
:1042A000E6EEF2E064918F0108C08BEE90E10E948F
:1042B000BE110F5F1F4FF80164916623B1F78BEEBB
:1042C00090E16AE00E94BE11E0960FB6F894DEBF5E
:1042D0000FBECDBFCF91DF911F910F91FF90EF9057
:1042E00008950F931F93CF93DF9300EE12E0F80130
:1042F0006491E80107C08BEE90E10E94BE11219607
:10430000FE0164916623B9F7E4E4F5E06491EF01FE
:1043100007C08BEE90E10E94BE112196FE016491D0
:104320006623B9F78BEE90E16AE00E94BE11F801B6
:104330006491C0EED2E007C08BEE90E10E94BE1106
:104340002196FE0164916623B9F7409101085091CE
:10435000020860910308709104088CE395E00E94C4
:10436000AF3240910508509106086091070870919E
:10437000080889E395E00E94AF3240910908509106
:104380000A0860910B0870910C0886E395E00E9482
:10439000AF3240910D0850910E0860910F08709156
:1043A000100883E395E00E94AF32E091EB10F091AA
:1043B000EC100280F381E02D8BEE90E16EE171E074
:1043C00009958BEE90E16AE00E94BE11F8016491BC
:1043D000C0EED2E007C08BEE90E10E94BE112196A4
:1043E000FE0164916623B9F7E9E1F5E06491EF011C
:1043F00007C08BEE90E10E94BE112196FE016491F0
:104400006623B9F78BEE90E16AE00E94BE11F801D5
:104410006491C0EED2E007C08BEE90E10E94BE1125
:104420002196FE0164916623B9F74091F1075091FE
:10443000F2076091F3077091F40780E195E00E9424
:10444000AF324091F5075091F6076091F7077091F0
:10445000F8078DE095E00E94AF324091F907509146
:10446000FA076091FB077091FC078AE095E00E94D3
:10447000AF324091FD075091FE076091FF077091A8
:10448000000887E095E00E94AF32E091EB10F091D8
:10449000EC100280F381E02D8BEE90E16EE171E093
:1044A00009958BEE90E16AE00E94BE11F8016491DB
:1044B000C0EED2E007C08BEE90E10E94BE112196C3
:1044C000FE0164916623B9F7E9EEF4E06491EF012F
:1044D00007C08BEE90E10E94BE112196FE0164910F
:1044E0006623B9F78BEE90E16AE00E94BE11F801F5
:1044F0006491C0EED2E007C08BEE90E10E94BE1145
:104500002196FE0164916623B9F7409111085091FC
:104510001208609113087091140880EE94E00E94D4
:1045200068324091150850911608609117087091F3
:1045300018088DED94E00E9468324091190850915E
:104540001A0860911B0870911C088AED94E00E9483
:10455000683240911D0850911E0860911F087091AB
:10456000200887ED94E00E946832E091EB10F09112
:10457000EC100280F381E02D8BEE90E16EE171E0B2
:1045800009958BEE90E16AE00E94BE11F8016491FA
:10459000C0EED2E007C08BEE90E10E94BE112196E2
:1045A000FE0164916623B9F7E2EAF4E06491EF0159
:1045B00007C08BEE90E10E94BE112196FE0164912E
:1045C0006623B9F78BEE90E16AE00E94BE11F80114
:1045D0006491C0EED2E007C08BEE90E10E94BE1164
:1045E0002196FE0164916623B9F740912508509108
:1045F0002608609127087091280889E994E00E94B4
:10460000AF324091290850912A0860912B0870918F
:104610002C0886E994E00E94AF32E091EB10F09113
:10462000EC100280F381E02D8BEE90E16EE171E001
:1046300009958BEE90E16AE00E94BE11F801649149
:10464000C0EED2E007C08BEE90E10E94BE11219631
:10465000FE0164916623B9F7E3EEF3E06491EF01A4
:1046600007C08BEE90E10E94BE112196FE0164917D
:104670006623B9F78BEE90E16AE00E94BE11F80163
:104680006491C0EED2E007C08BEE90E10E94BE11B3
:104690002196FE0164916623B9F74091210850915B
:1046A000220860912308709124088AED93E00E940B
:1046B000AF324091390850913A0860913B087091AF
:1046C0003C0887ED93E00E94AF324091ED07509196
:1046D000EE076091EF077091F00784ED93E00E9480
:1046E000683240912D0850912E0860912F087091EA
:1046F000300881ED93E00E94AF3240913108509133
:10470000320860913308709134088EEC93E00E9477
:10471000AF3240913508509136086091370870915A
:1047200038088BEC93E00E94AF32E091EB10F091EF
:10473000EC100280F381E02D8BEE90E16EE171E0F0
:1047400009958BEE90E16AE00E94BE11F801649138
:10475000C0EED2E007C08BEE90E10E94BE11219620
:10476000FE0164916623B9F7E9EBF3E06491EF0190
:1047700007C08BEE90E10E94BE112196FE0164916C
:104780006623B9F78BEE90E16AE00E94BE11F80152
:104790006491C0EED2E007C08BEE90E10E94BE11A2
:1047A0002196FE0164916623B9F74091E605509188
:1047B000E7056091E8057091E90580EB93E00E94C0
:1047C000AF324091EA055091EB056091EC05709194
:1047D000ED058DEA93E00E94AF324091EE055091D5
:1047E000EF056091F0057091F1058AEA93E00E946F
:1047F000AF32E091EB10F091EC100280F381E02DEC
:104800008BEE90E16EE171E009958BEE90E16AE04C
:104810000E94BE11F8016491C0EED2E007C08BEE99
:1048200090E10E94BE112196FE0164916623B9F7C2
:10483000ECE9F3E06491EF0107C08BEE90E10E9498
:10484000BE112196FE0164916623B9F78BEE90E1CB
:104850006AE00E94BE11F8016491C0EED2E007C088
:104860008BEE90E10E94BE112196FE0164916623B9
:10487000B9F74091AD025091AE026091AF027091D4
:10488000B00282E993E00E94AF326091B102709170
:10489000B2028091B3029091B4020E943A8DAB01B2
:1048A000BC018FE893E00E94AF326091B502709135
:1048B000B6028091B7029091B8020E94468DAB017A
:1048C000BC018CE893E00E94AF32E091EB10F091D4
:1048D000EC100280F381E02D8BEE90E16EE171E04F
:1048E00009958BEE90E16AE00E94BE11F801649197
:1048F000C0EED2E007C08BEE90E10E94BE1121967F
:10490000FE0164916623B9F7E9E7F3E06491EF01F2
:1049100007C08BEE90E10E94BE112196FE016491CA
:104920006623B9F78BEE90E16AE00E94BE11F801B0
:104930006491C0EED2E007C08BEE90E10E94BE1100
:104940002196FE0164916623B9F740910E065091BD
:104950000F06609110067091110680E793E00E94A7
:10496000AF32409112065091130660911406709177
:1049700015068DE693E00E94AF32409116065091E5
:10498000170660911806709119068AE693E00E9456
:10499000AF32E091EB10F091EC100280F381E02D4A
:1049A0008BEE90E16EE171E009958BEE90E16AE0AB
:1049B0000E94BE11F8016491C0EED2E007C08BEEF8
:1049C00090E10E94BE112196FE0164916623B9F721
:1049D000E7E5F3E06491EF0107C08BEE90E10E9400
:1049E000BE112196FE0164916623B9F78BEE90E12A
:1049F0006AE00E94BE11F8016491C0EED2E007C0E7
:104A00008BEE90E10E94BE112196FE016491662317
:104A1000B9F7409153025091540260915502709140
:104A200056028EE493E00E94AF32409157025091BB
:104A300058026091590270915A028BE493E00E94EF
:104A4000AF3240915B0250915C0260915D027091C7
:104A50005E0288E493E00E94AF32E091EB10F091A7
:104A6000EC100280F381E02D8BEE90E16EE171E0BD
:104A700009958BEE90E16AE00E94BE11F801649105
:104A8000C0EED2E007C08BEE90E10E94BE112196ED
:104A9000FE0164916623B9F7E1E3F3E06491EF016D
:104AA00007C08BEE90E10E94BE112196FE01649139
:104AB0006623B9F78BEE90E16AE00E94BE11F8011F
:104AC0006491C0EED2E007C08BEE90E10E94BE116F
:104AD0002196FE0164916623B9F740915F025091DF
:104AE0006002609161027091620288E293E00E942C
:104AF000AF324091630250916402609165027091FF
:104B0000660285E293E00E94AF32409167025091C5
:104B100068026091690270916A0282E293E00E94E9
:104B2000AF32E091EB10F091EC100280F381E02DB8
:104B30008BEE90E16EE171E009958BEE90E16AE019
:104B40000E94BE11DF91CF911F910F9108950F9395
:104B50001F93DF93CF93CDB7DEB766970FB6F89468
:104B6000DEBF0FBECDBF80911A0190911B01A091B5
:104B70001C01B0911D018B8B9C8BAD8BBE8BFE01FC
:104B80003F9604E610E0F999FECF12BD01BDF89AF8
:104B900080B580830F5F1F4F0836110511F03196E5
:104BA000F2CFCE014396BE01615F7F4F43E050E0FC
:104BB0000E94060F009709F017C2E1E0F8E0F999AA
:104BC000FECF12BD01BDF89A80B580830F5F1F4FE5
:104BD0000837110511F03196F2CFE1EFF7E0F999BE
:104BE000FECF12BD01BDF89A80B580830F5F1F4FC5
:104BF0000838110511F03196F2CFE1E1F8E0F999AA
:104C0000FECF12BD01BDF89A80B580830F5F1F4FA4
:104C10000839110511F03196F2CF0E941D5FE5E2CF
:104C2000F8E0F999FECF12BD01BDF89A80B58083F6
:104C30000F5F1F4F0C39110511F03196F2CFE9E2E9
:104C4000F8E0F999FECF12BD01BDF89A80B58083D6
:104C50000F5F1F4F003A110511F03196F2CFE1E2DC
:104C6000F8E0F999FECF12BD01BDF89A80B58083B6
:104C70000F5F1F4F043A110511F03196F2CFE9E3AF
:104C8000F8E0F999FECF12BD01BDF89A80B5808396
:104C90000F5F1F4F083A110511F03196F2CFEDEE7C
:104CA000F7E0F999FECF12BD01BDF89A80B5808377
:104CB0000F5F1F4F0C3A110511F03196F2CFEDE264
:104CC000F8E0F999FECF12BD01BDF89A80B5808356
:104CD0000F5F1F4F003B110511F03196F2CFE1E35A
:104CE000F8E0F999FECF12BD01BDF89A80B5808336
:104CF0000F5F1F4F043B110511F03196F2CFE5E332
:104D0000F8E0F999FECF12BD01BDF89A80B5808315
:104D10000F5F1F4F083B110511F03196F2CFE6EE01
:104D2000F5E0F999FECF12BD01BDF89A80B58083F8
:104D30000F5F1F4F043C110511F03196F2CFFE01B9
:104D40003196F999FECF12BD01BDF89A80B58083E6
:104D50000F5F1F4F063C110599F7FE013396F99935
:104D6000FECF12BD01BDF89A80B580830F5F1F4F43
:104D7000083C110511F03196F2CFFE013596F999F4
:104D8000FECF12BD01BDF89A80B580830F5F1F4F23
:104D90000A3C110511F03196F2CFFE013796F999D0
:104DA000FECF12BD01BDF89A80B580830F5F1F4F03
:104DB0000C3C110511F03196F2CFFE013996F999AC
:104DC000FECF12BD01BDF89A80B580830F5F1F4FE3
:104DD0000E3C110511F03196F2CFFE013B96F99988
:104DE000FECF12BD01BDF89A80B580830F5F1F4FC3
:104DF000003D110511F03196F2CFEFE5F2E0F9999F
:104E0000FECF12BD01BDF89A80B580830F5F1F4FA2
:104E1000043D110511F03196F2CFE3E6F2E0F99985
:104E2000FECF12BD01BDF89A80B580830F5F1F4F82
:104E3000083D110511F03196F2CFE7E6F2E0F9995D
:104E4000FECF12BD01BDF89A80B580830F5F1F4F62
:104E50000C3D110511F03196F2CFEDEAF2E0F9992F
:104E6000FECF12BD01BDF89A80B580830F5F1F4F42
:104E7000003E110511F03196F2CFE1EBF2E0F99925
:104E8000FECF12BD01BDF89A80B580830F5F1F4F22
:104E9000043E110511F03196F2CFE5EBF2E0F999FD
:104EA000FECF12BD01BDF89A80B580830F5F1F4F02
:104EB000083E110511F03196F2CFFE013D96F999A9
:104EC000FECF12BD01BDF89A80B580830F5F1F4FE2
:104ED0000A3E110511F03196F2CFEEE0F6E0F999B5
:104EE000FECF12BD01BDF89A80B580830F5F1F4FC2
:104EF0000E3E110511F03196F2CFE3E5F2E0F9999B
:104F0000FECF12BD01BDF89A80B580830F5F1F4FA1
:104F1000023F110511F03196F2CFE2E1F6E0F99986
:104F2000FECF12BD01BDF89A80B580830F5F1F4F81
:104F3000063F110511F03196F2CFE7E5F2E0F9995D
:104F4000FECF12BD01BDF89A80B580830F5F1F4F61
:104F50000A3F110511F03196F2CFE6E1F6E0F9993A
:104F6000FECF12BD01BDF89A80B580830F5F1F4F41
:104F70000E3F110511F03196F2CFEBE5F2E0F99911
:104F8000FECF12BD01BDF89A80B5808381E001306B
:104F9000180721F00F5F1F4F3196F1CF0E94448C0C
:104FA000E0EEF2E064918F0108C08BEE90E10E9488
:104FB000BE110F5F1F4FF80164916623B1F7E8E05F
:104FC000F3E064918F0108C08BEE90E10E94BE1166
:104FD0000F5F1F4FF80164916623B1F78BEE90E1EC
:104FE0006AE00E94BE1102C00E94821F7AD96696B2
:104FF0000FB6F894DEBF0FBECDBFCF91DF911F91EA
:105000000F910895CF93DF930FB6F8948091E2103B
:105010009091E310A091E410B091E5100FBE809341
:105020002B0690932C06A0932D06B0932E06E091AC
:105030005406F0915506EA5AF94F8081882399F475
:10504000E6E0F6E06491EF0107C08BEE90E10E948C
:10505000BE112196FE0164916623B9F78BEE90E1B3
:105060006AE00E94BE11DF91CF910895EF92FF9206
:105070000F931F93CF93DF93EC01E090F205F09034
:10508000F3050091F4051091F505688179818A8115
:105090009B81A80197010E947CAA882324F4E882BE
:1050A000F9820A831B83E090F605F090F7050091E2
:1050B000F8051091F9056C817D818E819F81A80191
:1050C00097010E947CAA882324F4EC82FD820E833F
:1050D0001F83E090FA05F090FB050091FC0510910C
:1050E000FD05688579858A859B85A80197010E94C1
:1050F0007CAA882324F4E886F9860A871B87E09037
:105100004602F090470200914802109149026881DE
:1051100079818A819B81A80197010E948AAC181627
:1051200024F4E882F9820A831B83E0904A02F0901B
:105130004B0200914C0210914D026C817D818E8159
:105140009F81A80197010E948AAC181624F4EC8272
:10515000FD820E831F83E0904E02F0904F0200917B
:10516000500210915102688579858A859B85A80136
:1051700097010E948AAC181624F4E886F9860A87FB
:105180001B87DF91CF911F910F91FF90EF900895B2
:105190000FB6F8948091E2109091E310A091E41082
:1051A000B091E5100FBE20911E0630911F06409170
:1051B000200650912106821B930BA40BB50B845C37
:1051C0009940A040B04008F45AC00FB6F8948091BE
:1051D000E2109091E310A091E410B091E5100FBEA1
:1051E00080931E0690931F06A0932006B09321067D
:1051F000679B0AC0669B08C0379B06C08091E60F7C
:10520000882311F4339913C00FB6F8948091E210FB
:105210009091E310A091E410B091E5100FBE80933F
:105220001A0690931B06A0931C06B0931D060FB69A
:10523000F8948091E2109091E310A091E410B09165
:10524000E5100FBE20911A0630911B0640911C06F6
:1052500050911D06821B930BA40BB50B80599F45E3
:10526000A140B04028F4211531054105510521F434
:105270007198699A71980895719A699A719A0895C6
:1052800080910C0608950F931F93CF93DF93813085
:10529000910549F46F5F7F4F09F046C08CE593E0BC
:1052A0000E94E81B41C0892B09F03EC06F5F7F4F11
:1052B000D9F58CE393E090930F0580930E058091D0
:1052C0001305882321F080E195E00E940576CCEC5F
:1052D000D4E00CE313E005C06D9783E0CA3AD80729
:1052E00051F0198308838D818823B1F3CE01029692
:1052F0000E940576F1CF8CE393E0998388838D81BA
:10530000882321F0CE0102960E9405768CE393E07B
:1053100090938C0380938B0380919003882321F0DA
:105320008DE893E00E940576DF91CF911F910F9158
:10533000089580E090E06FEF7FEFA5CF81E090E0EF
:105340006FEF7FEFA0CFCF93DF930E94178D8091F7
:105350000C06882309F034C081E080930C0680910C
:10536000230690912406A0912506B09126068093ED
:10537000270690932806A0932906B0932A06EAE60A
:10538000F5E06491EF0107C08BEE90E10E94BE1141
:105390002196FE0164916623B9F7E1E7F5E0649197
:1053A000EF0107C08BEE90E10E94BE112196FE0135
:1053B00064916623B9F78BEE90E16AE00E94BE111A
:1053C000DF91CF910895CF93DF93F8940E94178DCA
:1053D000779A1092FE05769A1092FF05479A1092DE
:1053E0000006439AEAE6F5E06491EF0107C08BEE10
:1053F00090E10E94BE112196FE0164916623B9F7E7
:10540000E7EEF5E06491EF0107C08BEE90E10E94BA
:10541000BE112196FE0164916623B9F78BEE90E1EF
:105420006AE00E94BE11FFCF4F925F926F927F920F
:105430008F929F92AF92BF92CF92DF92EF92FF92A4
:105440000F931F93DF93CF9300D000D0CDB7DEB77B
:1054500083E396E00BDE0FB6F8948091E210909112
:10546000E310A091E410B091E5100FBE80932B06DD
:1054700090932C06A0932D06B0932E0680913306B0
:1054800090913406A0913506B091360689839A83AF
:10549000AB83BC836091D6057091D7058091D80508
:1054A0009091D90529813A814B815C810E947CAA27
:1054B000882309F09DC040903706509038066090D0
:1054C000390670903A066091DA057091DB0580919B
:1054D000DC059091DD05A30192010E947CAA88233E
:1054E00009F086C000D0CDB6DEB60894C11CD11C30
:1054F000E0903B06F0903C0600913D0610913E0680
:1055000060916F02709170028091710290917202AD
:1055100020E030E040E752E40E9483AA4B015C01A6
:1055200081E096E0D6018D939C9369817A818B818D
:105530009C81A3019201EFE3CE2EE6E0DE2E0E94D5
:1055400006650F900F908091330690913406A091DC
:105550003506B09136068093D6059093D705A09373
:10556000D805B093D9058091370690913806A0915F
:105570003906B0913A068093DA059093DB05A09343
:10558000DC05B093DD0580913B0690913C06A0912F
:105590003D06B0913E068093DE059093DF05A09313
:1055A000E005B093E10580913F0690914006A091FF
:1055B0004106B09142068093E2059093E305A093E3
:1055C000E405B093E5050F900F900F900F90CF91E9
:1055D000DF911F910F91FF90EF90DF90CF90BF90E0
:1055E000AF909F908F907F906F905F904F900895B5
:1055F00000D0CDB6DEB60894C11CD11C4090370651
:10560000509038066090390670903A06E0903B065C
:10561000F0903C0600913D0610913E0660914202DA
:1056200070914302882777FD8095982F0E941EABCA
:1056300020916F023091700240917102509172027C
:105640000E945CAD20E030E040E752E40E9483AA73
:1056500020E030E048EC52E40E9483AA4B015C0158
:1056600081E096E0F601918380835FCF4F925F9255
:105670006F927F928F929F92AF92BF92CF92DF9262
:10568000EF92FF920F931F9340906F025090700221
:1056900060907102709072020F2EF0E0AF2EF0E475
:1056A000BF2EFCE9CF2EF6E4DF2EF02DA0926F0284
:1056B000B0927002C0927102D09272026093D605CD
:1056C0007093D7058093D8059093D9052093DA0578
:1056D0003093DB054093DC055093DD05E092DE0559
:1056E000F092DF050093E0051093E10500D0E1E0C2
:1056F000F6E0ADB7BEB71296FC93EE931197F2EEBB
:10570000CF2EF5E0DF2E0F2EFBEA8F2EFAEA9F2E2A
:10571000F6EAAF2EF3E4BF2EF02D0E9406650F903F
:105720000F900E94438540926F02509270026092E7
:105730007102709272021F910F91FF90EF90DF90B3
:10574000CF90BF90AF909F908F907F906F905F9021
:105750004F9008952F923F924F925F926F927F9257
:105760008F929F92AF92BF92CF92DF92EF92FF9271
:105770000F931F93DF93CF93CDB7DEB761970FB62B
:10578000F894DEBF0FBECDBF0FB6F8948091E21043
:105790009091E310A091E410B091E5100FBEE0905D
:1057A0002F06F090300600913106109132062091BC
:1057B0002B0630912C0640912D0650912E06821B0F
:1057C000930BA40BB50BE816F9060A071B0730F478
:1057D000E114F1040105110509F0F5DDE0906B021B
:1057E000F0906C0200916D0210916E02E114F104D0
:1057F0000105110561F10FB6F8948091E2109091C6
:10580000E310A091E410B091E5100FBE20912B069B
:1058100030912C0640912D0650912E06821B930B41
:10582000A40BB50BE816F9060A071B0780F4909144
:105830002E0D80912F0D981751F4779A1092FE0536
:10584000769A1092FF05479A10920006439AA0DCC0
:105850000FB6F8946091E2107091E3108091E4101B
:105860009091E5100FBE20912B0630912C064091AF
:105870002D0650912E06621B730B840B950B0E9414
:105880001CAB20E030E64AEE57E40E948AAC1816C2
:105890000CF0C2C0E0910106F0E0EE0FFF1FEE0F2A
:1058A000FF1FE452F04F608171818281938120E07B
:1058B00030E046E653E40E948AAC18160CF0ACC007
:1058C00086B1898B4398A090E205B090E305C09023
:1058D000E405D090E505A982BA82CB82DC82809172
:1058E0003F0690914006A0914106B09142068987FB
:1058F0009A87AB87BC872090D6053090D70540901B
:10590000D8055090D9058091DA059091DB05A091DA
:10591000DC05B091DD058D879E87AF87B88BE09061
:10592000DE05F090DF050091E0051091E105609043
:105930000D0870900E0880900F089090100860E09D
:1059400070E088E493E4A40193010E9483AA9B0180
:10595000AC01C601B5010E94A3A96D837E838F832C
:10596000988700D0CDB6DEB60894C11CD11C65E581
:1059700075E585ED91E4A40193010E9483AA4B0192
:105980005C0181E096E0D6018D939C93C201B10148
:105990002D853E854F855889A5E0CA2ED12CCC0E89
:1059A000DD1E0E94066589819A81AB81BC8180934E
:1059B000E2059093E305A093E405B093E50589859E
:1059C0009A85AB85BC8580933F0690934006A09353
:1059D0004106B09342060F900F90CE0101960E94AF
:1059E000485F0FB6F8948091E2109091E310A09177
:1059F000E410B091E5100FBE80932B0690932C0617
:105A0000A0932D06B0932E060E944385998993FF9B
:105A100002C0439A01C043980E94845E61960FB60B
:105A2000F894DEBF0FBECDBFCF91DF911F910F91D4
:105A3000FF90EF90DF90CF90BF90AF909F908F90AE
:105A40007F906F905F904F903F902F9008956F924E
:105A50007F928F929F92AF92BF92CF92DF92EF92FE
:105A6000FF920F931F93F82E6091430670914406A6
:105A70008091450690914606209147063091480650
:105A80004091490650914A060E9497AC3B014C0157
:105A900000D000D000D00DB71EB70F5F1F4F609130
:105AA000420270914302882777FD8095982F0E94CB
:105AB0001EAB20916F0230917002409171025091A3
:105AC00072020E945CAD20E030E040E752E40E94A8
:105AD00083AA20E030E048EC52E40E9483AA5B01F4
