:100000000C94A30B0C94CE0B0C94CE0B0C94CE0B37
:100010000C94CE0B0C94CE0B0C94CE0B0C94CE0BFC
:100020000C94CE0B0C94CE0B0C949BA50C9414A4A6
:100030000C94CE0B0C94CE0B0C94CE0B0C94CE0BDC
:100040000C94CE0B0C94A0840C94CE0B0C94CE0B81
:100050000C94CE0B0C94CE0B0C94538D0C94D7A215
:100060000C94CE0B0C94CE0B0C94CE0B0C94CE0BAC
:100070000C94CE0B0C94CE0B0C94CE0B0C94CE0B9C
:100080000C94CE0B0C94CE0B0C94CE0B0C94CE0B8C
:100090000C94039F0C94CE0B084AD73B3BCE016EC9
:1000A00084BCBFFDC12F3D6C74319ABD56833DDACF
:1000B0003D00C77F11BED9E4BB4C3E916BAAAABEDE
:1000C000000000803F05A84CCDB2D44EB93836A907
:1000D000020C50B9918688083CA6AAAA2ABE000044
:1000E00000803F4D383420582059205A2045006563
:1000F00063686F3A0043616E6E6F7420656E74655D
:1001000072207375626469723A20004D3234004D7A
:100110003233202573006175746F25692E670045A1
:1001200072726F723A006572726F722077726974C0
:10013000696E6720746F2066696C65004E6F74206D
:100140005344207072696E74696E67002F005344C7
:10015000207072696E74696E672062797465200020
:100160002E0044656C6574696F6E206661696C650C
:10017000642C2046696C653A200046696C652064F1
:10018000656C657465643A002E006F70656E20665C
:1001900061696C65642C2046696C653A2000577271
:1001A0006974696E6720746F2066696C653A200017
:1001B0002E006F70656E206661696C65642C204648
:1001C000696C653A20002E006F70656E206661696B
:1001D0006C65642C2046696C653A200046696C6544
:1001E0002073656C6563746564002053697A653AB1
:1001F000200046696C65206F70656E65643A20006A
:100200002E006F70656E206661696C65642C2046F7
:10021000696C653A20004E6F7720667265736820BE
:1002200066696C653A20004E6F7720646F696E676F
:100230002066696C653A20002220706F73002220CE
:10024000706172656E743A2200535542524F555494
:10025000494E452043414C4C207461726765743AA5
:100260002200747279696E6720746F2063616C6C10
:10027000207375622D67636F64652066696C6573B2
:10028000207769746820746F6F206D616E79206CBF
:100290006576656C732E204D4158206C6576656CD3
:1002A0002069733A0053442063617264206F6B00CD
:1002B0006F70656E526F6F74206661696C65640063
:1002C000766F6C756D652E696E6974206661696CF8
:1002D000656400534420696E6974206661696C002E
:1002E0006563686F3A0048617264636F6465642097
:1002F00044656661756C742053657474696E6773C8
:10030000204C6F616465640053746F726564207380
:10031000657474696E677320726574726965766559
:100320006400205A0020590020204D3231322058DC
:10033000004265642070726F6265206F6666736547
:100340007420286D6D293A00205A00205900202081
:100350004D3231312058004D617820706F736974CF
:10036000696F6E20286D6D293A00205A00205900CF
:1003700020204D3231302058004D696E20706F734F
:100380006974696F6E20286D6D293A002044002041
:1003900049002020204D3330312050005049442066
:1003A00073657474696E67733A00205A00205900AF
:1003B00020204D323036205800486F6D65206F6622
:1003C0006673657420286D6D293A00204500205A17
:1003D0000020580020420020540020204D323035AB
:1003E000205300416476616E6365642076617269B2
:1003F00061626C65733A20533D4D696E2066656598
:10040000647261746520286D6D2F73292C20543D12
:100410004D696E2074726176656C206665656472E4
:1004200061746520286D6D2F73292C20423D6D6904
:100430006E696D756D207365676D656E7420746986
:100440006D6520286D73292C20583D6D6178696D8C
:10045000756D205859206A65726B20286D6D2F7359
:10046000292C20205A3D6D6178696D756D205A20C8
:100470006A65726B20286D6D2F73292C2020453DF5
:100480006D6178696D756D2045206A65726B2028F5
:100490006D6D2F73290020540020204D3230342000
:1004A0005300416363656C65726174696F6E3A20D5
:1004B000533D616363656C65726174696F6E2C2076
:1004C000543D7265747261637420616363656C6529
:1004D000726174696F6E00204500205A0020590037
:1004E00020204D3230312058004D6178696D756D96
:1004F00020416363656C65726174696F6E20286D5D
:100500006D2F7332293A00204500205A00205900EF
:1005100020204D3230332058004D6178696D756D63
:100520002066656564726174657320286D6D2F7334
:10053000293A00204500205A0020590020204D393A
:100540003220580053746570732070657220756E88
:1005500069743A0053657474696E67732053746FDD
:10056000726564006563686F3A004572726F723A33
:10057000005072696E7465722073746F7070656478
:100580002064756520746F206572726F72732E20FF
:1005900046697820746865206572726F7220616E9A
:1005A0006420757365204D39393920746F20726568
:1005B00073746172742E202854656D706572617455
:1005C0007572652069732072657365742E2053659A
:1005D0007420697420616674657220726573746139
:1005E0007274696E6729005072696E746572206852
:1005F000616C7465642E206B696C6C2829206361C2
:100600006C6C656421006F6B00526573656E643AB3
:1006100020002200556E6B6E6F776E20636F6D6DDC
:10062000616E643A2022007A5F6D696E3A2000792B
:100630005F6D61783A2000785F6D696E3A20005AEC
:100640003A00593A0020436F756E7420583A2000E2
:10065000453A005A3A00593A00583A002053455258
:1006600049414C5F4E554D4245523A200020455875
:100670005452554445525F434F554E543A20002042
:100680004D414348494E455F545950453A2000205A
:1006900050524F544F434F4C5F56455253494F4E63
:1006A0003A2000204649524D574152455F55524C21
:1006B0003A20004649524D574152455F4E414D4503
:1006C0003A204D61726C696E2056310020423A002A
:1006D00020453A00543A0020573A0020453A005449
:1006E0003A002042403A0020403A00202F003A00D1
:1006F000205400202F0020423A00202F006F6B2052
:10070000543A002569206D696E2C20256920736597
:100710006300456E642066696C65206C69737400C3
:10072000426567696E2066696C65206C6973740048
:100730000A00205A3A200020593A200042656420DD
:10074000506F736974696F6E20583A20000A002058
:100750007A3A200020793A200042656420783A20D5
:10076000000A00207A3A200020793A20004265648D
:1007700020783A20000A00207A3A200020793A2096
:100780000042656420783A20005A50726F626520FA
:100790004F7574736964652042656400486F6D65C8
:1007A00020582F59206265666F7265205A00FF013C
:1007B000FF0000A0400000A040000040402569204C
:1007C000686F757273202569206D696E7574657325
:1007D00000446F6E65207072696E74696E67206682
:1007E000696C65005072696E7465722073746F7005
:1007F0007065642064756520746F206572726F7215
:10080000732E2046697820746865206572726F7255
:1008100020616E6420757365204D39393920746FFD
:1008200020726573746172742E202854656D706532
:100830007261747572652069732072657365742EB8
:100840002053657420697420616674657220726536
:100850007374617274696E6729006F6B004E6F204C
:100860004C696E65204E756D62657220776974689B
:1008700020636865636B73756D2C204C6173742005
:100880004C696E653A20004E6F20436865636B7358
:10089000756D2077697468206C696E65206E756D62
:1008A0006265722C204C617374204C696E653A202D
:1008B00000636865636B73756D206D69736D61743A
:1008C00063682C204C617374204C696E653A20007B
:1008D0004C696E65204E756D626572206973206E7D
:1008E0006F74204C617374204C696E65204E756D79
:1008F0006265722B312C204C617374204C696E65DB
:100900003A20004D31313000446F6E6520736176BE
:10091000696E672066696C652E006F6B004D323919
:10092000002020506C616E6E65724275666665725D
:1009300042797465733A20002046726565204D65E2
:100940006D6F72793A20004170722032302032305F
:10095000313800436F6D70696C65643A20005072E5
:10096000696E7472626F7400207C20417574686FC8
:10097000723A2000417072203230203230313820FB
:1009800031303A31353A313300204C61737420559F
:100990007064617465643A2000312E302E30004D51
:1009A00061726C696E200020536F667477617265A6
:1009B00020526573657400205761746368646F67C3
:1009C000205265736574002042726F776E206F75D8
:1009D00074205265736574002045787465726E6189
:1009E0006C20526573657400506F776572557000A6
:1009F0007374617274002200656E717565696E674B
:100A00002022002200656E717565696E67202200E4
:100A10006563686F3A0020746F6F206C6F6E67209B
:100A2000657874727573696F6E2070726576656E25
:100A30007465640020636F6C6420657874727573EC
:100A4000696F6E2070726576656E746564007C3CBB
:100A50003E5E2B3D3F2F5B5D3B2C2A225C004531E7
:100A60003A200045303A20005A3A2000593A2000F6
:100A7000583A20004D53312C4D53322050696E733B
:100A80000A006563686F3A0028002920453A00286B
:100A90000029205A3A0028002920593A002800202D
:100AA000583A005374657070657220637572726590
:100AB0006E742076616C756573205B252872617792
:100AC000295D3A0024F404D9201BC40C5C0E980460
:100AD000C4095F0265077101F405F900FB04B30066
:100AE00048048700C103690058035500030345000B
:100AF000BE023A008402310053022A002902250076
:100B000004022000E4011C00C8011900AF01170015
:100B1000980114008401130071011000610110009C
:100B200051010E0043010D0036010B002B010B009B
:100B300020010B00150109000C0109000301080048
:100B4000FB000800F3000800EB000700E4000600CB
:100B5000DE000600D8000600D2000600CC0005002A
:100B6000C7000500C2000500BD000400B900040074
:100B7000B5000400B1000400AD000400A9000400A9
:100B8000A5000300A20003009F0004009B000300D7
:100B900098000300950002009300030090000300FA
:100BA0008D0002008B000300880002008600020016
:100BB00084000300810002007F0002007D0002002B
:100BC0007B0002007900020077000100760002003D
:100BD0007400020072000100710002006F00020048
:100BE0006D0001006C0002006A0001006900020053
:100BF000670001006600010065000100640002005A
:100C00006200010061000100600001005F0002005D
:100C10005D0001005C0001005B0001005A00010062
:100C20005900010058000100570001005600010062
:100C30005500010054000100530000005300010062
:100C40005200010051000100500001004F0001005E
:100C50004E0000004E0001004D0001004C0001005C
:100C60004B0000004B0001004A0001004900010058
:100C70004800000048000100470001004600000055
:100C8000460001004500000045000100440001004D
:100C90004300000043000100420000004200010048
:100CA0004100000041000100400001003F00000041
:100CB0003F0001003E0000003E0001003D0000003A
:100CC0003D0001003C0000003C0000003C00010031
:100CD0003B0000003B0001003A0000003A00010028
:100CE0003900000039000100380000003800000021
:100CF0003800010037000000370001003600000016
:100D0000360000003600010035000000350000000C
:100D10003500010034000000340000003400010000
:100D200033000000330000003300010032000000F7
:100D300032000000320001003100000031000000EC
:100D400031000100300000003000000030000100E0
:100D50002F0000002F0000002F0000002F000100D6
:100D60002E0000002E0000002E0001002D000000CB
:100D70002D0000002D0000002D0001002C000000BF
:100D80002C0000002C0000002C0001002B000000B3
:100D90002B0000002B0000002B0001002A000000A7
:100DA0002A0000002A0000002A000100290000009B
:100DB000290000002900000029000000290001008E
:100DC0002800000028000000280000002800000083
:100DD0002800010027000000270000002700000075
:100DE0002700000027000100260000002600000068
:100DF000260000002600000026000100250000005B
:100E0000250000002500000025000000250000004E
:100E10002500010024000000240000002400000040
:100E20002400000024000100230000002300000033
:100E30002300000023000000230000002300000026
:100E40002300010022000000220000002200000018
:100E5000220000002200000022000100210000000A
:100E600021000000210000002100000021000000FE
:100E700021000000210001002000000020000000EF
:100E800020000000200000002000000020000000E2
:100E900020000000200001001F0000001F000000D3
:100EA0001F0000001F0000001F0000001F000000C6
:100EB0001F0001001E0000001E0000001E000000B8
:100EC0001E00000024F4D43050C38E20C2A240176C
:100ED000828B7011127A910D816CD90AA861E10898
:100EE000C7586607615143061E4B5D05C145A704FF
:100EF0001A411104093D9803713931034036DB0270
:100F000065339102D4305402802E1D02632CEE0111
:100F1000752AC501B028A001102781018F25640121
:100F20002B244B01E0223401AC211F018D200D0147
:100F3000801FFC00841EED00971DDF00B81CD2004E
:100F4000E61BC600201BBC00641AB200B219A80040
:100F50000A19A0006A189900D117910040178B0058
:100F6000B516840031167E00B31579003A1573006A
:100F7000C7146F0058146A00EE13660088136300EC
:100F800025135E00C7125B006C1257001512540047
:100F9000C111510070114F0021114B00D6104900B2
:100FA0008D1047004610440002104200C00F400060
:100FB000800F3E00420F3C00060F3B00CB0E380076
:100FC000930E37005C0E3500270E3400F30D32000F
:100FD000C10D3100900D3000600D2E00320D2D003E
:100FE000050D2C00D90C2B00AE0C2900850C290016
:100FF0005C0C2700350C27000E0C2600E80B2400A3
:10100000C40B2400A00B23007D0B23005A0B2100EE
:10101000390B2100180B2000F80A1F00D90A1E0006
:10102000BB0A1E009D0A1D00800A1D00630A1C00E9
:10103000470A1B002C0A1B00110A1A00F7091A00A4
:10104000DD091900C4091900AB091900920917003C
:101050007B091800630917004C09160036091600B1
:10106000200916000A091500F5081500E00814000B
:10107000CC081400B8081400A40814009008130049
:101080007D0812006B081300580812004608120071
:101090003408110023081100120811000108110082
:1010A000F0071000E0071000D0071000C007100084
:1010B000B0070F00A107100091070E0083070F0073
:1010C00074070F0065070E0057070E0049070E0052
:1010D0003B070D002E070E0020070D0013070D0023
:1010E00006070D00F9060C00ED060D00E0060C00E9
:1010F000D4060C00C8060C00BC060C00B0060C00A0
:10110000A4060B0099060C008D060B0082060B004E
:1011100077060B006C060B0061060A0057060B00F1
:101120004C060A0042060A0038060A002E060A008B
:1011300024060A001A060A001006090007060A001B
:10114000FD050900F4050900EB050900E2050900A9
:10115000D9050900D0050900C7050900BE05090029
:10116000B5050800AD050800A50509009C050800A7
:10117000940508008C050800840508007C0508001B
:10118000740508006C050700650508005D0507008B
:10119000560508004E0507004705070040050800F2
:1011A00038050700310507002A0507002305070059
:1011B0001C050600160507000F05070008050600B8
:1011C00002050700FB040600F5040700EE04060014
:1011D000E8040600E2040700DB040600D50406006C
:1011E000CF040600C9040600C3040600BD040600BF
:1011F000B7040600B1040500AC040600A60406000E
:10120000A00405009B040600950405009004060058
:101210008A04050085040500800406007A040500A0
:1012200075040500700405006B04050066040500E4
:10123000610405005C040500570405005204050024
:101240004D04050048040500430405003E04040065
:101250003A04050035040500300404002C040500A0
:1012600027040400230405001E0404001A040400DB
:1012700016040500110404000D040400090405000F
:101280000404040000040400FC030400F803040048
:10129000F4030400F0030400EC030400E80304007A
:1012A000E4030400E0030400DC030400D8030400AA
:1012B000D4030400D0030400CC030400C8030300DB
:1012C000C503030020453A00205A3A0020593A004D
:1012D00020583A00656E6473746F70732068697487
:1012E0003A20004572726F723A0054656D706572F3
:1012F00061747572652068656174656420626564F7
:10130000207377697463686564206F66662E204D6C
:10131000415854454D502074726967676572656421
:10132000202121003A20457874727564657220731B
:1013300077697463686564206F66662E204D494E38
:1013400054454D5020747269676765726564202149
:10135000003A2045787472756465722073776974F9
:1013600063686564206F66662E204D415854454D74
:101370005020747269676765726564202100202DB2
:1013800020496E76616C6964206578747275646555
:1013900072206E756D6265722021001000C00260BF
:1013A00003D800B006AF00000A9800500D8900A0D5
:1013B000107D00F013730040176A00901A6300E07C
:1013C0001D5B003021550080244E00D027470020AF
:1013D0002B4100702E3A00C031320010352A0060D7
:1013E000381F00B03B1100003F000050494420412D
:1013F00075746F74756E652066696E69736865646F
:10140000212050757420746865204B702C204B6926
:1014100020616E64204B6420636F6E7374616E7420
:101420007320696E746F20436F6E666967757261B1
:1014300074696F6E2E6800504944204175746F7452
:10144000756E65206661696C6564212074696D65DF
:101450006F75740020403A006F6B20543A006F6B38
:1014600020423A00504944204175746F74756E658E
:10147000206661696C6564212054656D70657261D8
:101480007475726520746F6F206869676800204BFF
:10149000643A2000204B693A2000204B703A20002B
:1014A00020436C61736963205049442000205475C7
:1014B0003A2000204B753A2000206D61783A2000D8
:1014C000206D696E3A200020643A20002062696134
:1014D000733A200070012C0190012701B001220114
:1014E000C0011D01F00118011002130130020E01AC
:1014F0006002090190020401C002FF000003FA002B
:101500004003F5008003F000D003EB002004E60068
:101510007004E100E004DC004005D700C005D20003
:101520004006CD00D006C8008007C3003008BE00CA
:10153000F008B900C009B400B00AAF00B00BAA00AF
:10154000D00CA500000EA000500F9B00C01096000C
:101550005012910000148C00C0158700B017820053
:10156000B0197D00D01B7800001E730040206E0073
:1015700090226900F024640040275F0090295A00FF
:10158000E02B5500102E500020304B00103246004A
:10159000E033410090353C0010373700703832009E
:1015A000A0392D00B03A2800A03B2300603C1E006B
:1015B000103D1900903D1400103E0F00703E0A00CF
:1015C000C03E0500003F0000012902290429082926
:1015D0001029202940298029012C022C01260226CD
:1015E000042608261026202640268026402C802C03
:1015F00001230223042308231023202340238023D4
:1016000001200220042008201020202040208020DB
:10161000102C202C012F022F042F082F102F202FE9
:10162000402F802F7EFE7EFD7EFB7EF77EEF7EDFED
:101630007EBF7E7F00010000681612000200007A63
:10164000164300030000BD160401030904C1161867
:1016500002030904DB161603030904F3160C000148
:10166000C102018036018136120100020200002011
:10167000C0168304000101020301090243000201B4
:1016800000C032090400000102020100052400101C
:1016900001052401000104240206052406000107B7
:1016A00005820308004009040100020A0000000747
:1016B00005030240000007058402400000040309FE
:1016C0000418035400650065006E0073007900641F
:1016D00000750069006E006F00000016035500538E
:1016E0000042002000530065007200690061006C38
:1016F0000000000C033100320033003400350000DC
:1017000000494E46494E4954594E414ECDCCCC3DF0
:101710000AD7233C17B7D13877CC2B329595E624DE
:101720001FB14F0A000020410000C84200401C4683
:1017300020BCBE4CCA1B0E5AAEC59D749C28C582E7
:10174000819D5CA9952811241FBECFEFD0E2DEBF9A
:10175000CDBF13E0A0E0B1E0E4E8FEE501E00BBF9F
:1017600002C007900D92A03AB107D9F71BBE11E154
:10177000A0EAB3E001C01D92AF34B107E1F717E171
:10178000C4E4D7E104C02297FE010E94E7AECC3347
:10179000D107C9F70E941AA60C9435AF0C9400002B
:1017A000A0E0B0E0E6EDFBE00C9404AFEC015B01DF
:1017B0006115710519F0FB0191838083F9908F2DDC
:1017C00090E00E94EBAE892BC9F7FDE2FF1621F4F1
:1017D000F990EE24E39405C02BE2F21609F4F99097
:1017E000EE248E0101501040C80161E077E143E032
:1017F00050E00E94660E892B01F58E010E5F1F4F8F
:10180000C80164E077E145E050E00E94660E892B54
:1018100019F48E01095F1F4FA114B10419F0F501ED
:1018200011830083E0FC04C070E090E080E814C005
:1018300070E090E080E86FEF08C1C80169E077E1EF
:1018400043E050E00E94660E892B69F4A114B104B4
:1018500029F470E090E080EC6FE7F7C02296F50184
:10186000D183C083F6CF8824992440E050E060E023
:1018700070E0EF2DE053EA30A0F5F2E0EF2A8E2D74
:1018800090E09C0128703070E2FE06C0232B79F5B1
:101890000894811C911C2BC0232B19F008948108FB
:1018A0009108DB01CA0112E0880F991FAA1FBB1F14
:1018B0001A95D1F7480F591F6A1F7B1F440F551FF8
:1018C000661F771F4E0F511D611D711D483929E993
:1018D000520729E9620729E1720748F084E0E82A03
:1018E00006C0EE3F31F4E3FC39C098E0E92AF990F4
:1018F000C0CFE53311F0E53189F529912D3219F486
:10190000E0E1EE2A05C02B3219F081E090E003C03F
:10191000299182E090E0E22FE053EA3018F0C81BF2
:10192000D90B1CC020E030E0FCE020383F075CF41D
:10193000C901880F991F880F991F280F391F220F7F
:10194000331F2E0F311DE991E053EA3068F3E4FEB6
:1019500003C0309521953F4F820E931ECE2CDD247F
:10196000E1FE07C0A114B10421F02197F501D18354
:10197000C083CB01BA010E9450AB7B018C01F3E024
:10198000CF22DD2423E0C216D10421F417FB1095E9
:1019900017F9109557016801C801B70120E030E040
:1019A00040E050E00E94B0AA882309F44AC097FEA4
:1019B0000DC020E2E22E27E1F22E9094819491084E
:1019C0009394C0E2D0E000E010E012C098E3E92E6A
:1019D00097E1F92EF6CFF701259135914591549174
:1019E000C601B5010E9490AD5B016C018C1A9D0A85
:1019F0008C169D0684F7D595C7950F5F1F4F06304F
:101A0000110529F08CEF9FEFE80EF91EF1CFC5010B
:101A1000D6017C018D018C2D880F8D2D881F8F3F65
:101A200051F0C601B50120E030E040E050E00E94F6
:101A3000B0AA882331F482E290E090934E11809313
:101A40004D117E2D9F2D802F612F272F392F482F4D
:101A5000562FB901CA01CDB7DEB7ECE00C9420AF28
:101A60002F923F925F926F927F928F929F92AF924E
:101A7000BF92CF92DF92EF92FF920F931F93CF937B
:101A8000DF938C011B01EA016115710519F0FB015F
:101A900091838083209749F0CE010297839728F0A5
:101AA00020E030E040E050E0F6C0F801A1908F0166
:101AB0008A2D90E00E94EBAE892BB9F7FDE2AF16BC
:101AC00031F4F801A1908F015524539407C0FBE233
:101AD000AF1619F4F801A1908F015524209719F041
:101AE000C031D105C1F4F0E3AF1679F4F80180817B
:101AF000883711F0883549F4F801A1800E5F1F4F37
:101B0000F2E05F2AC0E1D0E006C0209721F480E334
:101B1000A816E9F427C0C830D10531F1C930D10584
:101B200024F4C230D10531F50CC0CA30D10589F09A
:101B3000C031D105F9F4C12CD12CE12CB8E0FB2E39
:101B400028C0C12CD12CE12CA0E4FA2E22C0CAE07E
:101B5000D0E0FCECCF2EFCECDF2EFCECEF2EFCE01A
:101B6000FF2E17C0C8E0D0E0C12CD12CE12CE0E161
:101B7000FE2E0FC09E01442737FD4095542F60E094
:101B800070E080E090E80E94A8AEC901DA016C0123
:101B90007D0120E030E040E050E060E03E0188243C
:101BA00077FC8094982C70EDB72EBA0CE9E0EB1519
:101BB00070F48A2D81548A3118F499ECB92E06C03C
:101BC0008A2D81568A3150F589EAB82EBA0C8B2DB0
:101BD00090E08C179D0714F56F3FE1F0C216D30615
:101BE000E406F506B0F0CA01B901A40193010E9410
:101BF00062AE9B01AC012B0D311D411D511D2130E9
:101C0000F0E03F07F0E04F07F0E85F0710F461E015
:101C100001C06FEFF801A1908F01C5CF21143104ED
:101C200081F0662331F001501040F10111830083EF
:101C300008C051FE1AC002501040F1011183008308
:101C400014C067FF12C050FC05C02FEF3FEF4FEFED
:101C50005FE704C020E030E040E050E882E290E03E
:101C600090934E1180934D1116C050FE08C05095B0
:101C70004095309521953F4F4F4F5F4F0CC057FF18
:101C80000AC082E290E090934E1180934D112FEFA5
:101C90003FEF4FEF5FE7B901CA01DF91CF911F918D
:101CA0000F91FF90EF90DF90CF90BF90AF909F90FB
:101CB0008F907F906F905F903F902F900895FB01E1
:101CC000DC0105900D920020E1F70895FB01DC0195
:101CD0004150504088F08D9181341CF08B350CF4CC
:101CE000805E659161341CF06B350CF4605E861B80
:101CF000611171F3990B0895881BFCCFFB0155917D
:101D00005523A9F0BF01DC014D9145174111E1F7C1
:101D100059F4CD010590002049F04D914015411135
:101D2000C9F3FB014111EFCF81E090E001970895E5
:101D3000FB01DC0104C08D910190801921F4415018
:101D40005040C8F7881B990B0895FB01DC0102C0C5
:101D500001900D9241505040D8F70895FB01DC01ED
:101D60000D900020E9F7119701900D920020E1F706
:101D70000895FC018191861721F08823D9F79927CE
:101D800008953197CF010895FB01DC0101900D9278
:101D90000020E1F70895FB01DC014150504030F094
:101DA0008D910190801919F40020B9F7881B990BC7
:101DB0000895FB01DC014150504048F001900D9224
:101DC0000020C9F701C01D9241505040E0F708952E
:101DD000AEE0B0E0EEEEFEE00C940CAF0D891E8993
:101DE0008EE08C831A8309838FEF9FE79E838D8318
:101DF0009E01275E3F4FCE0101966F89788DA90124
:101E00000E940C0F2F813885020F131FF8011082DA
:101E10002E96E4E00C9428AFABE0B0E0E2E1FFE006
:101E20000C94FEAE3C012B015A01FC011782168274
:101E3000838181FD03C06FEF7FEFC6C19AE0892ED9
:101E40001E010894211C311CF3012381F20123FDA2
:101E5000859123FF81912F01882309F4B2C1853236
:101E600039F423FD859123FF81912F01853229F4D7
:101E700090E0B3010E94FF10E7CF982FFF24EE24DB
:101E80009924FFE1FF15D0F09B3269F09C3228F4D1
:101E9000903259F0933291F40EC09D3249F0903354
:101EA00069F441E024C052E0F52A84E0F82A28C011
:101EB00098E0F92A25C0E0E1FE2A22C0F7FC29C0FB
:101EC000892F80538A3070F4F6FE05C0989C902CC0
:101ED0001124980E15C0E89CE02C1124E80EF0E2C5
:101EE000FF2A0EC09E3229F4F6FC6BC140E4F42AAE
:101EF00007C09C3619F450E8F52A02C0983649F418
:101F0000F20123FD959123FF91912F01992309F06F
:101F1000B8CF892F8554833018F08052833038F43D
:101F200044E050E0A40EB51E5FE359830FC0933622
:101F300031F0933779F0933509F056C020C0F501A0
:101F40008081898342E050E0A40EB51E610101E06A
:101F500010E012C0F501C080D180F6FC03C06FEF25
:101F60007FEF02C0692D70E042E050E0A40EB51E84
:101F7000C6010E94F4108C015FE7F52214C0F50140
:101F8000C080D180F6FC03C06FEF7FEF02C0692DE7
:101F900070E042E050E0A40EB51EC6010E94E910B8
:101FA0008C0150E8F52AF3FE07C01AC080E290E0E9
:101FB000B3010E94FF10EA948E2D90E008171907D4
:101FC000A8F30EC0F601F7FC8591F7FE81916F0131
:101FD00090E0B3010E94FF10E110EA94015010401C
:101FE0000115110579F7EAC0943611F0993669F5B3
:101FF000F7FE08C0F501208131814281538184E0E0
:1020000090E00AC0F501808191819C01442737FD51
:102010004095542F82E090E0A80EB91E9FE6F92269
:1020200057FF09C050954095309521953F4F4F4F30
:102030005F4FE0E8FE2ACA01B901A1012AE030E0C1
:102040000E942B11D82ED21840C0953729F41F2D8D
:102050001F7E2AE030E01DC01F2D197F9F3661F0E2
:10206000903720F4983509F0ACC00FC0903739F0A4
:10207000983709F0A6C004C028E030E00AC010611B
:1020800014FD146020E130E004C014FD166020E16E
:1020900032E017FF08C0F501608171818281938170
:1020A00044E050E008C0F50180819181BC0180E0EE
:1020B00090E042E050E0A40EB51EA1010E942B1159
:1020C000D82ED2188FE7F82EF122F6FE0BC05EEF65
:1020D000F522D91438F4F4FE07C0F2FC05C08FEEE7
:1020E000F82202C01D2D01C0192DF4FE0DC0FE0105
:1020F000ED0DF11D8081803319F499EEF92208C0AD
:102100001F5FF2FE05C003C08F2D867809F01F5FA8
:102110000F2DF3FC14C0F0FE0FC01E1510F09D2C07
:102120000BC09D2C9E0C911A1E2D06C080E290E0E3
:10213000B3010E94FF101F5F1E15C0F304C01E15DF
:1021400010F4E11A01C0EE2404FF0FC080E390E018
:10215000B3010E94FF1002FF1DC001FD03C088E70C
:1021600090E00EC088E590E00BC0802F867891F05B
:1021700001FF02C08BE201C080E2F7FC8DE290E03B
:10218000B3010E94FF1006C080E390E0B3010E94FB
:10219000FF109A94D914C0F3DA94F101ED0DF11DFA
:1021A000808190E0B3010E94FF10DD20A9F706C0F6
:1021B00080E290E0B3010E94FF10EA94EE20C1F7A4
:1021C00043CEF30166817781CB012B96E2E10C943B
:1021D0001AAFFC010590615070400110D8F780954E
:1021E00090958E0F9F1F0895FC01615070400190E3
:1021F0000110D8F7809590958E0F9F1F08950F932B
:102200001F93CF93DF938C01EB018B8181FF1BC068
:1022100082FF0DC02E813F818C819D812817390757
:1022200064F4E881F9810193F983E88306C0E885C5
:10223000F985802F0995892B31F48E819F81019634
:102240009F838E8302C00FEF1FEFC801DF91CF91F4
:102250001F910F910895FA01AA27283051F12031DA
:1022600081F1E8946F936E7F6E5F7F4F8F4F9F4F2A
:10227000AF4FB1E03ED0B4E03CD0670F781F891F6C
:102280009A1FA11D680F791F8A1F911DA11D6A0F3A
:10229000711D811D911DA11D20D009F468943F91ED
:1022A0002AE0269F11243019305D3193DEF6CF01EC
:1022B0000895462F4770405D4193B3E00FD0C9F7B2
:1022C000F6CF462F4F70405D4A3318F0495D31FD1F
:1022D0004052419302D0A9F7EACFB4E0A695979572
:1022E000879577956795BA95C9F700976105710548
:1022F00008959B01AC010A2E069457954795379592
:102300002795BA95C9F7620F731F841F951FA01DEB
:102310000895DF93CF930F92CDB7DEB7FC016983A9
:10232000A081B18112962D913C911397BE016F5FF0
:102330007F4F41E050E0F90109950F90CF91DF9177
:102340000895FC01128213820895FC018381882381
:1023500011F081E082830895FC0182818111128253
:102360000895FC018FE693E0918380838681882322
:1023700021F0CF0103960E94D6740895CF93DF9386
:10238000DB010D900020E9F71197A61BB70BEC01BC
:10239000E881F9810280F381E02DAD010995DF919B
:1023A000CF910895EF92FF920F931F938C01E1EC70
:1023B000EE2EE1E0FE2EE80EF91EC7010E948674A3
:1023C000C7010E94D674F801108211821F910F91EB
:1023D000FF90EF900895CF92DF92EF92FF920F93CC
:1023E0001F93CF93DF937C016B01DB010D900020E5
:1023F000E9F78D0101501040061B170BE1ECF1E0ED
:10240000EE0EFF1ED7011C92EFE3FEEFEE0EFF1E55
:10241000CB016EE470E00E94B90EEC01009731F43C
:10242000F8013197EC0DFD1D86010EC060E270E0F1
:102430000E94B90E8C010F5F1F4FCE016AE270E05F
:102440000E94B90EFC0131978DE081838AE082837E
:102450001382C70182549E4FB8010E94E67C81EC32
:1024600091E0E80EF91ED7018C91882309F1EFE184
:10247000F1E06491EF0107C083E491E10E948911CA
:102480002196FE0164916623B9F7E6E2F1E06491DA
:10249000EF0107C083E491E10E9489112196FE01BA
:1024A00064916623B9F783E491E16AE00E9489119F
:1024B000DF91CF911F910F91FF90EF90DF90CF9020
:1024C0000895EF92FF920F93CF93DF937C01FC016D
:1024D0008381882309F43FC0EEE4F1E06491EF01C9
:1024E00007C083E491E10E9489112196FE01649165
:1024F0006623B9F786E792E0E80EF91EF7014081FE
:102500005181628173818AE89DEFE80EF91E83E4B0
:1025100091E12AE000E00E9467A6ECE4F1E064911A
:10252000EF0107C083E491E10E9489112196FE0129
:1025300064916623B9F78EE692E0E80EF91EF70182
:10254000408151816281738183E491E12AE000E05E
:102550000E9467A60EC0ECE3F1E06491EF0107C0B2
:1025600083E491E10E9489112196FE016491662322
:10257000B9F783E491E16AE00E948911DF91CF917C
:102580000F91FF90EF9008952F923F924F925F929C
:102590006F927F928F929F92AF92BF92CF92DF9273
:1025A000EF92FF920F931F93DF93CF93CDB7DEB7D8
:1025B000AB970FB6F894DEBF0FBECDBF5C014B01E9
:1025C000FC018381882309F41AC1C5018F539E4FF2
:1025D0000E94D674F5011282198A1C8A188A8FE625
:1025E00093E09F878E87ADE4CA2ED12CCA0CDB1CEA
:1025F0002FE230E0A20EB31EF601B182A08221EDDF
:102600003FEFA20EB31EF40180818F3209F081C02A
:10261000C4016FE270E00E94B90E7C010894E11CD5
:10262000F11C3E010894611C711C2601F1E12F2E62
:10263000312C2C0E3D1E68C0C7016FE270E00E9475
:10264000B90E6C01009709F472C0E816F90608F09B
:102650006EC08C010E191F09C301B701A8010E94A9
:10266000D90E060D171DF801108283E491E1B30124
:102670000E94BE1183E491E16AE00E948911F20197
:10268000608171816115710519F460E070E002C02C
:102690006D5F7F4FC101A30121E00E94E47B88238D
:1026A00041F5EAE8F1E064917F0109C083E491E13A
:1026B0000E9489110894E11CF11CF70164916623C2
:1026C000A9F783E491E1BE016F5F7F4F0E94BE11C5
:1026D000E8E8F1E064917F0109C083E491E10E94A0
:1026E00089110894E11CF11CF70164916623A9F794
:1026F0007DC02EE030E02C0F3D1FF201318320839E
:1027000076010894E11CF11CE114F10409F094CF66
:102710000BC08FE490E0A80EB91EF601B182A08232
:1027200021EB3FEFA20EB31ED82C092D02C0DE2CE8
:102730000F2D8DE490E0A80EB91EF50180819181E6
:1027400023EB3FEFA20EB31E009719F480E090E058
:1027500001C003966D2D702F0E94B67C882301F175
:10276000EAE7F1E064917F0109C083E491E10E940E
:1027700089110894E11CF11CF70164916623A9F703
:1027800083E491E16D2D702F0E94BE1126E732E0A7
:10279000A20EB31EF50110821182128213822BC089
:1027A000E2E6F1E064917F0109C083E491E10E94D7
:1027B00089110894E11CF11CF70164916623A9F7C3
:1027C00083E491E16D2D702F0E94BE11E0E6F1E0EF
:1027D00064917F0109C083E491E10E94891108940A
:1027E000E11CF11CF70164916623A9F783E491E1F0
:1027F0006AE00E948911CE010E960E94B111AB963B
:102800000FB6F894DEBF0FBECDBFCF91DF911F9101
:102810000F91FF90EF90DF90CF90BF90AF909F907F
:102820008F907F906F905F904F903F902F90089582
:10283000BF92CF92DF92EF92FF920F931F93CF93AD
:10284000DF938C01EB018FE28993EE24E394FF2464
:1028500089E9C82E81E0D82EC00ED11EBEE1BB2E64
:1028600014C0FB9CC001112480599F4F800F911F01
:10287000BE010E94E87402C02196E39488818823F7
:1028800019F08CE88E15C0F7F3942F2D30E0F60187
:10289000808191812817390720F3E7FC07C0C80120
:1028A0008F539E4FBE010E94E87401C01882DF91D1
:1028B000CF911F910F91FF90EF90DF90CF90BF903D
:1028C00008952F923F924F925F926F927F928F92D4
:1028D0009F92AF92BF92CF92DF92EF92FF920F93AF
:1028E0001F93DF93CF93CDB7DEB7AC970FB6F894B5
:1028F000DEBF0FBECDBF5C014B014CA7DC011396C0
:102900008C91882309F4FEC2E4ECF1E0AE0EBF1E08
:10291000D5018C91ECE3FEEFAE0EBF1E882309F4C7
:1029200004C1222309F0D1C02CED31E0A20EB31E68
:10293000D5018C91E4E2FEEFAE0EBF1E882381F13B
:10294000EFE1F1E064917F0109C083E491E10E942D
:1029500089110894E11CF11CF70164916623A9F721
:10296000E2E6F2E064917F0109C083E491E10E9414
:1029700089110894E11CF11CF70164916623A9F701
:1029800083E491E141E050E060E070E00E94F4A651
:1029900083E491E16AE00E9489110E940729B2C292
:1029A000EFEEF0E064917F0109C083E491E10E94C1
:1029B00089110894E11CF11CF70164916623A9F7C1
:1029C000E9E4F2E064917F0109C083E491E10E94AF
:1029D00089110894E11CF11CF70164916623A9F7A1
:1029E00083E491E1B4010E94BE11EEE3F2E0649150
:1029F0007F0109C083E491E10E9489110894E11CE0
:102A0000F11CF70164916623A9F7850104521E4F5A
:102A1000D8016C915DE8F52E6F9DB00111246F51C6
:102A20007E4F6A0D7B1DC5010E941814F80160815C
:102A30006F9DB00111246F517E4F6A0D7B1D83E4A1
:102A400091E10E94BE11E8E3F2E064917F0109C0C8
:102A500083E491E10E9489110894E11CF11CF701C3
:102A600064916623A9F746E7E42E42E0F42EEA0CCF
:102A7000FB1CD7014D915D916D917C9183E491E1B7
:102A80002AE000E00E9467A683E491E16AE00E94E8
:102A90008911A50144525E4FFA012081E22FF0E036
:102AA000EE0FFF1FEE0FFF1FEA0DFB1DE352FE4F5F
:102AB000D701CD90DD90ED90FC90C082D182E28272
:102AC000F3822F5FFA0120832AC0EFEEF0E06491D9
:102AD0007F0109C083E491E10E9489110894E11CFF
:102AE000F11CF70164916623A9F7E7E2F2E0649133
:102AF0007F0109C083E491E10E9489110894E11CDF
:102B0000F11CF70164916623A9F783E491E1B40114
:102B10000E94BE1183E491E16AE00E948911C5011F
:102B20008F539E4F0E94D67434C02CED31E0A20E1C
:102B3000B31ED5011C92E4E2FEEFAE0EBF1EEFEE17
:102B4000F0E064917F0109C083E491E10E94891162
:102B50000894E11CF11CF70164916623A9F7E6E1F2
:102B6000F2E064917F0109C083E491E10E94891140
:102B70000894E11CF11CF70164916623A9F783E432
:102B800091E1B4010E94BE1183E491E16AE00E94E8
:102B90008911D50112961C92198A1C8A188A8FE60F
:102BA00093E09F878E872DE4C22ED12CCA0CDB1CAC
:102BB000EFE2F0E0AE0EBF1ED601AD92BC92E1EDA9
:102BC000FFEFAE0EBF1ED4018C918F3209F081C091
:102BD000C4016FE270E00E94B90E7C010894E11C10
:102BE000F11C3E010894611C711C260191E1292E03
:102BF000312C2C0E3D1E68C0C7016FE270E00E94B0
:102C0000B90E6C01009709F472C0E816F90608F0D5
:102C10006EC08C010E191F09C301B701A8010E94E3
:102C2000D90E060D171DF801108283E491E1B3015E
:102C30000E94BE1183E491E16AE00E948911D201F1
:102C40006D917C916115710519F460E070E002C02E
:102C50006D5F7F4FC101A30121E00E94E47B8823C7
:102C600041F5E2E0F2E064917F0109C083E491E183
:102C70000E9489110894E11CF11CF70164916623FC
:102C8000A9F783E491E1BE016F5F7F4F0E94BE11FF
:102C9000E0E0F2E064917F0109C083E491E10E94E9
:102CA00089110894E11CF11CF70164916623A9F7CE
:102CB00020C1EEE0F0E0EC0FFD1FD201ED93FC939C
:102CC00076010894E11CF11CE114F10409F094CFA1
:102CD0000BC02FE430E0A20EB31ED601AD92BC9221
:102CE000E1EBFFEFAE0EBF1E082DD92C02C00E2D5A
:102CF000DF2CF501E35BFF4F2CA5222309F4A6C0CE
:102D0000608171816115710519F460E070E002C0A5
:102D10006D5F7F4FC5018F539E4F402F5D2D21E08A
:102D20000E94E47B882309F46AC0A50142595D4FE3
:102D300082ED91E0A80EB91EF50180819181A281FA
:102D4000B3812EE23EEFA20EB31EFA01808391837F
:102D5000A283B383E2EFF1E064917F0109C083E4D1
:102D600091E10E9489110894E11CF11CF701649122
:102D70006623A9F783E491E1602F7D2D0E94BE11A7
:102D8000EAEEF1E064917F0109C083E491E10E94E1
:102D900089110894E11CF11CF70164916623A9F7DD
:102DA0002EE632E0A20EB31ED5014D915D916D91DC
:102DB0007C9183E491E12AE000E00E9467A683E42D
:102DC00091E16AE00E948911E8E0F0E0AE0EBF1EDA
:102DD000D5011D921D921D921C921397ECEDF1E00E
:102DE00064917F0109C083E491E10E9489110894F4
:102DF000E11CF11CF70164916623A9F77AC0E8ECA5
:102E0000F1E064917F0109C083E491E10E9489119E
:102E10000894E11CF11CF70164916623A9F783E48F
:102E200091E1602F7D2D0E94BE11E6ECF1E06491EE
:102E30007F0109C083E491E10E9489110894E11C9B
:102E4000F11CF70164916623A9F753C06081718179
:102E50006115710519F460E070E002C06D5F7F4F8D
:102E6000C5018F539E4F402F5D2D26E50E94E47BC8
:102E7000882339F5E2EBF1E064917F0109C083E436
:102E800091E10E9489110894E11CF11CF701649101
:102E90006623A9F783E491E1602F7D2D0E94BE1186
:102EA000E0EBF1E064917F0109C083E491E10E94CD
:102EB00089110894E11CF11CF70164916623A9F7BC
:102EC00018C081E0D5018C93EEE9F1E064917F01B7
:102ED00009C083E491E10E9489110894E11CF11C6E
:102EE000F70164916623A9F783E491E1B4010E949C
:102EF000BE1183E491E16AE00E948911CE010E9631
:102F00000E94B111AC960FB6F894DEBF0FBECDBFD4
:102F1000CF91DF911F910F91FF90EF90DF90CF90B5
:102F2000BF90AF909F908F907F906F905F904F90E9
:102F30003F902F900895EF92FF920F931F93CF939E
:102F4000DF93EC010E9487848E0104521E4FD8014A
:102F50008C91E1ECEE2EE1E0FE2EEC0EFD1E8823BE
:102F6000A1F1C7010E94D674F801608161506083AD
:102F70008DE8689FB00111246F517E4F6C0F7D1F4B
:102F8000CE0141E021E00E946114D801EC91F0E013
:102F9000EE0FFF1FEE0FFF1FEC0FFD1FE352FE4F62
:102FA0004081518162817381CA58DD4F48835983C2
:102FB0006A837B83C657D240C7010E94BC738B8152
:102FC000882389F181E08A832EC00E94A282C701F2
:102FD0000E94D6741A8283EE90E00E94FE55809182
:102FE000B008882301F11092B00880915206C82FD2
:102FF000D0E0CC0FDD1FCA5DDF4E68817981882764
:1030000077FD8095982F0E9452AB2091D10230918C
:10301000D2024091D3025091D4020E94BEAC181645
:1030200014F419821882DF91CF911F910F91FF90B4
:10303000EF900895FC0181E08183CF0140E021E021
:103040000E9461140895EF92FF920F931F93CF9304
:10305000DF938C01FC01138285A9882321F0C8012C
:10306000C2960E94D674FBE9EF2EF1E0FF2EE00E2F
:10307000F11EC70160E044E10E9476728823E9F402
:10308000EFEEF0E06491EF0107C083E491E10E946C
:1030900089112196FE0164916623B9F7E3EDF2E010
:1030A0006491EF0107C083E491E10E9489112196A8
:1030B000FE0164916623B9F771C0E801C056DE4F86
:1030C000CE01B70141E00E947B7D882321F5CE012E
:1030D000B70140E00E947B7D8823E9F4EFE1F1E055
:1030E0006491EF0107C083E491E10E948911219668
:1030F000FE0164916623B9F7E0ECF2E06491EF0120
:1031000007C083E491E10E9489112196FE01649138
:103110006623B9F743C0C801C296BE010E94D777A3
:103120008823E9F4EFE1F1E06491EF0107C083E463
:1031300091E10E9489112196FE0164916623B9F7FD
:10314000E0EBF2E06491EF0107C083E491E10E94BB
:1031500089112196FE0164916623B9F71FC081E0B1
:10316000F8018383EFEEF0E06491EF0107C083E4A0
:1031700091E10E9489112196FE0164916623B9F7BD
:10318000E5EAF2E06491EF0107C083E491E10E9477
:1031900089112196FE0164916623B9F783E491E1D8
:1031A0006AE00E948911D801AE5ABF4FF801F29629
:1031B0008BE101900D928150E1F7F80181A90F5A3E
:1031C0001F4FF801808301551040C8018F96035BA3
:1031D0001F4FF80191838083DF91CF911F910F9151
:1031E000FF90EF9008952F923F924F925F926F92CF
:1031F0007F929F92AF92BF92CF92DF92EF92FF9217
:103200000F931F93DF93CF93CDB7DEB7CC55D0404C
:103210000FB6F894DEBF0FBECDBF8C01662319F543
:1032200006581D4FD8018C910A571240882309F483
:10323000E7C00FB6F89420913B1130913C114091BA
:103240003D1150913E110FBE0E581D4FF801808167
:103250009181A281B3810257124082179307A4077C
:10326000B50708F4CDC006581D4FD8011C920A5767
:103270001240F8018381882349F4C8010E94231871
:10328000D80113968C91882309F4BAC000D000D0DD
:1032900000D0EDB7FEB731966E010894C11CD11C69
:1032A000ADB7BEB71296DC92CE92119786E191E04F
:1032B00093838283D8019D968D919C919E9795834F
:1032C00084830E94E80E7601EDB7FEB736960FB6FE
:1032D000F894FEBF0FBEEDBF56010AC0D7018C9116
:1032E000992787FD90950E94F3AEF70181937F01A6
:1032F000F50101900020E9F73197EA19FB098E2DBD
:103300008C198E175CF392E3A92EB12CA00EB11E7E
:10331000C50140E050E060E070E00E94BC73992479
:103320008DE3C82ED12CCC0EDD1E2E010894411C3D
:10333000511CBFE16B2E712C6C0E7D1EAFE02A2E4E
:10334000A1E03A2E43C0D7018C9190E00E94F3AEE9
:10335000F70181937F01D6010D900020E9F71197C5
:10336000AC19BD098E2D8C198A176CF327968FAD79
:1033700027978E3759F1C601B20145E050E00E940F
:10338000CB0E009719F500D000D000D0EDB7FEB7F6
:103390003196ADB7BEB712967C926E92119733827A
:1033A0002282558244820E94E80EEDB7FEB736961F
:1033B0000FB6F894FEBF0FBEEDBFC3010E94755655
:1033C0008BE091E00E94FE5599249394C501B601CB
:1033D00040E050E00E94F376181614F47601BBCF5B
:1033E000992041F48FEF9FEFD8019E969C938E9386
:1033F0009D9706C0F80185A596A5019696A785A775
:10340000C45ADF4F0FB6F894DEBF0FBECDBFCF91C9
:10341000DF911F910F91FF90EF90DF90CF90BF90C1
:10342000AF909F907F906F905F904F903F902F90C4
:1034300008952F923F924F925F926F927F928F9258
:103440009F92AF92BF92CF92DF92EF92FF920F9333
:103450001F93DF93CF93CDB7DEB7CD58D0400FB6D3
:10346000F894DEBF0FBECDBF7C012B015A0183E073
:1034700090E0A80EB91EF7017196C957DF4FF98386
:10348000E883C758D040C7010496CC57DF4F9983D3
:103490008883C458D040CA57DF4F1882C658D040DE
:1034A00054E6C52ED12CCC0EDD1EF6013B96C75737
:1034B000DF4FF983E883C958D0404BE7642E42E0E0
:1034C000742E6E0C7F1C3DE7832E32E0932E8E0C03
:1034D0009F1C26E4222E312C2C0E3D1EC10103968A
:1034E000C557DF4F99838883CB58D040EFEEF0E08B
:1034F0009491C357DF4F9883CD58D04030C1F60127
:103500008385482F50E0BA01687170706031710591
:1035100009F033C1F301208131812130310509F4F3
:103520002CC12230310509F428C1F601DE011196C3
:103530009081903239F08E2F8C19883011F48EE200
:103540008D939D933196C757DF4F88819981C958D4
:10355000D040E817F90761F71C921E86F2018081BE
:10356000882331F4CE010E9660E071E00E94AE0E29
:10357000CE010E96B2010E94AE0ECE010E96BE0195
:103580006F5F7F4F0E94AE0ECE010E9660E071E03D
:103590000E94AE0E1BA61EA61AA68FE693E099A760
:1035A00088A7CE018B96B501AE014F5F5F4F21E03A
:1035B0000E94E47B882371F5F30180819181892B3E
:1035C00049F5C357DF4F6881CD58D0400FEE10E06A
:1035D00008C083E491E10E9489110F5F1F4FF80139
:1035E00064916623B1F783E491E162E071E00E94A7
:1035F000BE1183E491E16AE00E94891183E491E1C4
:10360000BE016F5F7F4F0E94BE1183E491E16AE0CB
:103610000E948911C557DF4FA881B981CB58D0408E
:10362000FE01BB968BE101900D928150E1F78AA5D6
:10363000F10182838FE693E091838083C701BE010D
:10364000625F7F4FA1010E94191AC1010E94B1114E
:10365000CE0188960E94B11182C0953E09F47FC0C8
:103660009E3209F47CC09F3509F479C0F701918935
:10367000992331F09E3209F472C09F3509F46FC06E
:1036800043FD6DC080E06031710509F481E0F70110
:1036900084A7882349F4F6018085873409F05FC048
:1036A00081858E3709F45BC0CC57DF4FA881B98183
:1036B000C458D040F6018081803241F08E2F8C19A1
:1036C000883011F48EE28D9380818D933196C757A7
:1036D000DF4F88819981C958D040E817F90759F719
:1036E0001C92F301808191810097A9F483E491E118
:1036F000B2010E94BE1183E491E1CC57DF4F688193
:103700007981C458D0400E94BE1183E491E16AE0FF
:103710000E94891124C08130910539F4F40180811F
:1037200091810196918380831AC00297C1F4CA5790
:10373000DF4FF881C658D0402F2F30E0F401808150
:10374000918128173907F1F0CA57DF4FF881C65821
:10375000D040FF5FCA57DF4FF883C658D040C5013D
:10376000B601C957DF4F48815981C758D0400E94E0
:10377000F37618160CF4C3CE05C0F6019081992398
:1037800009F06BCFC357DF4F0FB6F894DEBF0FBE03
:10379000CDBFCF91DF911F910F91FF90EF90DF9000
:1037A000CF90BF90AF909F908F907F906F905F90E1
:1037B0004F903F902F900895EF92FF920F931F9399
:1037C000DF93CF93CDB7DEB76E970FB6F894DEBF19
:1037D0000FBECDBF7C018BE792E0E80EF91EF7012A
:1037E0001182108285E89DEFE80EF91E87010E5CBC
:1037F0001F4FC80140E050E060E070E00E94BC73E1
:10380000DE011496F8018BE101900D928150E1F7F1
:10381000F70181A98B838FE693E09A838983C7019F
:1038200065E171E08E010F5F1F4FA8010E94191A18
:10383000C8010E94B1116E960FB6F894DEBF0FBE9C
:10384000CDBFCF91DF911F910F91FF90EF90089521
:10385000CF93DF93EC011AAA1DAA19AA8FE693E071
:1038600098AB8FA7CE5ADF4F188223961882C55582
:10387000D040FE01E15BFF4FCF5ADF4F1882C155A8
:10388000D04091838083DE01A359BF4FFD0120E02A
:1038900030E0482F13821682128240839183225E89
:1038A0003F4F7E9681E02C323807A1F7C456DE4F99
:1038B00089E1888323961882689618822A9618824E
:1038C00023961882C45CD140FE01E254FE4FC054DE
:1038D000DE4F188240839183C255DF4F18821982D0
:1038E0001A821B822896188219821A821B82C65756
:1038F000D2401A821B8218821982C756DE4F198263
:103900001882CD5BDF4F1882FD01C901119201972A
:10391000E9F7C256DF4F81E08883CA57D2401EA61E
:103920001DA60FB6F89480913B1190913C11A09187
:103930003D11B0913E110FBE88579C4EAF4FBF4F07
:10394000CE58DD4F88839983AA83BB83DF91CF91C3
:1039500008950F931F93DF93CF93CDB7DEB766978C
:103960000FB6F894DEBF0FBECDBF809116019091C7
:103970001701A0911801B09119018F87988BA98B1D
:10398000BA8BFE013F9644E650E08081F999FECF64
:103990001FBA52BD41BD80BD0FB6F894FA9AF99A8C
:1039A0000FBE4F5F5F4F4836510511F03196EDCF96
:1039B000E4E5F8E08081F999FECF1FBA52BD41BD20
:1039C00080BD0FB6F894FA9AF99A0FBE4F5F5F4F19
:1039D0004837510511F03196EDCFE4E4F8E08081ED
:1039E000F999FECF1FBA52BD41BD80BD0FB6F89404
:1039F000FA9AF99A0FBE4F5F5F4F4838510511F0A0
:103A00003196EDCFE4E6F8E08081F999FECF1FBA58
:103A100052BD41BD80BD0FB6F894FA9AF99A0FBE17
:103A20004F5F5F4F4839510511F03196EDCFE8E710
:103A3000F8E08081F999FECF1FBA52BD41BD80BD2B
:103A40000FB6F894FA9AF99A0FBE4F5F5F4F4C3950
:103A5000510511F03196EDCFECE7F8E08081F9994E
:103A6000FECF1FBA52BD41BD80BD0FB6F894FA9A81
:103A7000F99A0FBE4F5F5F4F403A510511F03196F2
:103A8000EDCFE4E7F8E08081F999FECF1FBA52BD8F
:103A900041BD80BD0FB6F894FA9AF99A0FBE4F5FF8
:103AA0005F4F443A510511F03196EDCFECE8F8E064
:103AB0008081F999FECF1FBA52BD41BD80BD0FB6BE
:103AC000F894FA9AF99A0FBE4F5F5F4F483A510542
:103AD00011F03196EDCFE0E4F8E08081F999FECF66
:103AE0001FBA52BD41BD80BD0FB6F894FA9AF99A3B
:103AF0000FBE4F5F5F4F4C3A510511F03196EDCF3D
:103B0000E0E8F8E08081F999FECF1FBA52BD41BDCF
:103B100080BD0FB6F894FA9AF99A0FBE4F5F5F4FC7
:103B2000403B510511F03196EDCFE4E8F8E080819B
:103B3000F999FECF1FBA52BD41BD80BD0FB6F894B2
:103B4000FA9AF99A0FBE4F5F5F4F443B510511F04F
:103B50003196EDCFE8E8F8E08081F999FECF1FBA01
:103B600052BD41BD80BD0FB6F894FA9AF99A0FBEC6
:103B70004F5F5F4F483B510511F03196EDCFE7E3C2
:103B8000F6E08081F999FECF1FBA52BD41BD80BDDC
:103B90000FB6F894FA9AF99A0FBE4F5F5F4F443C04
:103BA000510511F03196EDCF84EB90E09A83898333
:103BB00086E490E09C838B832FEF30E03E832D835F
:103BC00080EF90E098878F8384E690E09A878987DA
:103BD0003C872B87FE0131968081F999FECF1FBA71
:103BE00052BD41BD80BD0FB6F894FA9AF99A0FBE46
:103BF0004F5F5F4F463C510571F7FE013396808160
:103C0000F999FECF1FBA52BD41BD80BD0FB6F894E1
:103C1000FA9AF99A0FBE4F5F5F4F483C510511F079
:103C20003196EDCFFE0135968081F999FECF1FBA0E
:103C300052BD41BD80BD0FB6F894FA9AF99A0FBEF5
:103C40004F5F5F4F4A3C510511F03196EDCFFE01B9
:103C500037968081F999FECF1FBA52BD41BD80BD14
:103C60000FB6F894FA9AF99A0FBE4F5F5F4F4C3C2B
:103C7000510511F03196EDCFFE0139968081F99909
:103C8000FECF1FBA52BD41BD80BD0FB6F894FA9A5F
:103C9000F99A0FBE4F5F5F4F4E3C510511F03196C0
:103CA000EDCFFE013B968081F999FECF1FBA52BD40
:103CB00041BD80BD0FB6F894FA9AF99A0FBE4F5FD6
:103CC0005F4F403D510511F03196EDCFE4E9F2E050
:103CD0008081F999FECF1FBA52BD41BD80BD0FB69C
:103CE000F894FA9AF99A0FBE4F5F5F4F443D510521
:103CF00011F03196EDCFE8E9F2E08081F999FECF3D
:103D00001FBA52BD41BD80BD0FB6F894FA9AF99A18
:103D10000FBE4F5F5F4F483D510511F03196EDCF1B
:103D2000ECE9F2E08081F999FECF1FBA52BD41BDA6
:103D300080BD0FB6F894FA9AF99A0FBE4F5F5F4FA5
:103D40004C3D510511F03196EDCFE2EEF2E080816D
:103D5000F999FECF1FBA52BD41BD80BD0FB6F89490
:103D6000FA9AF99A0FBE4F5F5F4F403E510511F02E
:103D70003196EDCFE6EEF2E08081F999FECF1FBAE1
:103D800052BD41BD80BD0FB6F894FA9AF99A0FBEA4
:103D90004F5F5F4F443E510511F03196EDCFEAEE93
:103DA000F2E08081F999FECF1FBA52BD41BD80BDBE
:103DB0000FB6F894FA9AF99A0FBE4F5F5F4F483EDC
:103DC000510511F03196EDCF80E290E09E878D870E
:103DD000FE013D968081F999FECF1FBA52BD41BDCB
:103DE00080BD0FB6F894FA9AF99A0FBE4F5F5F4FF5
:103DF0004A3E510511F03196EDCFE9E6F6E08081BB
:103E0000F999FECF1FBA52BD41BD80BD0FB6F894DF
:103E1000FA9AF99A0FBE4F5F5F4F4E3E510511F06F
:103E20003196EDCFE8E8F2E08081F999FECF1FBA34
:103E300052BD41BD80BD0FB6F894FA9AF99A0FBEF3
:103E40004F5F5F4F423F510511F03196EDCFEDE6E8
:103E5000F6E08081F999FECF1FBA52BD41BD80BD09
:103E60000FB6F894FA9AF99A0FBE4F5F5F4F463F2C
:103E7000510511F03196EDCFECE8F2E08081F9992F
:103E8000FECF1FBA52BD41BD80BD0FB6F894FA9A5D
:103E9000F99A0FBE4F5F5F4F4A3F510511F03196BF
:103EA000EDCFE1E7F6E08081F999FECF1FBA52BD70
:103EB00041BD80BD0FB6F894FA9AF99A0FBE4F5FD4
:103EC0005F4F4E3F510511F03196EDCFE0E9F2E042
:103ED0008081F999FECF1FBA52BD41BD80BD0FB69A
:103EE000F894FA9AF99A0FBE81E04130580721F010
:103EF0004F5F5F4F3196ECCF80911A0190911B017B
:103F0000A0911C01B0911D018B8B9C8BAD8BBE8B46
:103F1000FE01739684E690E02081F999FECF1FBAE6
:103F200092BD81BD20BD0FB6F894FA9AF99A0FBEE2
:103F30008736910519F001963196EECFE0EEF2E06A
:103F400064918F0108C083E491E10E9489110F5FA1
:103F50001F4FF80164916623B1F7E4E5F5E0649141
:103F60008F0108C083E491E10E9489110F5F1F4F08
:103F7000F80164916623B1F783E491E16AE00E945D
:103F8000891166960FB6F894DEBF0FBECDBFCF91F4
:103F9000DF911F910F910895EF92FF920F931F935E
:103FA000DF93CF93CDB7DEB7E0970FB6F894DEBFBF
:103FB0000FBECDBFDE011196E1E2F3E080E101909A
:103FC0000D928150E1F7DE015196E1E1F3E080E1ED
:103FD00001900D928150E1F7DE019196E1E0F3E06E
:103FE00080E101900D928150E1F789819A81AB8146
:103FF000BC818093540890935508A0935608B093C1
:10400000570889899A89AB89BC8980934408909321
:104010004508A0934608B093470889A19AA1ABA18F
:10402000BCA18093640890936508A0936608B09340
:1040300067088D819E81AF81B885809358089093E1
:104040005908A0935A08B0935B088D899E89AF895F
:10405000B88D8093480890934908A0934A08B0937C
:104060004B088DA19EA1AFA1B8A58093680890933D
:104070006908A0936A08B0936B0889859A85AB8517
:10408000BC8580935C0890935D08A0935E08B09314
:104090005F08898D9A8DAB8DBC8D80934C08909371
:1040A0004D08A0934E08B0934F0889A59AA5ABA5DB
:1040B000BCA580936C0890936D08A0936E08B09394
:1040C0006F088D859E85AF85B88980936008909331
:1040D0006108A0936208B09363088D8D9E8DAF8DAB
:1040E000B8A18093500890935108A0935208B093C0
:1040F00053088DA59EA5AFA5B8A98093700890938D
:104100007108A0937208B09373080E949F5D80E0CD
:1041100090E8ABE3B5E48093780890937908A09396
:104120007A08B0937B0880937C0890937D08A093D5
:104130007E08B0937F080F2EF0E0EF2EF0E0FF2E08
:10414000F0E00F2FF0E01F2FF02DE0927408F092B6
:104150007508009376081093770880E29EE4A0E04B
:10416000B0E08093400890934108A0934208B09338
:104170004308E0928C08F0928D0800938E0810930B
:104180008F0820E030E040EA51E42093800830932B
:10419000810840938208509383088DEC9CECACEC32
:1041A000BEE38093840890938508A0938608B0931B
:1041B000870880E090E0A0EAB0E4809388089093BC
:1041C0008908A0938A08B0938B08E0923F06F0928A
:1041D00040060093410610934206E0923B06F0929F
:1041E0003C0600933D0610933E06E0923706F0929F
:1041F00038060093390610933A06209394023093C0
:1042000095024093960250939702E0929802F092A2
:10421000990200939A0210939B02E0929C02F09202
:104220009D0200939E0210939F028AE999E9A1EBF7
:10423000B1E48093E2029093E302A093E402B0938E
:10424000E50261E77DE38AE89FE30E948A8C609340
:10425000E6027093E7028093E8029093E90260E03F
:1042600070E084EE92E40E94988C6093EA0270936E
:10427000EB028093EC029093ED020E949A8B80E017
:1042800090E0A0E8BFE38093EE029093EF02A0934A
:10429000F002B093F102E0926906F0926A06009390
:1042A0006B0610936C06E0926D06F0926E0600931A
:1042B0006F0610937006E0927106F09272060093FA
:1042C00073061093740680E090E0A8E1B3E4809355
:1042D000880290938902A0938A02B0938B02809304
:1042E0008C0290938D02A0938E02B0938F028093E4
:1042F000900290939102A0939202B0939302E0EE09
:10430000F2E064918F0108C083E491E10E94891179
:104310000F5F1F4FF80164916623B1F7E6EEF2E0FC
:1043200064918F0108C083E491E10E9489110F5FBD
:104330001F4FF80164916623B1F783E491E16AE0CD
:104340000E948911E0960FB6F894DEBF0FBECDBF74
:10435000CF91DF911F910F91FF90EF9008950F93F0
:104360001F93CF93DF9300EE12E0F8016491E80110
:1043700007C083E491E10E9489112196FE016491B6
:104380006623B9F7E4E4F5E06491EF0107C083E444
:1043900091E10E9489112196FE0164916623B9F78B
:1043A00083E491E16AE00E948911F8016491C0EE12
:1043B000D2E007C083E491E10E9489112196FE01B9
:1043C00064916623B9F74091540850915508609163
:1043D0005608709157088CE395E00E949F304091F9
:1043E00058085091590860915A0870915B0889E308
:1043F00095E00E949F3040915C0850915D0860916B
:104400005E0870915F0886E395E00E949F304091BE
:10441000600850916108609162087091630883E3BD
:1044200095E00E949F3083E491E16EE171E00E948B
:10443000BE1183E491E16AE00E948911F801649160
:10444000C0EED2E007C083E491E10E948911219679
:10445000FE0164916623B9F7E9E1F5E06491EF01AB
:1044600007C083E491E10E9489112196FE016491C5
:104470006623B9F783E491E16AE00E948911F801AB
:104480006491C0EED2E007C083E491E10E948911FB
:104490002196FE0164916623B9F74091440850913A
:1044A0004508609146087091470880E195E00E94B8
:1044B0009F30409148085091490860914A08709196
:1044C0004B088DE095E00E949F3040914C08509140
:1044D0004D0860914E0870914F088AE095E00E9467
:1044E0009F3040915008509151086091520870914E
:1044F000530887E095E00E949F3083E491E16EE1EC
:1045000071E00E94BE1183E491E16AE00E9489118A
:10451000F8016491C0EED2E007C083E491E10E940B
:1045200089112196FE0164916623B9F7E9EEF4E062
:104530006491EF0107C083E491E10E948911219603
:10454000FE0164916623B9F783E491E16AE00E9479
:104550008911F8016491C0EED2E007C083E491E1D3
:104560000E9489112196FE0164916623B9F740915A
:10457000640850916508609166087091670880EE44
:1045800094E00E94A32840916808509169086091C6
:104590006A0870916B088DED94E00E94A328409109
:1045A0006C0850916D0860916E0870916F088AEDEB
:1045B00094E00E94A3284091700850917108609186
:1045C00072087091730887ED94E00E94A32883E439
:1045D00091E16EE171E00E94BE1183E491E16AE035
:1045E0000E948911F8016491C0EED2E007C083E413
:1045F00091E10E9489112196FE0164916623B9F729
:10460000E2EAF4E06491EF0107C083E491E10E94E3
:1046100089112196FE0164916623B9F783E491E143
:104620006AE00E948911F8016491C0EED2E007C0EF
:1046300083E491E10E9489112196FE016491662331
:10464000B9F7409178085091790860917A08709193
:104650007B0889E994E00E949F3040917C0850914A
:104660007D0860917E0870917F0886E994E00E9441
:104670009F3083E491E16EE171E00E94BE1183E41A
:1046800091E16AE00E948911F8016491C0EED2E0E4
:1046900007C083E491E10E9489112196FE01649193
:1046A0006623B9F7E3EEF3E06491EF0107C083E41A
:1046B00091E10E9489112196FE0164916623B9F768
:1046C00083E491E16AE00E948911F8016491C0EEEF
:1046D000D2E007C083E491E10E9489112196FE0196
:1046E00064916623B9F74091740850917508609100
:1046F0007608709177088AED93E00E949F30409190
:104700008C0850918D0860918E0870918F0887ED0C
:1047100093E00E949F304091400850914108609181
:1047200042087091430884ED93E00E94A3284091D1
:10473000800850918108609182087091830881ED12
:1047400093E00E949F3040918408509185086091C9
:104750008608709187088EEC93E00E949F3040910C
:1047600088085091890860918A0870918B088BECB9
:1047700093E00E949F3083E491E16EE171E00E943A
:10478000BE1183E491E16AE00E948911F80164910D
:10479000C0EED2E007C083E491E10E948911219626
:1047A000FE0164916623B9F7E9EBF3E06491EF0150
:1047B00007C083E491E10E9489112196FE01649172
:1047C0006623B9F783E491E16AE00E948911F80158
:1047D0006491C0EED2E007C083E491E10E948911A8
:1047E0002196FE0164916623B9F7409137065091F6
:1047F00038066091390670913A0680EB93E00E948A
:104800009F3040913B0650913C0660913D0670916F
:104810003E068DEA93E00E949F3040913F06509102
:10482000400660914106709142068AEA93E00E9438
:104830009F3083E491E16EE171E00E94BE1183E458
:1048400091E16AE00E948911F8016491C0EED2E022
:1048500007C083E491E10E9489112196FE016491D1
:104860006623B9F7ECE9F3E06491EF0107C083E454
:1048700091E10E9489112196FE0164916623B9F7A6
:1048800083E491E16AE00E948911F8016491C0EE2D
:10489000D2E007C083E491E10E9489112196FE01D4
:1048A00064916623B9F74091E2025091E30260916E
:1048B000E4027091E50282E993E00E949F306091EA
:1048C000E6027091E7028091E8029091E9020E946D
:1048D000918CAB01BC018FE893E00E949F30609106
:1048E000EA027091EB028091EC029091ED020E943D
:1048F0009F8CAB01BC018CE893E00E949F3083E465
:1049000091E16EE171E00E94BE1183E491E16AE001
:104910000E948911F8016491C0EED2E007C083E4DF
:1049200091E10E9489112196FE0164916623B9F7F5
:10493000E9E7F3E06491EF0107C083E491E10E94AD
:1049400089112196FE0164916623B9F783E491E110
:104950006AE00E948911F8016491C0EED2E007C0BC
:1049600083E491E10E9489112196FE0164916623FE
:10497000B9F74091690650916A0660916B06709193
:104980006C0680E793E00E949F3040916D06509145
:104990006E0660916F06709170068DE693E00E943E
:1049A0009F3040917106509172066091730670912C
:1049B00074068AE693E00E949F3083E491E16EE101
:1049C00071E00E94BE1183E491E16AE00E948911C6
:1049D000F8016491C0EED2E007C083E491E10E9447
:1049E00089112196FE0164916623B9F7E7E5F3E0AA
:1049F0006491EF0107C083E491E10E94891121963F
:104A0000FE0164916623B9F783E491E16AE00E94B4
:104A10008911F8016491C0EED2E007C083E491E10E
:104A20000E9489112196FE0164916623B9F7409195
:104A300088025091890260918A0270918B028EE403
:104A400093E00E949F3040918C0250918D026091C2
:104A50008E0270918F028BE493E00E949F30409110
:104A6000900250919102609192027091930288E4B9
:104A700093E00E949F3083E491E16EE171E00E9437
:104A8000BE1183E491E16AE00E948911F80164910A
:104A9000C0EED2E007C083E491E10E948911219623
:104AA000FE0164916623B9F7E1E3F3E06491EF015D
:104AB00007C083E491E10E9489112196FE0164916F
:104AC0006623B9F783E491E16AE00E948911F80155
:104AD0006491C0EED2E007C083E491E10E948911A5
:104AE0002196FE0164916623B9F74091940250919A
:104AF0009502609196027091970288E293E00E947D
:104B00009F30409198025091990260919A02709161
:104B10009B0285E293E00E949F3040919C0250915D
:104B20009D0260919E0270919F0282E293E00E943A
:104B30009F3083E491E16EE171E00E94BE1183E455
:104B400091E16AE00E948911DF91CF911F910F914D
:104B500008950F931F93DF93CF93CDB7DEB766977A
:104B60000FB6F894DEBF0FBECDBF80911A019091B1
:104B70001B01A0911C01B0911D018B8B9C8BAD8BF7
:104B8000BE8BFE013F9604E610E0F999FECF12BD00
:104B900001BDF89A80B580830F5F1F4F083611055D
:104BA00011F03196F2CFCE014396BE01615F7F4F87
:104BB00043E050E00E94CB0E009709F017C2E4E5F5
:104BC000F8E0F999FECF12BD01BDF89A80B5808357
:104BD0000F5F1F4F0837110511F03196F2CFE4E453
:104BE000F8E0F999FECF12BD01BDF89A80B5808337
:104BF0000F5F1F4F0838110511F03196F2CFE4E630
:104C0000F8E0F999FECF12BD01BDF89A80B5808316
:104C10000F5F1F4F0839110511F03196F2CF0E9436
:104C20009F5DE8E7F8E0F999FECF12BD01BDF89A63
:104C300080B580830F5F1F4F0C39110511F031963D
:104C4000F2CFECE7F8E0F999FECF12BD01BDF89A7A
:104C500080B580830F5F1F4F003A110511F0319628
:104C6000F2CFE4E7F8E0F999FECF12BD01BDF89A62
:104C700080B580830F5F1F4F043A110511F0319604
:104C8000F2CFECE8F8E0F999FECF12BD01BDF89A39
:104C900080B580830F5F1F4F083A110511F03196E0
:104CA000F2CFE0E4F8E0F999FECF12BD01BDF89A29
:104CB00080B580830F5F1F4F0C3A110511F03196BC
:104CC000F2CFE0E8F8E0F999FECF12BD01BDF89A05
:104CD00080B580830F5F1F4F003B110511F03196A7
:104CE000F2CFE4E8F8E0F999FECF12BD01BDF89AE1
:104CF00080B580830F5F1F4F043B110511F0319683
:104D0000F2CFE8E8F8E0F999FECF12BD01BDF89ABC
:104D100080B580830F5F1F4F083B110511F031965E
:104D2000F2CFE7E3F6E0F999FECF12BD01BDF89AA4
:104D300080B580830F5F1F4F043C110511F0319641
:104D4000F2CFFE013196F999FECF12BD01BDF89A5E
:104D500080B580830F5F1F4F063C110599F7FE0158
:104D60003396F999FECF12BD01BDF89A80B58083C4
:104D70000F5F1F4F083C110511F03196F2CFFE0175
:104D80003596F999FECF12BD01BDF89A80B58083A2
:104D90000F5F1F4F0A3C110511F03196F2CFFE0153
:104DA0003796F999FECF12BD01BDF89A80B5808380
:104DB0000F5F1F4F0C3C110511F03196F2CFFE0131
:104DC0003996F999FECF12BD01BDF89A80B580835E
:104DD0000F5F1F4F0E3C110511F03196F2CFFE010F
:104DE0003B96F999FECF12BD01BDF89A80B580833C
:104DF0000F5F1F4F003D110511F03196F2CFE4E92E
:104E0000F2E0F999FECF12BD01BDF89A80B580831A
:104E10000F5F1F4F043D110511F03196F2CFE8E905
:104E2000F2E0F999FECF12BD01BDF89A80B58083FA
:104E30000F5F1F4F083D110511F03196F2CFECE9DD
:104E4000F2E0F999FECF12BD01BDF89A80B58083DA
:104E50000F5F1F4F0C3D110511F03196F2CFE2EEBE
:104E6000F2E0F999FECF12BD01BDF89A80B58083BA
:104E70000F5F1F4F003E110511F03196F2CFE6EEA5
:104E8000F2E0F999FECF12BD01BDF89A80B580839A
:104E90000F5F1F4F043E110511F03196F2CFEAEE7D
:104EA000F2E0F999FECF12BD01BDF89A80B580837A
:104EB0000F5F1F4F083E110511F03196F2CFFE0132
:104EC0003D96F999FECF12BD01BDF89A80B5808359
:104ED0000F5F1F4F0A3E110511F03196F2CFE9E640
:104EE000F6E0F999FECF12BD01BDF89A80B5808336
:104EF0000F5F1F4F0E3E110511F03196F2CFE8E81B
:104F0000F2E0F999FECF12BD01BDF89A80B5808319
:104F10000F5F1F4F023F110511F03196F2CFEDE602
:104F2000F6E0F999FECF12BD01BDF89A80B58083F5
:104F30000F5F1F4F063F110511F03196F2CFECE8DD
:104F4000F2E0F999FECF12BD01BDF89A80B58083D9
:104F50000F5F1F4F0A3F110511F03196F2CFE1E7C5
:104F6000F6E0F999FECF12BD01BDF89A80B58083B5
:104F70000F5F1F4F0E3F110511F03196F2CFE0E9A0
:104F8000F2E0F999FECF12BD01BDF89A80B5808399
:104F900081E00130180721F00F5F1F4F3196F1CFEC
:104FA0000E949A8BE0EEF2E064918F0108C083E4E6
:104FB00091E10E9489110F5F1F4FF80164916623F0
:104FC000B1F7E8E0F3E064918F0108C083E491E178
:104FD0000E9489110F5F1F4FF80164916623B1F79A
:104FE00083E491E16AE00E94891104C00E94CC1F11
:104FF0000E94A91C0E94AF2166960FB6F894DEBFEE
:105000000FBECDBFCF91DF911F910F910895CF9328
:10501000DF930FB6F89480913B1190913C11A091D1
:105020003D11B0913E110FBE80937E0690937F0696
:10503000A0938006B0938106E091A706F091A806A0
:10504000E755F94F8081882399F4E6E0F6E0649112
:10505000EF0107C083E491E10E9489112196FE01CE
:1050600064916623B9F783E491E16AE00E948911B3
:10507000DF91CF91089508958091670608950F9369
:105080001F93CF93DF938130910549F46F5F7F4F7A
:1050900009F046C080EA93E00E94281C41C0892B99
:1050A00009F03EC06F5F7F4FD9F58FE693E0909394
:1050B0005F0580935E0580916405882321F081E679
:1050C00095E00E94D674CBE1D5E00FE613E005C071
:1050D0006E9783E0CF3ED80751F0198308838E8105
:1050E0008823B1F3CE0103960E94D674F1CF8FE6E8
:1050F00093E0998388838E81882321F0CE010396E3
:105100000E94D6748FE693E09093D0038093CF03F0
:105110008091D503882321F082ED93E00E94D6741C
:10512000DF91CF911F910F91089580E090E06FEF94
:105130007FEF0E943F28089581E090E06FEF7FEFBE
:105140000E943F280895EF92FF920F931F93CF93F1
:10515000DF93EC017A018B01FC01649107C083E4C9
:1051600091E10E9489112196FE0164916623B9F7AD
:1051700083E491E1B801A7012AE000E00E9467A65C
:10518000DF91CF911F910F91FF90EF900895CF93F2
:10519000DF930E946D8C80916706882309F034C0EC
:1051A00081E0809367068091760690917706A091C2
:1051B0007806B091790680937A0690937B06A09347
:1051C0007C06B0937D06EAE6F5E06491EF0107C046
:1051D00083E491E10E9489112196FE016491662386
:1051E000B9F7E1E7F5E06491EF0107C083E491E1ED
:1051F0000E9489112196FE0164916623B9F783E428
:1052000091E16AE00E948911DF91CF910895CF93D7
:10521000DF93F8940E946D8C779A10924F06769ADD
:1052200010925006479A10925106439AEAE6F5E02A
:105230006491EF0107C083E491E10E9489112196F6
:10524000FE0164916623B9F7E7EEF5E06491EF01A2
:1052500007C083E491E10E9489112196FE016491C7
:105260006623B9F783E491E16AE00E948911FFCFD8
:10527000EF92FF920F931F930FB6F89480913B111A
:1052800090913C11A0913D11B0913E110FBEE09064
:105290008206F09083060091840610918506209185
:1052A0007E0630917F064091800650918106821BD8
:1052B000930BA40BB50BE816F9060A071B0738F485
:1052C000E114F1040105110511F00E940729E09095
:1052D000A002F090A1020091A2021091A302E11499
:1052E000F1040105110561F10FB6F89480913B11AD
:1052F00090913C11A0913D11B0913E110FBE2091B3
:105300007E0630917F064091800650918106821B77
:10531000930BA40BB50BE816F9060A071B0780F4DC
:105320009091810D8091820D981751F4779A109287
:105330004F06769A10925006479A10925106439A59
:105340000E94665D1F910F91FF90EF9008956F92FC
:105350007F928F929F92AF92BF92CF92DF92EF9205
:10536000FF920F931F93F82E609186067091870627
:10537000809188069091890620918A0630918B064B
:1053800040918C0650918D060E94CBAC3B014C01A4
:1053900000D000D000D00DB71EB70F5F1F4F609137
:1053A000770270917802882777FD8095982F0E9468
:1053B00052AB2091A4023091A5024091A6025091D7
:1053C000A7020E9490AD20E030E040E752E40E9446
:1053D000B7AA20E030E048EC52E40E94B7AA5B0193
:1053E0006C01F8016082718282829382F4828091E2
:1053F0005206858387E296E062E976E046E856E069
:1054000020E001E032E0E32E0E94B1588091920644
:1054100090919306A0919406B091950680932706EB
:1054200090932806A0932906B0932A0680919606A9
:1054300090919706A0919806B091990680932B06BB
:1054400090932C06A0932D06B0932E0680919A0679
:1054500090919B06A0919C06B0919D0680932F068B
:1054600090933006A0933106B093320680919E0649
:1054700090919F06A091A006B091A106809333065B
:1054800090933406A0933506B09336060FB6F89481
:1054900080913B1190913C11A0913D11B0913E1132
:1054A0000FBE80937E0690937F06A0938006B093F4
:1054B00081068DB79EB706960FB6F8949EBF0FBEB5
:1054C0008DBF1F910F91FF90EF90DF90CF90BF9015
:1054D000AF909F908F907F906F9008954F925F92C2
:1054E0006F927F928F929F92AF92BF92CF92DF92F4
:1054F000EF92FF920F931F93DF93CF9300D000D0D2
:10550000CDB7DEB70FB6F89480913B1190913C1166
:10551000A0913D11B0913E110FBE80937E069093F5
:105520007F06A0938006B0938106809192069091A9
:105530009306A0919406B091950689839A83AB83D4
:10554000BC8360912706709128068091290690916E
:105550002A0629813A814B815C810E94B0AA882366
:1055600009F09DC04090960650909706609098066E
:105570007090990660912B0670912C0680912D06F3
:1055800090912E06A30192010E94B0AA882309F0EF
:1055900086C000D0CDB6DEB60894C11CD11CE09008
:1055A0009A06F0909B0600919C0610919D066091D2
:1055B000A4027091A5028091A6029091A70220E01A
:1055C00030E040E752E40E94B7AA4B015C0182E55B
:1055D00096E0D6018D939C9369817A818B819C8121
:1055E000A3019201EEE9CE2EE6E0DE2E0E949E633C
:1055F0000F900F908091920690919306A09194063F
:10560000B09195068093270690932806A0932906CB
:10561000B0932A068091960690919706A0919806DD
:10562000B091990680932B0690932C06A0932D069B
:10563000B0932E0680919A0690919B06A0919C06AD
:10564000B0919D0680932F0690933006A09331066B
:10565000B093320680919E0690919F06A091A0067D
:10566000B091A1068093330690933406A09335063B
:10567000B09336060F900F900F900F90CF91DF915F
:105680001F910F91FF90EF90DF90CF90BF90AF9060
:105690009F908F907F906F905F904F90089500D073
:1056A000CDB6DEB60894C11CD11C40909606509031
:1056B00097066090980670909906E0909A06F09090
:1056C0009B0600919C0610919D0660917702709157
:1056D0007802882777FD8095982F0E9452AB209101
:1056E000A4023091A5024091A6025091A7020E9407
:1056F00090AD20E030E040E752E40E94B7AA20E0FD
:1057000030E048EC52E40E94B7AA4B015C0182E50C
:1057100096E0F601918380835FCFCF93DF9383E49C
:1057200091E10E942DA8E9E0F6E06491EF0107C045
:1057300083E491E10E9489112196FE016491662320
:10574000B9F740917606509177066091780670918E
:1057500079064F5F5F4F6F4F7F4F83E491E10E9467
:10576000F4A683E491E16AE00E9489110E9407286F
:10577000DF91CF9108954F925F926F927F928F92B7
:105780009F92AF92BF92CF92DF92EF92FF920F93D0
:105790001F934090A4025090A5026090A6027090C2
:1057A000A7020F2EF0E0AF2EF0E4BF2EFCE9CF2EC3
:1057B000F5E4DF2EF02DA092A402B092A502C092D3
:1057C000A602D092A70260932706709328068093C2
:1057D000290690932A0620932B0630932C0640939B
:1057E0002D0650932E06E0922F06F092300600937D
:1057F00031061093320600D0E2E5F6E0ADB7BEB751
:105800001296FC93EE931197F3E3CF2EF6E0DF2E82
:105810000F2EFBEA8F2EFAEA9F2EF6EAAF2EF2E465
:10582000BF2EF02D0E949E630F900F900E948784E0
:105830004092A4025092A5026092A6027092A70222
:105840001F910F91FF90EF90DF90CF90BF90AF909E
:105850009F908F907F906F905F904F9008952F92C0
:105860003F924F925F926F927F928F929F92AF92F0
:10587000BF92CF92DF92EF92FF920F931F93DF932D
:10588000CF93CDB7DEB7AC970FB6F894DEBF0FBE9F
:10589000CDBF9A8B898B8330910508F084C2FC01BF
:1058A000E255F84FB4901C01220C331C220C331C1F
:1058B0009101295D394F3C8B2B8B80E090E0A0E07B
:1058C000B0E0F90180839183A283B38360912706BE
:1058D000709128068091290690912A0620912B0626
:1058E00030912C0640912D0650912E06E0902F0607
:1058F000F09030060091310610913206B3E3CB2EC2
:10590000B6E0DB2E0E94E85D9E012F5F3F4F3CA773
:105910002BA7D901ECE01D92EA95E9F76091880286
:105920007091890280918A0290918B022091690680
:1059300030916A0640916B0650916C060E94D6A980
:1059400069837A838B839C8360918C0270918D0232
:1059500080918E0290918F0220916D0630916E069B
:1059600040916F06509170060E94D6A96D837E8388
:105970008F8398876091900270919102809192023A
:1059800090919302209171063091720640917306B6
:10599000509174060E94D6A969877A878B879C8765
:1059A0006B2D772767FD7095882777FD8095982F59
:1059B0000E9452AB6D877E878F87988B91012E5600
:1059C000394F3E8B2D8B41E050E04C0F5D1F420D57
:1059D000531D588F4F8BDA016D917D918D919C9164
:1059E00020E030E040EC5FE30E9490AD2D853E85E5
:1059F0004F8558890E9490ADED89FE89608371833F
:105A000082839383910129593D4F3A8F298FD90180
:105A10006D917D918D919C916093A4027093A502EC
:105A20008093A6029093A70200D0CDB6DEB608946C
:105A3000C11CD11C40909206509093066090940631
:105A400070909506209196063091970640919806A1
:105A5000509199062B8F3C8F4D8F5E8FE0909A0668
:105A6000F0909B0600919C0610919D0620E030E08E
:105A700040E752E40E94B7AA4B015C01E2E5F6E080
:105A8000D601ED93FC93C301B2012B8D3C8D4D8D5E
:105A90005E8DAEE9CA2EA6E0DA2E0E949E630F90BC
:105AA0000F900E94878420E030E040E050E0AB8916
:105AB000BC892D933D934D935C931397609127067A
:105AC000709128068091290690912A0620912B0634
:105AD00030912C0640912D0650912E06E0902F0615
